{
  "address": "0x2575C6C8C515b86af775F1D33A8E0BA562A84f06",
  "abi": [
    {
      "inputs": [],
      "stateMutability": "nonpayable",
      "type": "constructor"
    },
    {
      "inputs": [],
      "name": "executorBase",
      "outputs": [
        {
          "internalType": "address",
          "name": "",
          "type": "address"
        }
      ],
      "stateMutability": "view",
      "type": "function"
    },
    {
      "inputs": [
        {
          "internalType": "contract IDAO",
          "name": "_dao",
          "type": "address"
        }
      ],
      "name": "newCore",
      "outputs": [
        {
          "internalType": "address",
          "name": "",
          "type": "address"
        },
        {
          "internalType": "address",
          "name": "",
          "type": "address"
        },
        {
          "internalType": "address",
          "name": "",
          "type": "address"
        }
      ],
      "stateMutability": "nonpayable",
      "type": "function"
    },
    {
      "inputs": [],
      "name": "permissionsBase",
      "outputs": [
        {
          "internalType": "address",
          "name": "",
          "type": "address"
        }
      ],
      "stateMutability": "view",
      "type": "function"
    },
    {
      "inputs": [],
      "name": "processesBase",
      "outputs": [
        {
          "internalType": "address",
          "name": "",
          "type": "address"
        }
      ],
      "stateMutability": "view",
      "type": "function"
    }
  ],
  "transactionHash": "0x66130cb8dae726e8a3df48aa40d8ff6ee49009fb9e1234cada58bce573d6ddd9",
  "args": [],
  "solcInputHash": "effbbd7e948d8c3899cd75bca837788f",
  "bytecode": "0x60e060405234801561001057600080fd5b5060405161001d906100c1565b604051809103906000f080158015610039573d6000803e3d6000fd5b5060601b6001600160601b031916608052604051610056906100ce565b604051809103906000f080158015610072573d6000803e3d6000fd5b5060601b6001600160601b03191660a05260405161008f906100db565b604051809103906000f0801580156100ab573d6000803e3d6000fd5b5060601b6001600160601b03191660c0526100e8565b612dde80610d3583390190565b611bdf80613b1383390190565b611482806156f283390190565b60805160601c60a05160601c60c05160601c610c036101326000396000818160a701526102800152600081816056015261022401526000818160ce01526101680152610c036000f3fe608060405234801561001057600080fd5b506004361061004c5760003560e01c80631ef7ff4f1461005157806327ad3750146100a25780633d7b63b6146100c95780638ba8869c146100f0575b600080fd5b6100787f000000000000000000000000000000000000000000000000000000000000000081565b60405173ffffffffffffffffffffffffffffffffffffffff90911681526020015b60405180910390f35b6100787f000000000000000000000000000000000000000000000000000000000000000081565b6100787f000000000000000000000000000000000000000000000000000000000000000081565b6101036100fe36600461030d565b61013a565b6040805173ffffffffffffffffffffffffffffffffffffffff94851681529284166020840152921691810191909152606001610099565b60405173ffffffffffffffffffffffffffffffffffffffff821660248201526000908190819081906101f9907f00000000000000000000000000000000000000000000000000000000000000009063189acdbd60e31b906044015b60408051601f198184030181529190526020810180517bffffffffffffffffffffffffffffffffffffffffffffffffffffffff167fffffffff00000000000000000000000000000000000000000000000000000000909316929092179091526102bf565b60405173ffffffffffffffffffffffffffffffffffffffff87166024820152909150600090610255907f00000000000000000000000000000000000000000000000000000000000000009063189acdbd60e31b90604401610195565b60405173ffffffffffffffffffffffffffffffffffffffff881660248201529091506000906102b1907f00000000000000000000000000000000000000000000000000000000000000009063189acdbd60e31b90604401610195565b929791965091945092505050565b60008083836040516102d090610300565b6102db92919061034a565b604051809103906000f0801580156102f7573d6000803e3d6000fd5b50949350505050565b610810806103be83390190565b60006020828403121561031f57600080fd5b813573ffffffffffffffffffffffffffffffffffffffff8116811461034357600080fd5b9392505050565b73ffffffffffffffffffffffffffffffffffffffff8316815260006020604081840152835180604085015260005b8181101561039457858101830151858201606001528201610378565b818111156103a6576000606083870101525b50601f01601f19169290920160600194935050505056fe6080604052604051610810380380610810833981016040819052610022916102f5565b61004d60017f360894a13ba1a3210667c828492db98dca3e2076cc3735a920a3ca505d382bbd610412565b6000805160206107c98339815191521461006957610069610463565b6100758282600061007c565b505061048f565b610085836100b2565b6000825111806100925750805b156100ad576100ab83836100f260201b6100291760201c565b505b505050565b6100bb8161011e565b6040516001600160a01b038216907fbc7cd75a20ee27fd9adebab32041f755214dbc6bffa90cc0225b39da2e5c2d3b90600090a250565b606061011783836040518060600160405280602781526020016107e9602791396101de565b9392505050565b610131816102b360201b6100551760201c565b6101985760405162461bcd60e51b815260206004820152602d60248201527f455243313936373a206e657720696d706c656d656e746174696f6e206973206e60448201526c1bdd08184818dbdb9d1c9858dd609a1b60648201526084015b60405180910390fd5b806101bd6000805160206107c983398151915260001b6102b960201b61005b1760201c565b80546001600160a01b0319166001600160a01b039290921691909117905550565b6060833b61023d5760405162461bcd60e51b815260206004820152602660248201527f416464726573733a2064656c65676174652063616c6c20746f206e6f6e2d636f6044820152651b9d1c9858dd60d21b606482015260840161018f565b600080856001600160a01b03168560405161025891906103c3565b600060405180830381855af49150503d8060008114610293576040519150601f19603f3d011682016040523d82523d6000602084013e610298565b606091505b5090925090506102a98282866102bc565b9695505050505050565b3b151590565b90565b606083156102cb575081610117565b8251156102db5782518084602001fd5b8160405162461bcd60e51b815260040161018f91906103df565b6000806040838503121561030857600080fd5b82516001600160a01b038116811461031f57600080fd5b60208401519092506001600160401b038082111561033c57600080fd5b818501915085601f83011261035057600080fd5b81518181111561036257610362610479565b604051601f8201601f19908116603f0116810190838211818310171561038a5761038a610479565b816040528281528860208487010111156103a357600080fd5b6103b4836020830160208801610437565b80955050505050509250929050565b600082516103d5818460208701610437565b9190910192915050565b60208152600082518060208401526103fe816040850160208701610437565b601f01601f19169190910160400192915050565b60008282101561043257634e487b7160e01b600052601160045260246000fd5b500390565b60005b8381101561045257818101518382015260200161043a565b838111156100ab5750506000910152565b634e487b7160e01b600052600160045260246000fd5b634e487b7160e01b600052604160045260246000fd5b61032b8061049e6000396000f3fe60806040523661001357610011610017565b005b6100115b61002761002261005e565b6100a3565b565b606061004e83836040518060600160405280602781526020016102cf602791396100c7565b9392505050565b3b151590565b90565b600061009e7f360894a13ba1a3210667c828492db98dca3e2076cc3735a920a3ca505d382bbc5473ffffffffffffffffffffffffffffffffffffffff1690565b905090565b3660008037600080366000845af43d6000803e8080156100c2573d6000f35b3d6000fd5b6060833b61015c576040517f08c379a000000000000000000000000000000000000000000000000000000000815260206004820152602660248201527f416464726573733a2064656c65676174652063616c6c20746f206e6f6e2d636f60448201527f6e7472616374000000000000000000000000000000000000000000000000000060648201526084015b60405180910390fd5b6000808573ffffffffffffffffffffffffffffffffffffffff16856040516101849190610231565b600060405180830381855af49150503d80600081146101bf576040519150601f19603f3d011682016040523d82523d6000602084013e6101c4565b606091505b50915091506101d48282866101de565b9695505050505050565b606083156101ed57508161004e565b8251156101fd5782518084602001fd5b816040517f08c379a0000000000000000000000000000000000000000000000000000000008152600401610153919061024d565b6000825161024381846020870161029e565b9190910192915050565b602081526000825180602084015261026c81604085016020870161029e565b601f017fffffffffffffffffffffffffffffffffffffffffffffffffffffffffffffffe0169190910160400192915050565b60005b838110156102b95781810151838201526020016102a1565b838111156102c8576000848401525b5050505056fe416464726573733a206c6f772d6c6576656c2064656c65676174652063616c6c206661696c6564a26469706673582212204febecbe50d9e51146637628814f1e102b293f2540fb0988d91815075752147e64736f6c63430008060033360894a13ba1a3210667c828492db98dca3e2076cc3735a920a3ca505d382bbc416464726573733a206c6f772d6c6576656c2064656c65676174652063616c6c206661696c6564a26469706673582212208ec4a4b85e1ea61a9f6f0e14903b0c9f6104b9be5533d3ebfc0ba5c8b8cfa94f64736f6c6343000806003360a06040523060601b6080523480156200001857600080fd5b50600054600160a81b900460ff16806200003c5750600054600160a01b900460ff16155b620000a45760405162461bcd60e51b815260206004820152602e60248201527f496e697469616c697a61626c653a20636f6e747261637420697320616c72656160448201526d191e481a5b9a5d1a585b1a5e995960921b606482015260840160405180910390fd5b600054600160a81b900460ff16158015620000cf576000805461ffff60a01b191661010160a01b1790555b8015620000e4576000805460ff60a81b191690555b5060805160601c612cc562000119600039600081816109d501528181610a6b01528181610cf40152610d8a0152612cc56000f3fe6080604052600436106100965760003560e01c80634f1ef2861161006957806373dea80d1161004e57806373dea80d14610198578063b908afa8146101cc578063c4d66de81461020057600080fd5b80634f1ef286146101565780637053ea071461016957600080fd5b80632c6f5f211461009b5780633659cfe6146100d25780633e235cdf146100f457806346b2057514610136575b600080fd5b3480156100a757600080fd5b506100bb6100b6366004611d57565b610220565b6040516100c992919061241e565b60405180910390f35b3480156100de57600080fd5b506100f26100ed366004611bcf565b6109ca565b005b34801561010057600080fd5b506101287f2ec6aaf37928bdccebb5b7ceed4547c77d96f94274dc3605bcc2cf29c22f50f281565b6040519081526020016100c9565b34801561014257600080fd5b506100f2610151366004611c72565b610b68565b6100f2610164366004611bec565b610ce9565b34801561017557600080fd5b50610189610184366004611d06565b610e78565b6040516100c9939291906122ae565b3480156101a457600080fd5b506101287f2fcdaec8cad6a3744315fd405312d932e856c986599dc919b7123058aa283b4a81565b3480156101d857600080fd5b506101287f88aa719609f728b0c5e7fb8dd3608d5c25d497efbb3b9dd64e9251ebba10150881565b34801561020c57600080fd5b506100f261021b366004611bcf565b6112b2565b610228611ad9565b60008054604051637ef7c88360e11b81527f2ec6aaf37928bdccebb5b7ceed4547c77d96f94274dc3605bcc2cf29c22f50f2916001600160a01b03169063fdef9106906102819030903390869088903690600401612270565b602060405180830381600087803b15801561029b57600080fd5b505af11580156102af573d6000803e3d6000fd5b505050506040513d601f19601f820116820180604052508101906102d39190611c50565b6103245760405162461bcd60e51b815260206004820152600b60248201527f617574683a20636865636b00000000000000000000000000000000000000000060448201526064015b60405180910390fd5b60016103308580612491565b60405161033e92919061208f565b90815260408051918290036020908101832060808401835280546001600160a01b03168452825160c08101909352600181018054919392850192918290829061038690612857565b80601f01602080910402602001604051908101604052809291908181526020018280546103b290612857565b80156103ff5780601f106103d4576101008083540402835291602001916103ff565b820191906000526020600020905b8154815290600101906020018083116103e257829003601f168201915b5050505050815260200160018201805461041890612857565b80601f016020809104026020016040519081016040528092919081815260200182805461044490612857565b80156104915780601f1061046657610100808354040283529160200191610491565b820191906000526020600020905b81548152906001019060200180831161047457829003601f168201915b505050505081526020016002820180546104aa90612857565b80601f01602080910402602001604051908101604052809291908181526020018280546104d690612857565b80156105235780601f106104f857610100808354040283529160200191610523565b820191906000526020600020905b81548152906001019060200180831161050657829003601f168201915b5050505050815260200160038201805461053c90612857565b80601f016020809104026020016040519081016040528092919081815260200182805461056890612857565b80156105b55780601f1061058a576101008083540402835291602001916105b5565b820191906000526020600020905b81548152906001019060200180831161059857829003601f168201915b505050505081526020016004820180546105ce90612857565b80601f01602080910402602001604051908101604052809291908181526020018280546105fa90612857565b80156106475780601f1061061c57610100808354040283529160200191610647565b820191906000526020600020905b81548152906001019060200180831161062a57829003601f168201915b5050505050815260200160058201805461066090612857565b80601f016020809104026020016040519081016040528092919081815260200182805461068c90612857565b80156106d95780601f106106ae576101008083540402835291602001916106d9565b820191906000526020600020905b8154815290600101906020018083116106bc57829003601f168201915b505050505081525050815260200160078201805480602002602001604051908101604052809291908181526020016000905b828210156107e25760008481526020908190206040805180820182526002860290920180546001600160a01b031683526001810180548351818702810187019094528084529394919385830193928301828280156107ca57602002820191906000526020600020906000905b82829054906101000a900460e01b7bffffffffffffffffffffffffffffffffffffffffffffffffffffffff1916815260200190600401906020826003010492830192600103820291508084116107775790505b5050505050815250508152602001906001019061070b565b5050505081526020016008820180546107fa90612857565b80601f016020809104026020016040519081016040528092919081815260200182805461082690612857565b80156108735780601f1061084857610100808354040283529160200191610873565b820191906000526020600020905b81548152906001019060200180831161085657829003601f168201915b505050505081525050925061089b8480602001906108919190612440565b856040015161142a565b6108e75760405162461bcd60e51b815260206004820152601360248201527f4e6f7420616c6c6f77656420616374696f6e2100000000000000000000000000604482015260640161031b565b82516040517f6929279e0000000000000000000000000000000000000000000000000000000081526001600160a01b0390911690636929279e9061093190869088906004016122f5565b602060405180830381600087803b15801561094b57600080fd5b505af115801561095f573d6000803e3d6000fd5b505050506040513d601f19601f820116820180604052508101906109839190611d8c565b9150818460405161099491906121ae565b604051908190038120907fdd0ae7804a963900d76c7c819daed8f8036848a5e56c6cd9d7317608dafcd54990600090a350915091565b306001600160a01b037f0000000000000000000000000000000000000000000000000000000000000000161415610a695760405162461bcd60e51b815260206004820152602c60248201527f46756e6374696f6e206d7573742062652063616c6c6564207468726f7567682060448201527f64656c656761746563616c6c0000000000000000000000000000000000000000606482015260840161031b565b7f00000000000000000000000000000000000000000000000000000000000000006001600160a01b0316610ac47f360894a13ba1a3210667c828492db98dca3e2076cc3735a920a3ca505d382bbc546001600160a01b031690565b6001600160a01b031614610b405760405162461bcd60e51b815260206004820152602c60248201527f46756e6374696f6e206d7573742062652063616c6c6564207468726f7567682060448201527f6163746976652070726f78790000000000000000000000000000000000000000606482015260840161031b565b610b49816115d3565b60408051600080825260208201909252610b65918391906116ca565b50565b60008054604051637ef7c88360e11b81527f2fcdaec8cad6a3744315fd405312d932e856c986599dc919b7123058aa283b4a926001600160a01b039092169163fdef910691610bc1913091339187913690600401612270565b602060405180830381600087803b158015610bdb57600080fd5b505af1158015610bef573d6000803e3d6000fd5b505050506040513d601f19601f82011682018060405250810190610c139190611c50565b610c5f5760405162461bcd60e51b815260206004820152600b60248201527f617574683a20636865636b000000000000000000000000000000000000000000604482015260640161031b565b8160018585604051610c7292919061208f565b908152604051908190036020019020610c8b828261297f565b5050604051610c9b90839061209f565b60405180910390208484604051610cb392919061208f565b604051908190038120907fff2eb5504d3d1379ec716ca759f28fbe700d3a74cf8007398f84587b6328015d90600090a350505050565b306001600160a01b037f0000000000000000000000000000000000000000000000000000000000000000161415610d885760405162461bcd60e51b815260206004820152602c60248201527f46756e6374696f6e206d7573742062652063616c6c6564207468726f7567682060448201527f64656c656761746563616c6c0000000000000000000000000000000000000000606482015260840161031b565b7f00000000000000000000000000000000000000000000000000000000000000006001600160a01b0316610de37f360894a13ba1a3210667c828492db98dca3e2076cc3735a920a3ca505d382bbc546001600160a01b031690565b6001600160a01b031614610e5f5760405162461bcd60e51b815260206004820152602c60248201527f46756e6374696f6e206d7573742062652063616c6c6564207468726f7567682060448201527f6163746976652070726f78790000000000000000000000000000000000000000606482015260840161031b565b610e68826115d3565b610e74828260016116ca565b5050565b80516020818301810180516001808352938301929094019190912092905281546040805160c0810190915291830180546001600160a01b0390921693929182908290610ec390612857565b80601f0160208091040260200160405190810160405280929190818152602001828054610eef90612857565b8015610f3c5780601f10610f1157610100808354040283529160200191610f3c565b820191906000526020600020905b815481529060010190602001808311610f1f57829003601f168201915b50505050508152602001600182018054610f5590612857565b80601f0160208091040260200160405190810160405280929190818152602001828054610f8190612857565b8015610fce5780601f10610fa357610100808354040283529160200191610fce565b820191906000526020600020905b815481529060010190602001808311610fb157829003601f168201915b50505050508152602001600282018054610fe790612857565b80601f016020809104026020016040519081016040528092919081815260200182805461101390612857565b80156110605780601f1061103557610100808354040283529160200191611060565b820191906000526020600020905b81548152906001019060200180831161104357829003601f168201915b5050505050815260200160038201805461107990612857565b80601f01602080910402602001604051908101604052809291908181526020018280546110a590612857565b80156110f25780601f106110c7576101008083540402835291602001916110f2565b820191906000526020600020905b8154815290600101906020018083116110d557829003601f168201915b5050505050815260200160048201805461110b90612857565b80601f016020809104026020016040519081016040528092919081815260200182805461113790612857565b80156111845780601f1061115957610100808354040283529160200191611184565b820191906000526020600020905b81548152906001019060200180831161116757829003601f168201915b5050505050815260200160058201805461119d90612857565b80601f01602080910402602001604051908101604052809291908181526020018280546111c990612857565b80156112165780601f106111eb57610100808354040283529160200191611216565b820191906000526020600020905b8154815290600101906020018083116111f957829003601f168201915b5050505050815250509080600801805461122f90612857565b80601f016020809104026020016040519081016040528092919081815260200182805461125b90612857565b80156112a85780601f1061127d576101008083540402835291602001916112a8565b820191906000526020600020905b81548152906001019060200180831161128b57829003601f168201915b5050505050905083565b6000547501000000000000000000000000000000000000000000900460ff16806112f7575060005474010000000000000000000000000000000000000000900460ff16155b6113695760405162461bcd60e51b815260206004820152602e60248201527f496e697469616c697a61626c653a20636f6e747261637420697320616c72656160448201527f647920696e697469616c697a6564000000000000000000000000000000000000606482015260840161031b565b6000547501000000000000000000000000000000000000000000900460ff161580156113d057600080547fffffffffffffffffffff0000ffffffffffffffffffffffffffffffffffffffff1675010100000000000000000000000000000000000000001790555b6000805473ffffffffffffffffffffffffffffffffffffffff19166001600160a01b0384161790558015610e7457600080547fffffffffffffffffffff00ffffffffffffffffffffffffffffffffffffffffff1690555050565b8051600090839082805b838110156115c3573688888381811061144f5761144f6128bd565b905060200281019061146191906124d8565b905060005b8481101561159c576000888281518110611482576114826128bd565b6020026020010151905080600001516001600160a01b03168360000160208101906114ad9190611bcf565b6001600160a01b031614156115895760208101515160005b8181101561157957826020015181815181106114e3576114e36128bd565b60200260200101517bffffffffffffffffffffffffffffffffffffffffffffffffffffffff191685806040019061151a9190612491565b611529916004916000916125b2565b6115329161262f565b7fffffffff000000000000000000000000000000000000000000000000000000001614156115635760019650611579565b60009650806115718161288c565b9150506114c5565b50851561158757505061159c565b505b50806115948161288c565b915050611466565b50826115b0576000955050505050506115cc565b50806115bb8161288c565b915050611434565b50600193505050505b9392505050565b60008054604051637ef7c88360e11b81527f88aa719609f728b0c5e7fb8dd3608d5c25d497efbb3b9dd64e9251ebba101508926001600160a01b039092169163fdef91069161162c913091339187913690600401612270565b602060405180830381600087803b15801561164657600080fd5b505af115801561165a573d6000803e3d6000fd5b505050506040513d601f19601f8201168201806040525081019061167e9190611c50565b610e745760405162461bcd60e51b815260206004820152600b60248201527f617574683a20636865636b000000000000000000000000000000000000000000604482015260640161031b565b60006116fd7f360894a13ba1a3210667c828492db98dca3e2076cc3735a920a3ca505d382bbc546001600160a01b031690565b90506117088461188e565b6000835111806117155750815b15611726576117248484611950565b505b7f4910fdfa16fed3260ed0e7147f7cc6da11a60208b5b9406d12a635614ffd9143805460ff1661188757805460ff191660011781556040516001600160a01b03831660248201526117d390869060440160408051601f198184030181529190526020810180517bffffffffffffffffffffffffffffffffffffffffffffffffffffffff167f3659cfe600000000000000000000000000000000000000000000000000000000179052611950565b50805460ff191681557f360894a13ba1a3210667c828492db98dca3e2076cc3735a920a3ca505d382bbc546001600160a01b0383811691161461187e5760405162461bcd60e51b815260206004820152602f60248201527f45524331393637557067726164653a207570677261646520627265616b73206660448201527f7572746865722075706772616465730000000000000000000000000000000000606482015260840161031b565b61188785611975565b5050505050565b803b6119025760405162461bcd60e51b815260206004820152602d60248201527f455243313936373a206e657720696d706c656d656e746174696f6e206973206e60448201527f6f74206120636f6e747261637400000000000000000000000000000000000000606482015260840161031b565b7f360894a13ba1a3210667c828492db98dca3e2076cc3735a920a3ca505d382bbc805473ffffffffffffffffffffffffffffffffffffffff19166001600160a01b0392909216919091179055565b60606115cc8383604051806060016040528060278152602001612c69602791396119b5565b61197e8161188e565b6040516001600160a01b038216907fbc7cd75a20ee27fd9adebab32041f755214dbc6bffa90cc0225b39da2e5c2d3b90600090a250565b6060833b611a2b5760405162461bcd60e51b815260206004820152602660248201527f416464726573733a2064656c65676174652063616c6c20746f206e6f6e2d636f60448201527f6e74726163740000000000000000000000000000000000000000000000000000606482015260840161031b565b600080856001600160a01b031685604051611a469190612073565b600060405180830381855af49150503d8060008114611a81576040519150601f19603f3d011682016040523d82523d6000602084013e611a86565b606091505b5091509150611a96828286611aa0565b9695505050505050565b60608315611aaf5750816115cc565b825115611abf5782518084602001fd5b8160405162461bcd60e51b815260040161031b91906122e2565b604051806080016040528060006001600160a01b03168152602001611b2d6040518060c001604052806060815260200160608152602001606081526020016060815260200160608152602001606081525090565b815260200160608152602001606081525090565b600067ffffffffffffffff80841115611b5c57611b5c6128d3565b604051601f8501601f19908116603f01168101908282118183101715611b8457611b846128d3565b81604052809350858152868686011115611b9d57600080fd5b858560208301376000602087830101525050509392505050565b600060808284031215611bc957600080fd5b50919050565b600060208284031215611be157600080fd5b81356115cc81612c25565b60008060408385031215611bff57600080fd5b8235611c0a81612c25565b9150602083013567ffffffffffffffff811115611c2657600080fd5b8301601f81018513611c3757600080fd5b611c4685823560208401611b41565b9150509250929050565b600060208284031215611c6257600080fd5b815180151581146115cc57600080fd5b600080600060408486031215611c8757600080fd5b833567ffffffffffffffff80821115611c9f57600080fd5b818601915086601f830112611cb357600080fd5b813581811115611cc257600080fd5b876020828501011115611cd457600080fd5b602092830195509350908501359080821115611cef57600080fd5b50611cfc86828701611bb7565b9150509250925092565b600060208284031215611d1857600080fd5b813567ffffffffffffffff811115611d2f57600080fd5b8201601f81018413611d4057600080fd5b611d4f84823560208401611b41565b949350505050565b600060208284031215611d6957600080fd5b813567ffffffffffffffff811115611d8057600080fd5b611d4f84828501611bb7565b600060208284031215611d9e57600080fd5b5051919050565b60008160005b84811015611e52578135603e19853603018112611dc757600080fd5b84018035611dd481612c25565b6001600160a01b031687526020808801611df083830184612504565b9350906000905b84821015611e40578235611e0a81612c3a565b7fffffffff0000000000000000000000000000000000000000000000000000000016815291830191600191909101908301611df7565b99505050929092019150600101611dab565b5093949350505050565b818352818160208501375060006020828401015260006020601f19601f840116840101905092915050565b8181843750600082820152601f01601f19160190565b60008151808452611eb5816020860160208601612827565b601f01601f19169290920160200192915050565b6000815160c08452611ede60c0850182611e9d565b905060208301518482036020860152611ef78282611e9d565b91505060408301518482036040860152611f118282611e9d565b91505060608301518482036060860152611f2b8282611e9d565b91505060808301518482036080860152611f458282611e9d565b91505060a083015184820360a0860152611f5f8282611e9d565b95945050505050565b60006001600160a01b03808351168452602080840151608082870152611f916080870182611ec9565b9050604080860151878303828901528281518085528585019150858160051b86010186840193506000805b8381101561204957878303601f19018552855180518b1684528901518984018890528051888501819052908a0190839060608601905b808310156120345783517fffffffff00000000000000000000000000000000000000000000000000000000168252928c019260019290920191908c0190611ff2565b50978b0197968b019694505050600101611fbc565b505060608a015197508a810360608c01526120648189611e9d565b9b9a5050505050505050505050565b60008251612085818460208701612827565b9190910192915050565b8183823760009101908152919050565b600082356120ac81612c25565b6001600160a01b0316825260208301353684900360be190181126120cf57600080fd5b83016120db818061254d565b6120e9602086018284611e87565b9150506120f9602083018361254d565b612104838284611e87565b92505050612115604083018361254d565b612120838284611e87565b92505050612131606083018361254d565b61213c838284611e87565b9250505061214d608083018361254d565b612158838284611e87565b9250505061216960a083018361254d565b9250612176828483611e87565b925050506121876040850185612504565b612192838284611da5565b925050506121a3606085018561254d565b611a96838284611e87565b60006121ba838461254d565b6121c5848284611e87565b91505060206121d681860186612504565b909283919060005b82811015612240576121f08685612593565b80356121fb81612c25565b6001600160a01b031683528086013586840152604061221c8183018361254d565b925061222b8286018483611e87565b945050505084860195506001810190506121de565b5061224e604089018961254d565b9550935061225d818686611e87565b9450505050506121a3606085018561254d565b60006001600160a01b038088168352808716602084015250846040830152608060608301526122a3608083018486611e5c565b979650505050505050565b6001600160a01b03841681526060602082015260006122d06060830185611ec9565b8281036040840152611a968185611e9d565b6020815260006115cc6020830184611e9d565b6000604080835261230881840186611f68565b60208482038186015261231b868761254d565b6080845261232d608085018284611e5c565b91505061233c82880188612504565b84830384860152808352838301600582901b840185018360005b848110156123c657601f198784030184526123718287612593565b6060813561237e81612c25565b6001600160a01b03168552818a01358a86015261239d8c83018361254d565b9250818d8701526123b18287018483611e5c565b968b0196955050509188019150600101612356565b50506123d4888c018c61254d565b96509450868103888801526123ea818787611e5c565b97505050505050506123ff606086018661254d565b8284036060840152612412848284611e5c565b98975050505050505050565b6040815260006124316040830185611f68565b90508260208301529392505050565b6000808335601e1984360301811261245757600080fd5b83018035915067ffffffffffffffff82111561247257600080fd5b6020019150600581901b360382131561248a57600080fd5b9250929050565b6000808335601e198436030181126124a857600080fd5b83018035915067ffffffffffffffff8211156124c357600080fd5b60200191503681900382131561248a57600080fd5b60008235605e1983360301811261208557600080fd5b60008235603e1983360301811261208557600080fd5b6000808335601e1984360301811261251b57600080fd5b830160208101925035905067ffffffffffffffff81111561253b57600080fd5b8060051b360383131561248a57600080fd5b6000808335601e1984360301811261256457600080fd5b830160208101925035905067ffffffffffffffff81111561258457600080fd5b80360383131561248a57600080fd5b60008235605e198336030181126125a957600080fd5b90910192915050565b600080858511156125c257600080fd5b838611156125cf57600080fd5b5050820193919092039150565b601f82111561261557806000526020600020601f840160051c810160208510156126035750805b611887601f850160051c83018261261a565b505050565b5b81811015610e74576000815560010161261b565b7fffffffff00000000000000000000000000000000000000000000000000000000813581811691600485101561266f5780818660040360031b1b83161692505b505092915050565b68010000000000000000831115612690576126906128d3565b805483825580841015612721577f7fffffffffffffffffffffffffffffffffffffffffffffffffffffffffffffff60018183118116156126d2576126d26128a7565b8186118116156126e4576126e46128a7565b60008481526020812090925086821b81019084831b015b8082101561271c578382556127118383016128e9565b6002820191506126fb565b505050505b5060008181526020812083915b8581101561275f5761274961274384876124ee565b83612b69565b602092909201916002919091019060010161272e565b505050505050565b67ffffffffffffffff83111561277f5761277f6128d3565b6127938361278d8354612857565b836125dc565b6000601f8411600181146127c757600085156127af5750838201355b600019600387901b1c1916600186901b178355611887565b600083815260209020601f19861690835b828110156127f857868501358255602094850194600190920191016127d8565b50868210156128155760001960f88860031b161c19848701351681555b505060018560011b0183555050505050565b60005b8381101561284257818101518382015260200161282a565b83811115612851576000848401525b50505050565b600181811c9082168061286b57607f821691505b60208210811415611bc957634e487b7160e01b600052602260045260246000fd5b60006000198214156128a0576128a06128a7565b5060010190565b634e487b7160e01b600052601160045260246000fd5b634e487b7160e01b600052603260045260246000fd5b634e487b7160e01b600052604160045260246000fd5b8054600082558015610e74578160005260206000206126156007830160031c82018261261a565b68010000000000000000821115612929576129296128d3565b805482825580831015612615578160005260206000206007840160031c8101601c8560021b16801561296c576000198083018054828460200360031b1c16815550505b506118876007840160031c83018261261a565b813561298a81612c25565b6001600160a01b03811673ffffffffffffffffffffffffffffffffffffffff1983541617825550600180820160208085013560be198636030181126129ce57600080fd5b85016129da8180612491565b67ffffffffffffffff8111156129f2576129f26128d3565b612a0681612a008754612857565b876125dc565b6000601f821160018114612a3a5760008315612a225750838201355b600019600385901b1c1916600184901b178755612a8f565b600087815260209020601f19841690835b82811015612a685786850135825593880193908a01908801612a4b565b5084821015612a855760001960f88660031b161c19848701351681555b50508783891b0187555b50505050612a9f82820182612491565b94509250612ab1848460028801612767565b612abe6040820182612491565b94509250612ad0848460038801612767565b612add6060820182612491565b94509250612aef848460048801612767565b612afc6080820182612491565b94509250612b0e848460058801612767565b612b1b60a0820182612491565b945092505050612b2f828260068601612767565b5050612b3e6040830183612440565b612b4c818360078601612677565b5050612b5b6060830183612491565b612851818360088601612767565b8135612b7481612c25565b6001600160a01b03811673ffffffffffffffffffffffffffffffffffffffff198354161782555060018082016020612bae81860186612440565b612bb88185612910565b60009384528284209380805b83811015612c19578435612bd781612c3a565b875463ffffffff600385901b90811b801990921660e09390931c901b1617875593850193600490910190601c821115612c1257958701958291505b8701612bc4565b50505050505050505050565b6001600160a01b0381168114610b6557600080fd5b7fffffffff0000000000000000000000000000000000000000000000000000000081168114610b6557600080fdfe416464726573733a206c6f772d6c6576656c2064656c65676174652063616c6c206661696c6564a26469706673582212202252ed8f37fc9b04fcb486c3c163dcd133e5b7244e8bb0f2d20915eac71501cc64736f6c6343000806003360a06040523060601b60805234801561001757600080fd5b50600054600160a81b900460ff168061003a5750600054600160a01b900460ff16155b6100a15760405162461bcd60e51b815260206004820152602e60248201527f496e697469616c697a61626c653a20636f6e747261637420697320616c72656160448201526d191e481a5b9a5d1a585b1a5e995960921b606482015260840160405180910390fd5b600054600160a81b900460ff161580156100cb576000805461ffff60a01b191661010160a01b1790555b80156100df576000805460ff60a81b191690555b5060805160601c611acc61011360003960008181610242015281816102dd015281816103e5015261047b0152611acc6000f3fe6080604052600436106100965760003560e01c8063752708fb11610069578063a4e479f51161004e578063a4e479f5146101c3578063b908afa8146101e3578063c4d66de81461021757600080fd5b8063752708fb146101475780638050aef01461018f57600080fd5b80633659cfe61461009b5780634f1ef286146100bd578063721da993146100d057806373ed60bd14610105575b600080fd5b3480156100a757600080fd5b506100bb6100b63660046111d1565b610237565b005b6100bb6100cb3660046111ee565b6103da565b3480156100dc57600080fd5b506100f06100eb366004611274565b610569565b60405190151581526020015b60405180910390f35b34801561011157600080fd5b506101397f1be5fcca9b119e467cbb38f1d0d8411a5951e82748219ff45b4b93a71110c67781565b6040519081526020016100fc565b34801561015357600080fd5b50610182610162366004611326565b805160208183018101805160018252928201919093012091525460ff1681565b6040516100fc9190611553565b34801561019b57600080fd5b506101397f2c7a95334ec88a96c5cdf6d7ce6da1be07d013bbbf2610e1d0ea7f441eb2f6d181565b3480156101cf57600080fd5b506100bb6101de3660046112b6565b6108da565b3480156101ef57600080fd5b506101397f88aa719609f728b0c5e7fb8dd3608d5c25d497efbb3b9dd64e9251ebba10150881565b34801561022357600080fd5b506100bb6102323660046111d1565b610a74565b306001600160a01b037f00000000000000000000000000000000000000000000000000000000000000001614156102db5760405162461bcd60e51b815260206004820152602c60248201527f46756e6374696f6e206d7573742062652063616c6c6564207468726f7567682060448201527f64656c656761746563616c6c000000000000000000000000000000000000000060648201526084015b60405180910390fd5b7f00000000000000000000000000000000000000000000000000000000000000006001600160a01b03166103367f360894a13ba1a3210667c828492db98dca3e2076cc3735a920a3ca505d382bbc546001600160a01b031690565b6001600160a01b0316146103b25760405162461bcd60e51b815260206004820152602c60248201527f46756e6374696f6e206d7573742062652063616c6c6564207468726f7567682060448201527f6163746976652070726f7879000000000000000000000000000000000000000060648201526084016102d2565b6103bb81610bec565b604080516000808252602082019092526103d791839190610cfc565b50565b306001600160a01b037f00000000000000000000000000000000000000000000000000000000000000001614156104795760405162461bcd60e51b815260206004820152602c60248201527f46756e6374696f6e206d7573742062652063616c6c6564207468726f7567682060448201527f64656c656761746563616c6c000000000000000000000000000000000000000060648201526084016102d2565b7f00000000000000000000000000000000000000000000000000000000000000006001600160a01b03166104d47f360894a13ba1a3210667c828492db98dca3e2076cc3735a920a3ca505d382bbc546001600160a01b031690565b6001600160a01b0316146105505760405162461bcd60e51b815260206004820152602c60248201527f46756e6374696f6e206d7573742062652063616c6c6564207468726f7567682060448201527f6163746976652070726f7879000000000000000000000000000000000000000060648201526084016102d2565b61055982610bec565b61056582826001610cfc565b5050565b6000806001848460405161057e9291906113e1565b90815260408051918290036020908101832060010180548083028501830190935282845291908301828280156105dd57602002820191906000526020600020905b81546001600160a01b031681526001909101906020018083116105bf575b505050505090506000600185856040516105f89291906113e1565b9081526040519081900360200181205460ff16915060009060019061062090889088906113e1565b9081526020016040518091039020600201805480602002602001604051908101604052809291908181526020016000905b828210156106fd578382906000526020600020018054610670906117df565b80601f016020809104026020016040519081016040528092919081815260200182805461069c906117df565b80156106e95780601f106106be576101008083540402835291602001916106e9565b820191906000526020600020905b8154815290600101906020018083116106cc57829003601f168201915b505050505081526020019060010190610651565b5050505090506000835190506000805b828110156107f057600086828151811061072957610729611861565b60200260200101519050806001600160a01b031663ee88d8fc3387858151811061075557610755611861565b60200260200101516040518363ffffffff1660e01b815260040161077a929190611531565b60206040518083038186803b15801561079257600080fd5b505afa1580156107a6573d6000803e3d6000fd5b505050506040513d601f19601f820116820180604052508101906107ca9190611252565b156107dd576107da60018461164e565b92505b50806107e88161181a565b91505061070d565b5060018460038111156108055761080561184b565b1480156108145750818160ff16145b15610827576001955050505050506108d4565b600084600381111561083b5761083b61184b565b14801561084c575060018160ff1610155b1561085f576001955050505050506108d4565b60028460038111156108735761087361184b565b1480156108825750818160ff16105b15610895576001955050505050506108d4565b60038460038111156108a9576108a961184b565b1480156108b7575060ff8116155b156108ca576001955050505050506108d4565b6000955050505050505b92915050565b600080546040517ffdef91060000000000000000000000000000000000000000000000000000000081527f2c7a95334ec88a96c5cdf6d7ce6da1be07d013bbbf2610e1d0ea7f441eb2f6d1926001600160a01b039092169163fdef91069161094c9130913391879136906004016114dd565b602060405180830381600087803b15801561096657600080fd5b505af115801561097a573d6000803e3d6000fd5b505050506040513d601f19601f8201168201806040525081019061099e9190611252565b6109ea5760405162461bcd60e51b815260206004820152600b60248201527f617574683a20636865636b00000000000000000000000000000000000000000060448201526064016102d2565b81600185856040516109fd9291906113e1565b908152604051908190036020019020610a16828261188d565b5050604051610a269083906113f1565b60405180910390208484604051610a3e9291906113e1565b604051908190038120907f08b86b14744f00d4b42d9dcbeb056a81f00bf7fc23900e54b8eb7ed8cc98207a90600090a350505050565b6000547501000000000000000000000000000000000000000000900460ff1680610ab9575060005474010000000000000000000000000000000000000000900460ff16155b610b2b5760405162461bcd60e51b815260206004820152602e60248201527f496e697469616c697a61626c653a20636f6e747261637420697320616c72656160448201527f647920696e697469616c697a656400000000000000000000000000000000000060648201526084016102d2565b6000547501000000000000000000000000000000000000000000900460ff16158015610b9257600080547fffffffffffffffffffff0000ffffffffffffffffffffffffffffffffffffffff1675010100000000000000000000000000000000000000001790555b6000805473ffffffffffffffffffffffffffffffffffffffff19166001600160a01b038416179055801561056557600080547fffffffffffffffffffff00ffffffffffffffffffffffffffffffffffffffffff1690555050565b600080546040517ffdef91060000000000000000000000000000000000000000000000000000000081527f88aa719609f728b0c5e7fb8dd3608d5c25d497efbb3b9dd64e9251ebba101508926001600160a01b039092169163fdef910691610c5e9130913391879136906004016114dd565b602060405180830381600087803b158015610c7857600080fd5b505af1158015610c8c573d6000803e3d6000fd5b505050506040513d601f19601f82011682018060405250810190610cb09190611252565b6105655760405162461bcd60e51b815260206004820152600b60248201527f617574683a20636865636b00000000000000000000000000000000000000000060448201526064016102d2565b6000610d2f7f360894a13ba1a3210667c828492db98dca3e2076cc3735a920a3ca505d382bbc546001600160a01b031690565b9050610d3a84610ec0565b600083511180610d475750815b15610d5857610d568484610f82565b505b7f4910fdfa16fed3260ed0e7147f7cc6da11a60208b5b9406d12a635614ffd9143805460ff16610eb957805460ff191660011781556040516001600160a01b0383166024820152610e0590869060440160408051601f198184030181529190526020810180517bffffffffffffffffffffffffffffffffffffffffffffffffffffffff167f3659cfe600000000000000000000000000000000000000000000000000000000179052610f82565b50805460ff191681557f360894a13ba1a3210667c828492db98dca3e2076cc3735a920a3ca505d382bbc546001600160a01b03838116911614610eb05760405162461bcd60e51b815260206004820152602f60248201527f45524331393637557067726164653a207570677261646520627265616b73206660448201527f757274686572207570677261646573000000000000000000000000000000000060648201526084016102d2565b610eb985610fae565b5050505050565b803b610f345760405162461bcd60e51b815260206004820152602d60248201527f455243313936373a206e657720696d706c656d656e746174696f6e206973206e60448201527f6f74206120636f6e74726163740000000000000000000000000000000000000060648201526084016102d2565b7f360894a13ba1a3210667c828492db98dca3e2076cc3735a920a3ca505d382bbc805473ffffffffffffffffffffffffffffffffffffffff19166001600160a01b0392909216919091179055565b6060610fa78383604051806060016040528060278152602001611a7060279139610fee565b9392505050565b610fb781610ec0565b6040516001600160a01b038216907fbc7cd75a20ee27fd9adebab32041f755214dbc6bffa90cc0225b39da2e5c2d3b90600090a250565b6060833b6110645760405162461bcd60e51b815260206004820152602660248201527f416464726573733a2064656c65676174652063616c6c20746f206e6f6e2d636f60448201527f6e7472616374000000000000000000000000000000000000000000000000000060648201526084016102d2565b600080856001600160a01b03168560405161107f91906113c5565b600060405180830381855af49150503d80600081146110ba576040519150601f19603f3d011682016040523d82523d6000602084013e6110bf565b606091505b50915091506110cf8282866110d9565b9695505050505050565b606083156110e8575081610fa7565b8251156110f85782518084602001fd5b8160405162461bcd60e51b81526004016102d29190611561565b600067ffffffffffffffff8084111561112d5761112d611877565b604051601f8501601f19908116603f0116810190828211818310171561115557611155611877565b8160405280935085815286868601111561116e57600080fd5b858560208301376000602087830101525050509392505050565b60008083601f84011261119a57600080fd5b50813567ffffffffffffffff8111156111b257600080fd5b6020830191508360208285010111156111ca57600080fd5b9250929050565b6000602082840312156111e357600080fd5b8135610fa781611a4d565b6000806040838503121561120157600080fd5b823561120c81611a4d565b9150602083013567ffffffffffffffff81111561122857600080fd5b8301601f8101851361123957600080fd5b61124885823560208401611112565b9150509250929050565b60006020828403121561126457600080fd5b81518015158114610fa757600080fd5b6000806020838503121561128757600080fd5b823567ffffffffffffffff81111561129e57600080fd5b6112aa85828601611188565b90969095509350505050565b6000806000604084860312156112cb57600080fd5b833567ffffffffffffffff808211156112e357600080fd5b6112ef87838801611188565b9095509350602086013591508082111561130857600080fd5b5084016060818703121561131b57600080fd5b809150509250925092565b60006020828403121561133857600080fd5b813567ffffffffffffffff81111561134f57600080fd5b8201601f8101841361136057600080fd5b61136f84823560208401611112565b949350505050565b6000815180845261138f8160208601602086016117af565b601f01601f19169290920160200192915050565b600481106113c157634e487b7160e01b600052602160045260246000fd5b9052565b600082516113d78184602087016117af565b9190910192915050565b8183823760009101908152919050565b600082356113fe81611a62565b61140883826113a3565b50602080830161141a82860186611605565b9091600091905b8183101561145157833561143481611a4d565b6001600160a01b0316815292840192600192909201918401611421565b61145e6040890189611605565b9450925090508160005b848110156114d0578135601e1985360301811261148457600080fd5b8401803567ffffffffffffffff81111561149d57600080fd5b8036038613156114ac57600080fd5b808883018637600085820152601f01601f1916909301925090850190600101611468565b5090979650505050505050565b60006001600160a01b03808816835280871660208401525084604083015260806060830152826080830152828460a0840137600060a0848401015260a0601f19601f85011683010190509695505050505050565b6001600160a01b038316815260406020820152600061136f6040830184611377565b602081016108d482846113a3565b602081526000610fa76020830184611377565b6000808335601e1984360301811261158b57600080fd5b83018035915067ffffffffffffffff8211156115a657600080fd5b6020019150600581901b36038213156111ca57600080fd5b6000808335601e198436030181126115d557600080fd5b83018035915067ffffffffffffffff8211156115f057600080fd5b6020019150368190038213156111ca57600080fd5b6000808335601e1984360301811261161c57600080fd5b830160208101925035905067ffffffffffffffff81111561163c57600080fd5b8060051b36038313156111ca57600080fd5b600060ff821660ff84168060ff0382111561166b5761166b611835565b019392505050565b601f8211156116ac57806000526020600020601f840160051c8101602085101561169a5750805b610eb9601f850160051c8301826116b1565b505050565b5b8181101561056557600081556001016116b2565b680100000000000000008311156116df576116df611877565b805483825580841015611768576000828152602081208581019083015b808210156117645761170e82546117df565b801561175857601f8082116001811461172957858555611755565b60008581526020902061174683850160051c8201600183016116b1565b50600085815260208120818755555b50505b506001820191506116fc565b5050505b5060008181526020812083915b858110156117a75761178783866115be565b61179281838661198d565b50506020929092019160019182019101611775565b505050505050565b60005b838110156117ca5781810151838201526020016117b2565b838111156117d9576000848401525b50505050565b600181811c908216806117f357607f821691505b6020821081141561181457634e487b7160e01b600052602260045260246000fd5b50919050565b600060001982141561182e5761182e611835565b5060010190565b634e487b7160e01b600052601160045260246000fd5b634e487b7160e01b600052602160045260246000fd5b634e487b7160e01b600052603260045260246000fd5b634e487b7160e01b600052604160045260246000fd5b813561189881611a62565b600481106118b657634e487b7160e01b600052602160045260246000fd5b60ff1982541660ff8216811783555050600180820160206118d981860186611574565b680100000000000000008111156118f2576118f2611877565b8354818555808210156119175784600052836000206119158282018483016116b1565b505b506000938452828420935b8181101561196c57823561193581611a4d565b855473ffffffffffffffffffffffffffffffffffffffff19166001600160a01b039190911617855593850193918301918501611922565b50505050505061197f6040830183611574565b6117d98183600286016116c6565b67ffffffffffffffff8311156119a5576119a5611877565b6119b9836119b383546117df565b83611673565b6000601f8411600181146119ed57600085156119d55750838201355b600019600387901b1c1916600186901b178355610eb9565b600083815260209020601f19861690835b82811015611a1e57868501358255602094850194600190920191016119fe565b5086821015611a3b5760001960f88860031b161c19848701351681555b505060018560011b0183555050505050565b6001600160a01b03811681146103d757600080fd5b600481106103d757600080fdfe416464726573733a206c6f772d6c6576656c2064656c65676174652063616c6c206661696c6564a26469706673582212207e7bd220243c21beb09f1f67980e2651b2ad7aeed165bc7dc706459b37178db564736f6c6343000806003360a06040523060601b60805234801561001757600080fd5b50600054600160a81b900460ff168061003a5750600054600160a01b900460ff16155b6100a15760405162461bcd60e51b815260206004820152602e60248201527f496e697469616c697a61626c653a20636f6e747261637420697320616c72656160448201526d191e481a5b9a5d1a585b1a5e995960921b606482015260840160405180910390fd5b600054600160a81b900460ff161580156100cb576000805461ffff60a01b191661010160a01b1790555b80156100df576000805460ff60a81b191690555b5060805160601c61136f61011360003960008181610164015281816101ff0152818161061501526106ab015261136f6000f3fe6080604052600436106100655760003560e01c80634f1ef286116100435780634f1ef286146100f2578063b908afa814610105578063c4d66de81461013957600080fd5b80632430e58c1461006a5780633659cfe6146100b05780633f707e6b146100d2575b600080fd5b34801561007657600080fd5b5061009e7f63af41e89ba81155a6d0c671442336165410b87bcfffee4277673b048f3ff85681565b60405190815260200160405180910390f35b3480156100bc57600080fd5b506100d06100cb366004610ebd565b610159565b005b3480156100de57600080fd5b506100d06100ed366004610f2a565b6102fc565b6100d0610100366004610eda565b61060a565b34801561011157600080fd5b5061009e7f88aa719609f728b0c5e7fb8dd3608d5c25d497efbb3b9dd64e9251ebba10150881565b34801561014557600080fd5b506100d0610154366004610ebd565b610799565b306001600160a01b037f00000000000000000000000000000000000000000000000000000000000000001614156101fd5760405162461bcd60e51b815260206004820152602c60248201527f46756e6374696f6e206d7573742062652063616c6c6564207468726f7567682060448201527f64656c656761746563616c6c000000000000000000000000000000000000000060648201526084015b60405180910390fd5b7f00000000000000000000000000000000000000000000000000000000000000006001600160a01b03166102587f360894a13ba1a3210667c828492db98dca3e2076cc3735a920a3ca505d382bbc546001600160a01b031690565b6001600160a01b0316146102d45760405162461bcd60e51b815260206004820152602c60248201527f46756e6374696f6e206d7573742062652063616c6c6564207468726f7567682060448201527f6163746976652070726f7879000000000000000000000000000000000000000060648201526084016101f4565b6102dd8161091c565b604080516000808252602082019092526102f991839190610a2c565b50565b600080546040517ffdef91060000000000000000000000000000000000000000000000000000000081527f63af41e89ba81155a6d0c671442336165410b87bcfffee4277673b048f3ff856926001600160a01b039092169163fdef91069161036e913091339187913690600401611119565b602060405180830381600087803b15801561038857600080fd5b505af115801561039c573d6000803e3d6000fd5b505050506040513d601f19601f820116820180604052508101906103c09190611041565b61040c5760405162461bcd60e51b815260206004820152600b60248201527f617574683a20636865636b00000000000000000000000000000000000000000060448201526064016101f4565b6000825167ffffffffffffffff811115610428576104286112e7565b60405190808252806020026020018201604052801561045b57816020015b60608152602001906001900390816104465790505b50905060005b83518110156105ad5760008085838151811061047f5761047f6112d1565b6020026020010151600001516001600160a01b03168684815181106104a6576104a66112d1565b6020026020010151602001518785815181106104c4576104c46112d1565b6020026020010151604001516040516104dd91906110fd565b60006040518083038185875af1925050503d806000811461051a576040519150601f19603f3d011682016040523d82523d6000602084013e61051f565b606091505b5091509150816040518060400160405280601c81526020017f455843454355544f525f414354494f4e5f43414c4c5f4641494c454400000000815250906105795760405162461bcd60e51b81526004016101f491906111ed565b508084848151811061058d5761058d6112d1565b6020026020010181905250505080806105a59061128a565b915050610461565b50826040516105bc919061108f565b6040518091039020336001600160a01b03167f853c59370d112fba38e26ede245c0d137fd5ff8360c69699264edc28d87233ea836040516105fd919061116d565b60405180910390a3505050565b306001600160a01b037f00000000000000000000000000000000000000000000000000000000000000001614156106a95760405162461bcd60e51b815260206004820152602c60248201527f46756e6374696f6e206d7573742062652063616c6c6564207468726f7567682060448201527f64656c656761746563616c6c000000000000000000000000000000000000000060648201526084016101f4565b7f00000000000000000000000000000000000000000000000000000000000000006001600160a01b03166107047f360894a13ba1a3210667c828492db98dca3e2076cc3735a920a3ca505d382bbc546001600160a01b031690565b6001600160a01b0316146107805760405162461bcd60e51b815260206004820152602c60248201527f46756e6374696f6e206d7573742062652063616c6c6564207468726f7567682060448201527f6163746976652070726f7879000000000000000000000000000000000000000060648201526084016101f4565b6107898261091c565b61079582826001610a2c565b5050565b6000547501000000000000000000000000000000000000000000900460ff16806107de575060005474010000000000000000000000000000000000000000900460ff16155b6108505760405162461bcd60e51b815260206004820152602e60248201527f496e697469616c697a61626c653a20636f6e747261637420697320616c72656160448201527f647920696e697469616c697a656400000000000000000000000000000000000060648201526084016101f4565b6000547501000000000000000000000000000000000000000000900460ff161580156108b757600080547fffffffffffffffffffff0000ffffffffffffffffffffffffffffffffffffffff1675010100000000000000000000000000000000000000001790555b600080547fffffffffffffffffffffffff0000000000000000000000000000000000000000166001600160a01b038416179055801561079557600080547fffffffffffffffffffff00ffffffffffffffffffffffffffffffffffffffffff1690555050565b600080546040517ffdef91060000000000000000000000000000000000000000000000000000000081527f88aa719609f728b0c5e7fb8dd3608d5c25d497efbb3b9dd64e9251ebba101508926001600160a01b039092169163fdef91069161098e913091339187913690600401611119565b602060405180830381600087803b1580156109a857600080fd5b505af11580156109bc573d6000803e3d6000fd5b505050506040513d601f19601f820116820180604052508101906109e09190611041565b6107955760405162461bcd60e51b815260206004820152600b60248201527f617574683a20636865636b00000000000000000000000000000000000000000060448201526064016101f4565b6000610a5f7f360894a13ba1a3210667c828492db98dca3e2076cc3735a920a3ca505d382bbc546001600160a01b031690565b9050610a6a84610bf0565b600083511180610a775750815b15610a8857610a868484610cbd565b505b7f4910fdfa16fed3260ed0e7147f7cc6da11a60208b5b9406d12a635614ffd9143805460ff16610be957805460ff191660011781556040516001600160a01b0383166024820152610b3590869060440160408051601f198184030181529190526020810180517bffffffffffffffffffffffffffffffffffffffffffffffffffffffff167f3659cfe600000000000000000000000000000000000000000000000000000000179052610cbd565b50805460ff191681557f360894a13ba1a3210667c828492db98dca3e2076cc3735a920a3ca505d382bbc546001600160a01b03838116911614610be05760405162461bcd60e51b815260206004820152602f60248201527f45524331393637557067726164653a207570677261646520627265616b73206660448201527f757274686572207570677261646573000000000000000000000000000000000060648201526084016101f4565b610be985610ce9565b5050505050565b803b610c645760405162461bcd60e51b815260206004820152602d60248201527f455243313936373a206e657720696d706c656d656e746174696f6e206973206e60448201527f6f74206120636f6e74726163740000000000000000000000000000000000000060648201526084016101f4565b7f360894a13ba1a3210667c828492db98dca3e2076cc3735a920a3ca505d382bbc80547fffffffffffffffffffffffff0000000000000000000000000000000000000000166001600160a01b0392909216919091179055565b6060610ce2838360405180606001604052806027815260200161131360279139610d29565b9392505050565b610cf281610bf0565b6040516001600160a01b038216907fbc7cd75a20ee27fd9adebab32041f755214dbc6bffa90cc0225b39da2e5c2d3b90600090a250565b6060833b610d9f5760405162461bcd60e51b815260206004820152602660248201527f416464726573733a2064656c65676174652063616c6c20746f206e6f6e2d636f60448201527f6e7472616374000000000000000000000000000000000000000000000000000060648201526084016101f4565b600080856001600160a01b031685604051610dba91906110fd565b600060405180830381855af49150503d8060008114610df5576040519150601f19603f3d011682016040523d82523d6000602084013e610dfa565b606091505b5091509150610e0a828286610e14565b9695505050505050565b60608315610e23575081610ce2565b825115610e335782518084602001fd5b8160405162461bcd60e51b81526004016101f491906111ed565b600082601f830112610e5e57600080fd5b813567ffffffffffffffff811115610e7857610e786112e7565b610e8b6020601f19601f84011601611229565b818152846020838601011115610ea057600080fd5b816020850160208301376000918101602001919091529392505050565b600060208284031215610ecf57600080fd5b8135610ce2816112fd565b60008060408385031215610eed57600080fd5b8235610ef8816112fd565b9150602083013567ffffffffffffffff811115610f1457600080fd5b610f2085828601610e4d565b9150509250929050565b60006020808385031215610f3d57600080fd5b823567ffffffffffffffff80821115610f5557600080fd5b818501915085601f830112610f6957600080fd5b813581811115610f7b57610f7b6112e7565b8060051b610f8a858201611229565b8281528581019085870183870188018b1015610fa557600080fd5b600093505b8484101561103357803586811115610fc157600080fd5b87016060818d03601f1901811315610fd857600080fd5b610fe0611200565b8a830135610fed816112fd565b81526040838101358c83015291830135918983111561100b57600080fd5b6110198f8d85870101610e4d565b908201528552505060019390930192918701918701610faa565b509998505050505050505050565b60006020828403121561105357600080fd5b81518015158114610ce257600080fd5b6000815180845261107b81602086016020860161125a565b601f01601f19169290920160200192915050565b815160009082906020808601845b838110156110f15781516001600160a01b0381511686528381015184870152604080820151915081516110d581838a0188860161125a565b601f01601f19169690960190950194509082019060010161109d565b50929695505050505050565b6000825161110f81846020870161125a565b9190910192915050565b60006001600160a01b03808816835280871660208401525084604083015260806060830152826080830152828460a0840137600060a0848401015260a0601f19601f85011683010190509695505050505050565b6000602080830181845280855180835260408601915060408160051b870101925083870160005b828110156111e0577fffffffffffffffffffffffffffffffffffffffffffffffffffffffffffffffc08886030184526111ce858351611063565b94509285019290850190600101611194565b5092979650505050505050565b602081526000610ce26020830184611063565b6040516060810167ffffffffffffffff81118282101715611223576112236112e7565b60405290565b604051601f8201601f1916810167ffffffffffffffff81118282101715611252576112526112e7565b604052919050565b60005b8381101561127557818101518382015260200161125d565b83811115611284576000848401525b50505050565b60007fffffffffffffffffffffffffffffffffffffffffffffffffffffffffffffffff8214156112ca57634e487b7160e01b600052601160045260246000fd5b5060010190565b634e487b7160e01b600052603260045260246000fd5b634e487b7160e01b600052604160045260246000fd5b6001600160a01b03811681146102f957600080fdfe416464726573733a206c6f772d6c6576656c2064656c65676174652063616c6c206661696c6564a26469706673582212209e1b6959adeec28e2ffe5decd017bd743131ab393a18d8a74645f4a0bf4f66bc64736f6c63430008060033",
  "devdoc": {
    "kind": "dev",
    "methods": {},
    "version": 1
  },
  "userdoc": {
    "kind": "user",
    "methods": {},
    "version": 1
  },
  "storageLayout": {
    "storage": [],
    "types": null
  }
}