{
  "address": "0xf18ac35e50e8eb952E6BC657859B2f7B9FA83F96",
  "abi": [
    {
      "inputs": [
        {
          "internalType": "contract Registry",
          "name": "_registry",
          "type": "address"
        },
        {
          "internalType": "contract TokenFactory",
          "name": "_tokenFactory",
          "type": "address"
        },
        {
          "internalType": "contract CoreFactory",
          "name": "_coreFactory",
          "type": "address"
        }
      ],
      "stateMutability": "nonpayable",
      "type": "constructor"
    },
    {
      "inputs": [],
      "name": "coreFactory",
      "outputs": [
        {
          "internalType": "contract CoreFactory",
          "name": "",
          "type": "address"
        }
      ],
      "stateMutability": "view",
      "type": "function"
    },
    {
      "inputs": [],
      "name": "daoBase",
      "outputs": [
        {
          "internalType": "address",
          "name": "",
          "type": "address"
        }
      ],
      "stateMutability": "view",
      "type": "function"
    },
    {
      "inputs": [
        {
          "internalType": "string",
          "name": "_name",
          "type": "string"
        },
        {
          "internalType": "bytes",
          "name": "_metadata",
          "type": "bytes"
        },
        {
          "components": [
            {
              "internalType": "address",
              "name": "addr",
              "type": "address"
            },
            {
              "internalType": "string",
              "name": "name",
              "type": "string"
            },
            {
              "internalType": "string",
              "name": "symbol",
              "type": "string"
            }
          ],
          "internalType": "struct TokenFactory.TokenConfig",
          "name": "_tokenConfig",
          "type": "tuple"
        },
        {
          "internalType": "uint256[3]",
          "name": "_votingSettings",
          "type": "uint256[3]"
        }
      ],
      "name": "newDAO",
      "outputs": [],
      "stateMutability": "nonpayable",
      "type": "function"
    },
    {
      "inputs": [],
      "name": "registry",
      "outputs": [
        {
          "internalType": "contract Registry",
          "name": "",
          "type": "address"
        }
      ],
      "stateMutability": "view",
      "type": "function"
    },
    {
      "inputs": [],
      "name": "tokenFactory",
      "outputs": [
        {
          "internalType": "contract TokenFactory",
          "name": "",
          "type": "address"
        }
      ],
      "stateMutability": "view",
      "type": "function"
    },
    {
      "inputs": [],
      "name": "vaultBase",
      "outputs": [
        {
          "internalType": "address",
          "name": "",
          "type": "address"
        }
      ],
      "stateMutability": "view",
      "type": "function"
    },
    {
      "inputs": [],
      "name": "votingBase",
      "outputs": [
        {
          "internalType": "address",
          "name": "",
          "type": "address"
        }
      ],
      "stateMutability": "view",
      "type": "function"
    }
  ],
  "transactionHash": "0xbd958425af9698f8a864f2953b897292ff0feef9953ab6332cf09c093b4829c7",
  "args": [
    "0x99AA93f7c882937849dDf31BBeCF8Bc1c7CF3192",
    "0xa9fC75feC2171160e64DBfF195A82460bcf22779",
    "0x2575C6C8C515b86af775F1D33A8E0BA562A84f06"
  ],
  "solcInputHash": "effbbd7e948d8c3899cd75bca837788f",
  "bytecode": "0x6101406040523480156200001257600080fd5b506040516200c9523803806200c952833981016040819052620000359162000141565b6001600160601b0319606084811b821660e05283811b82166101005282901b1661012052604051620000679062000117565b604051809103906000f08015801562000084573d6000803e3d6000fd5b5060601b6001600160601b03191660a052604051620000a39062000125565b604051809103906000f080158015620000c0573d6000803e3d6000fd5b5060601b6001600160601b03191660c052604051620000df9062000133565b604051809103906000f080158015620000fc573d6000803e3d6000fd5b5060601b6001600160601b03191660805250620001ae915050565b6159b48062001eb083390190565b611afa806200786483390190565b6135f4806200935e83390190565b6000806000606084860312156200015757600080fd5b8351620001648162000195565b6020850151909350620001778162000195565b60408501519092506200018a8162000195565b809150509250925092565b6001600160a01b0381168114620001ab57600080fd5b50565b60805160601c60a05160601c60c05160601c60e05160601c6101005160601c6101205160601c611c78620002386000396000818160ab01526103f101526000818161016701526101e40152600081816101170152610f3101526000818161018f015261036401526000818160ef01526102ba01526000818161013f015261027b0152611c786000f3fe60806040523480156200001157600080fd5b5060043610620000875760003560e01c80637b10399911620000625780637b1039991462000111578063d9f8bd231462000139578063e77772fe1462000161578063eeab4955146200018957600080fd5b80631adbbfd8146200008c5780633d8df66714620000a557806363bf713514620000e9575b600080fd5b620000a36200009d36600462001107565b620001b1565b005b620000cd7f000000000000000000000000000000000000000000000000000000000000000081565b6040516001600160a01b03909116815260200160405180910390f35b620000cd7f000000000000000000000000000000000000000000000000000000000000000081565b620000cd7f000000000000000000000000000000000000000000000000000000000000000081565b620000cd7f000000000000000000000000000000000000000000000000000000000000000081565b620000cd7f000000000000000000000000000000000000000000000000000000000000000081565b620000cd7f000000000000000000000000000000000000000000000000000000000000000081565b6040517fe38412440000000000000000000000000000000000000000000000000000000081526000906001600160a01b037f0000000000000000000000000000000000000000000000000000000000000000169063e3841244906200021b90869060040162001334565b602060405180830381600087803b1580156200023657600080fd5b505af11580156200024b573d6000803e3d6000fd5b505050506040513d601f19601f8201168201806040525081019062000271919062001072565b90506000620002b07f00000000000000000000000000000000000000000000000000000000000000006040518060200160405280600081525062000fd2565b90506000620003457f000000000000000000000000000000000000000000000000000000000000000063fc2017f060e01b848688604051602401620002f8939291906200129e565b60408051601f198184030181529190526020810180517bffffffffffffffffffffffffffffffffffffffffffffffffffffffff166001600160e01b03199093169290921790915262000fd2565b6040516001600160a01b0384166024820152909150600090620003af907f0000000000000000000000000000000000000000000000000000000000000000907fc4d66de80000000000000000000000000000000000000000000000000000000090604401620002f8565b6040517f8ba8869c0000000000000000000000000000000000000000000000000000000081526001600160a01b038581166004830152919250600091829182917f00000000000000000000000000000000000000000000000000000000000000001690638ba8869c90602401606060405180830381600087803b1580156200043657600080fd5b505af11580156200044b573d6000803e3d6000fd5b505050506040513d601f19601f8201168201806040525081019062000471919062001099565b925092509250856001600160a01b031663b6989ca38c8c868686306040518763ffffffff1660e01b8152600401620004af9695949392919062001255565b600060405180830381600087803b158015620004ca57600080fd5b505af1158015620004df573d6000803e3d6000fd5b50505050856001600160a01b031663d68bad2c6001600160a01b0383846001600160a01b031663b908afa86040518163ffffffff1660e01b815260040160206040518083038186803b1580156200053557600080fd5b505afa1580156200054a573d6000803e3d6000fd5b505050506040513d601f19601f82011682018060405250810190620005709190620010ed565b6040516001600160e01b031960e086901b1681526001600160a01b0393841660048201529290911660248301526044820152606401600060405180830381600087803b158015620005c057600080fd5b505af1158015620005d5573d6000803e3d6000fd5b50505050856001600160a01b031663d68bad2c8583876001600160a01b031663206b60f96040518163ffffffff1660e01b815260040160206040518083038186803b1580156200062457600080fd5b505afa15801562000639573d6000803e3d6000fd5b505050506040513d601f19601f820116820180604052508101906200065f9190620010ed565b6040516001600160e01b031960e086901b1681526001600160a01b0393841660048201529290911660248301526044820152606401600060405180830381600087803b158015620006af57600080fd5b505af1158015620006c4573d6000803e3d6000fd5b50505050856001600160a01b031663d68bad2c8388856001600160a01b0316638050aef06040518163ffffffff1660e01b815260040160206040518083038186803b1580156200071357600080fd5b505afa15801562000728573d6000803e3d6000fd5b505050506040513d601f19601f820116820180604052508101906200074e9190620010ed565b6040516001600160e01b031960e086901b1681526001600160a01b0393841660048201529290911660248301526044820152606401600060405180830381600087803b1580156200079e57600080fd5b505af1158015620007b3573d6000803e3d6000fd5b50505050856001600160a01b031663d68bad2c8488866001600160a01b0316633e235cdf6040518163ffffffff1660e01b815260040160206040518083038186803b1580156200080257600080fd5b505afa15801562000817573d6000803e3d6000fd5b505050506040513d601f19601f820116820180604052508101906200083d9190620010ed565b6040516001600160e01b031960e086901b1681526001600160a01b0393841660048201529290911660248301526044820152606401600060405180830381600087803b1580156200088d57600080fd5b505af1158015620008a2573d6000803e3d6000fd5b50505050856001600160a01b031663d68bad2c8488866001600160a01b03166373dea80d6040518163ffffffff1660e01b815260040160206040518083038186803b158015620008f157600080fd5b505afa15801562000906573d6000803e3d6000fd5b505050506040513d601f19601f820116820180604052508101906200092c9190620010ed565b6040516001600160e01b031960e086901b1681526001600160a01b0393841660048201529290911660248301526044820152606401600060405180830381600087803b1580156200097c57600080fd5b505af115801562000991573d6000803e3d6000fd5b50505050856001600160a01b031663d68bad2c8783896001600160a01b03166375cbdae06040518163ffffffff1660e01b815260040160206040518083038186803b158015620009e057600080fd5b505afa158015620009f5573d6000803e3d6000fd5b505050506040513d601f19601f8201168201806040525081019062000a1b9190620010ed565b6040516001600160e01b031960e086901b1681526001600160a01b0393841660048201529290911660248301526044820152606401600060405180830381600087803b15801562000a6b57600080fd5b505af115801562000a80573d6000803e3d6000fd5b50505050856001600160a01b031663d68bad2c8287846001600160a01b0316632430e58c6040518163ffffffff1660e01b815260040160206040518083038186803b15801562000acf57600080fd5b505afa15801562000ae4573d6000803e3d6000fd5b505050506040513d601f19601f8201168201806040525081019062000b0a9190620010ed565b6040516001600160e01b031960e086901b1681526001600160a01b0393841660048201529290911660248301526044820152606401600060405180830381600087803b15801562000b5a57600080fd5b505af115801562000b6f573d6000803e3d6000fd5b50505050856001600160a01b031663d68bad2c8685886001600160a01b03166397c4d9726040518163ffffffff1660e01b815260040160206040518083038186803b15801562000bbe57600080fd5b505afa15801562000bd3573d6000803e3d6000fd5b505050506040513d601f19601f8201168201806040525081019062000bf99190620010ed565b6040516001600160e01b031960e086901b1681526001600160a01b0393841660048201529290911660248301526044820152606401600060405180830381600087803b15801562000c4957600080fd5b505af115801562000c5e573d6000803e3d6000fd5b50505050856001600160a01b031663d68bad2c8688886001600160a01b031663495b77f26040518163ffffffff1660e01b815260040160206040518083038186803b15801562000cad57600080fd5b505afa15801562000cc2573d6000803e3d6000fd5b505050506040513d601f19601f8201168201806040525081019062000ce89190620010ed565b6040516001600160e01b031960e086901b1681526001600160a01b0393841660048201529290911660248301526044820152606401600060405180830381600087803b15801562000d3857600080fd5b505af115801562000d4d573d6000803e3d6000fd5b50505050856001600160a01b031663d68bad2c8683886001600160a01b03166362de7e5a6040518163ffffffff1660e01b815260040160206040518083038186803b15801562000d9c57600080fd5b505afa15801562000db1573d6000803e3d6000fd5b505050506040513d601f19601f8201168201806040525081019062000dd79190620010ed565b6040516001600160e01b031960e086901b1681526001600160a01b0393841660048201529290911660248301526044820152606401600060405180830381600087803b15801562000e2757600080fd5b505af115801562000e3c573d6000803e3d6000fd5b50505050856001600160a01b031663d68bad2c8683886001600160a01b0316633c624c756040518163ffffffff1660e01b815260040160206040518083038186803b15801562000e8b57600080fd5b505afa15801562000ea0573d6000803e3d6000fd5b505050506040513d601f19601f8201168201806040525081019062000ec69190620010ed565b6040516001600160e01b031960e086901b1681526001600160a01b0393841660048201529290911660248301526044820152606401600060405180830381600087803b15801562000f1657600080fd5b505af115801562000f2b573d6000803e3d6000fd5b505050507f00000000000000000000000000000000000000000000000000000000000000006001600160a01b031663bc7736aa8e8e338a8c8b8b898c8c6040518b63ffffffff1660e01b815260040162000f8f9a99989796959493929190620012ca565b600060405180830381600087803b15801562000faa57600080fd5b505af115801562000fbf573d6000803e3d6000fd5b5050505050505050505050505050505050565b600080838360405162000fe59062001018565b62000ff2929190620011ec565b604051809103906000f0801580156200100f573d6000803e3d6000fd5b50949350505050565b610810806200143383390190565b60008083601f8401126200103957600080fd5b50813567ffffffffffffffff8111156200105257600080fd5b6020830191508360208285010111156200106b57600080fd5b9250929050565b6000602082840312156200108557600080fd5b8151620010928162001419565b9392505050565b600080600060608486031215620010af57600080fd5b8351620010bc8162001419565b6020850151909350620010cf8162001419565b6040850151909250620010e28162001419565b809150509250925092565b6000602082840312156200110057600080fd5b5051919050565b60008060008060008060c087890312156200112157600080fd5b863567ffffffffffffffff808211156200113a57600080fd5b620011488a838b0162001026565b909850965060208901359150808211156200116257600080fd5b620011708a838b0162001026565b909650945060408901359150808211156200118a57600080fd5b5087016060818a0312156200119e57600080fd5b915060c08701881015620011b157600080fd5b6060870190509295509295509295565b818352818160208501375060006020828401015260006020601f19601f840116840101905092915050565b6001600160a01b038316815260006020604081840152835180604085015260005b818110156200122b578581018301518582016060015282016200120d565b818111156200123e576000606083870101525b50601f01601f191692909201606001949350505050565b60a0815260006200126b60a08301888a620011c1565b6001600160a01b039687166020840152948616604083015250918416606083015290921660809092019190915292915050565b6001600160a01b0384811682528316602082015260a08101606083604084013760008152949350505050565b6000610120808352620012e18184018d8f620011c1565b6001600160a01b039b8c166020850152998b16604084015250509588166060870152938716608086015291861660a0850152851660c0840152841660e08301529092166101009092019190915292915050565b6020815260008235620013478162001419565b6001600160a01b038116602084015250620013666020840184620013b2565b606060408501526200137d608085018284620011c1565b9150506200138f6040850185620013b2565b601f19858403016060860152620013a8838284620011c1565b9695505050505050565b60008083357fffffffffffffffffffffffffffffffffffffffffffffffffffffffffffffffe1843603018112620013e857600080fd5b830160208101925035905067ffffffffffffffff8111156200140957600080fd5b8036038313156200106b57600080fd5b6001600160a01b03811681146200142f57600080fd5b5056fe6080604052604051610810380380610810833981016040819052610022916102f5565b61004d60017f360894a13ba1a3210667c828492db98dca3e2076cc3735a920a3ca505d382bbd610412565b6000805160206107c98339815191521461006957610069610463565b6100758282600061007c565b505061048f565b610085836100b2565b6000825111806100925750805b156100ad576100ab83836100f260201b6100291760201c565b505b505050565b6100bb8161011e565b6040516001600160a01b038216907fbc7cd75a20ee27fd9adebab32041f755214dbc6bffa90cc0225b39da2e5c2d3b90600090a250565b606061011783836040518060600160405280602781526020016107e9602791396101de565b9392505050565b610131816102b360201b6100551760201c565b6101985760405162461bcd60e51b815260206004820152602d60248201527f455243313936373a206e657720696d706c656d656e746174696f6e206973206e60448201526c1bdd08184818dbdb9d1c9858dd609a1b60648201526084015b60405180910390fd5b806101bd6000805160206107c983398151915260001b6102b960201b61005b1760201c565b80546001600160a01b0319166001600160a01b039290921691909117905550565b6060833b61023d5760405162461bcd60e51b815260206004820152602660248201527f416464726573733a2064656c65676174652063616c6c20746f206e6f6e2d636f6044820152651b9d1c9858dd60d21b606482015260840161018f565b600080856001600160a01b03168560405161025891906103c3565b600060405180830381855af49150503d8060008114610293576040519150601f19603f3d011682016040523d82523d6000602084013e610298565b606091505b5090925090506102a98282866102bc565b9695505050505050565b3b151590565b90565b606083156102cb575081610117565b8251156102db5782518084602001fd5b8160405162461bcd60e51b815260040161018f91906103df565b6000806040838503121561030857600080fd5b82516001600160a01b038116811461031f57600080fd5b60208401519092506001600160401b038082111561033c57600080fd5b818501915085601f83011261035057600080fd5b81518181111561036257610362610479565b604051601f8201601f19908116603f0116810190838211818310171561038a5761038a610479565b816040528281528860208487010111156103a357600080fd5b6103b4836020830160208801610437565b80955050505050509250929050565b600082516103d5818460208701610437565b9190910192915050565b60208152600082518060208401526103fe816040850160208701610437565b601f01601f19169190910160400192915050565b60008282101561043257634e487b7160e01b600052601160045260246000fd5b500390565b60005b8381101561045257818101518382015260200161043a565b838111156100ab5750506000910152565b634e487b7160e01b600052600160045260246000fd5b634e487b7160e01b600052604160045260246000fd5b61032b8061049e6000396000f3fe60806040523661001357610011610017565b005b6100115b61002761002261005e565b6100a3565b565b606061004e83836040518060600160405280602781526020016102cf602791396100c7565b9392505050565b3b151590565b90565b600061009e7f360894a13ba1a3210667c828492db98dca3e2076cc3735a920a3ca505d382bbc5473ffffffffffffffffffffffffffffffffffffffff1690565b905090565b3660008037600080366000845af43d6000803e8080156100c2573d6000f35b3d6000fd5b6060833b61015c576040517f08c379a000000000000000000000000000000000000000000000000000000000815260206004820152602660248201527f416464726573733a2064656c65676174652063616c6c20746f206e6f6e2d636f60448201527f6e7472616374000000000000000000000000000000000000000000000000000060648201526084015b60405180910390fd5b6000808573ffffffffffffffffffffffffffffffffffffffff16856040516101849190610231565b600060405180830381855af49150503d80600081146101bf576040519150601f19603f3d011682016040523d82523d6000602084013e6101c4565b606091505b50915091506101d48282866101de565b9695505050505050565b606083156101ed57508161004e565b8251156101fd5782518084602001fd5b816040517f08c379a0000000000000000000000000000000000000000000000000000000008152600401610153919061024d565b6000825161024381846020870161029e565b9190910192915050565b602081526000825180602084015261026c81604085016020870161029e565b601f017fffffffffffffffffffffffffffffffffffffffffffffffffffffffffffffffe0169190910160400192915050565b60005b838110156102b95781810151838201526020016102a1565b838111156102c8576000848401525b5050505056fe416464726573733a206c6f772d6c6576656c2064656c65676174652063616c6c206661696c6564a26469706673582212204febecbe50d9e51146637628814f1e102b293f2540fb0988d91815075752147e64736f6c63430008060033360894a13ba1a3210667c828492db98dca3e2076cc3735a920a3ca505d382bbc416464726573733a206c6f772d6c6576656c2064656c65676174652063616c6c206661696c6564a264697066735822122029b0e00bb503cad06fbc9ee3eae2a3be56608262f04949d931453725dd31c65064736f6c6343000806003360a06040523060601b6080523480156200001857600080fd5b50600354610100900460ff168062000033575060035460ff16155b6200009b5760405162461bcd60e51b815260206004820152602e60248201527f496e697469616c697a61626c653a20636f6e747261637420697320616c72656160448201526d191e481a5b9a5d1a585b1a5e995960921b606482015260840160405180910390fd5b600354610100900460ff16158015620000be576003805461ffff19166101011790555b8015620000d1576003805461ff00191690555b5060805160601c6158ae62000106600039600081816105720152818161060d015281816107a2015261083801526158ae6000f3fe6080604052600436106101805760003560e01c8063b88b82ba116100d6578063de4f63471161007f578063fc157cb411610059578063fc157cb41461050b578063fc2017f014610527578063fe0d94c11461054757600080fd5b8063de4f63471461049c578063fad167ab146104b2578063fc0c546a146104d357600080fd5b8063c4d66de8116100b0578063c4d66de8146103f5578063cdb2867b1461043f578063dc474b1a1461046f57600080fd5b8063b88b82ba14610360578063b908afa814610380578063bcf93dd6146103b457600080fd5b80635a55c1f0116101385780636929279e116101125780636929279e146102ec5780637c1d0b871461030c57806397c4d9721461032c57600080fd5b80635a55c1f0146102625780635eb243321461029857806362de7e5a146102b857600080fd5b8063495b77f211610169578063495b77f2146101ee5780634b12311c146102225780634f1ef2861461024f57600080fd5b80633659cfe6146101855780633c624c75146101a7575b600080fd5b34801561019157600080fd5b506101a56101a036600461414e565b610567565b005b3480156101b357600080fd5b506101db7fad15e7261800b4bb73f1b69d3864565ffb1fd00cb93cf14fe48da8f1f2149f3981565b6040519081526020015b60405180910390f35b3480156101fa57600080fd5b506101db7f10ea533fb3f353626ce96f5cd74c11a7c44d5e50bf74c880ccc6af91ed43dcec81565b34801561022e57600080fd5b5061024261023d3660046143da565b61070a565b6040516101e59190614bc9565b6101a561025d36600461416b565b610797565b34801561026e57600080fd5b5061028261027d3660046143a8565b610926565b6040516101e59a99989796959493929190614ac2565b3480156102a457600080fd5b506101a56102b336600461447b565b610b33565b3480156102c457600080fd5b506101db7fda3972983e62bdf826c4b807c4c9c2b8a941e1f83dfa76d53d6aeac11e1be65081565b3480156102f857600080fd5b506101db610307366004614344565b610cfc565b34801561031857600080fd5b506101a561032736600461447b565b6117da565b34801561033857600080fd5b506101db7f0dd1a2559ec1ba5739c3e5a8976d1ea74abd2520c1fcc1cf5c99cd6a6b700ab381565b34801561036c57600080fd5b506101a561037b3660046143ff565b6119e8565b34801561038c57600080fd5b506101db7f88aa719609f728b0c5e7fb8dd3608d5c25d497efbb3b9dd64e9251ebba10150881565b3480156103c057600080fd5b506006546103dc90600160801b900467ffffffffffffffff1681565b60405167ffffffffffffffff90911681526020016101e5565b34801561040157600080fd5b506101a561041036600461414e565b6000805473ffffffffffffffffffffffffffffffffffffffff19166001600160a01b0392909216919091179055565b34801561044b57600080fd5b5061045f61045a3660046143da565b612483565b60405190151581526020016101e5565b34801561047b57600080fd5b506006546103dc9068010000000000000000900467ffffffffffffffff1681565b3480156104a857600080fd5b506101db60055481565b3480156104be57600080fd5b506006546103dc9067ffffffffffffffff1681565b3480156104df57600080fd5b506007546104f3906001600160a01b031681565b6040516001600160a01b0390911681526020016101e5565b34801561051757600080fd5b506103dc670de0b6b3a764000081565b34801561053357600080fd5b506101a5610542366004614254565b6124f2565b34801561055357600080fd5b506101a56105623660046143a8565b612818565b306001600160a01b037f000000000000000000000000000000000000000000000000000000000000000016141561060b5760405162461bcd60e51b815260206004820152602c60248201527f46756e6374696f6e206d7573742062652063616c6c6564207468726f7567682060448201527f64656c656761746563616c6c000000000000000000000000000000000000000060648201526084015b60405180910390fd5b7f00000000000000000000000000000000000000000000000000000000000000006001600160a01b03166106667f360894a13ba1a3210667c828492db98dca3e2076cc3735a920a3ca505d382bbc546001600160a01b031690565b6001600160a01b0316146106e25760405162461bcd60e51b815260206004820152602c60248201527f46756e6374696f6e206d7573742062652063616c6c6564207468726f7567682060448201527f6163746976652070726f787900000000000000000000000000000000000000006064820152608401610602565b6106eb81613383565b6040805160008082526020820190925261070791839190613468565b50565b60008260015481106040518060400160405280601281526020017f4552524f525f4e4f5f455845435554494f4e0000000000000000000000000000815250906107665760405162461bcd60e51b81526004016106029190614bf7565b50505060009182526004602081815260408085206001600160a01b0394909416855292909101905290205460ff1690565b306001600160a01b037f00000000000000000000000000000000000000000000000000000000000000001614156108365760405162461bcd60e51b815260206004820152602c60248201527f46756e6374696f6e206d7573742062652063616c6c6564207468726f7567682060448201527f64656c656761746563616c6c00000000000000000000000000000000000000006064820152608401610602565b7f00000000000000000000000000000000000000000000000000000000000000006001600160a01b03166108917f360894a13ba1a3210667c828492db98dca3e2076cc3735a920a3ca505d382bbc546001600160a01b031690565b6001600160a01b03161461090d5760405162461bcd60e51b815260206004820152602c60248201527f46756e6374696f6e206d7573742062652063616c6c6564207468726f7567682060448201527f6163746976652070726f787900000000000000000000000000000000000000006064820152608401610602565b61091682613383565b61092282826001613468565b5050565b600080600080600080600080600060608a60015481106040518060400160405280601281526020017f4552524f525f4e4f5f455845435554494f4e0000000000000000000000000000815250906109905760405162461bcd60e51b81526004016106029190614bf7565b5060008c81526004602052604090206109a9818e61362c565b9b506109b48d613686565b8154600183015460028401546003850154939e5067ffffffffffffffff8084169e5068010000000000000000840481169d50600160801b840481169c50600160c01b9093049092169950975095509350610a198d600090815260026020526040902090565b600b0180546040805160208084028201810190925282815292919060009084015b82821015610b1e576000848152602090819020604080516060810182526003860290920180546001600160a01b0316835260018101549383019390935260028301805492939291840191610a8d9061522e565b80601f0160208091040260200160405190810160405280929190818152602001828054610ab99061522e565b8015610b065780601f10610adb57610100808354040283529160200191610b06565b820191906000526020600020905b815481529060010190602001808311610ae957829003601f168201915b50505050508152505081526020019060010190610a3a565b50505050925050509193959799509193959799565b60008054604051637ef7c88360e11b81527fad15e7261800b4bb73f1b69d3864565ffb1fd00cb93cf14fe48da8f1f2149f39926001600160a01b039092169163fdef910691610b8c913091339187913690600401614a8f565b602060405180830381600087803b158015610ba657600080fd5b505af1158015610bba573d6000803e3d6000fd5b505050506040513d601f19601f82011682018060405250810190610bde91906141fe565b610c185760405162461bcd60e51b815260206004820152600b60248201526a617574683a20636865636b60a81b6044820152606401610602565b60065460408051808201909152601981527f564f54494e475f4348414e47455f51554f52554d5f504354530000000000000060208201529067ffffffffffffffff9081169084161115610c7e5760405162461bcd60e51b81526004016106029190614bf7565b50600680547fffffffffffffffffffffffffffffffff0000000000000000ffffffffffffffff166801000000000000000067ffffffffffffffff8516908102919091179091556040519081527f3172f2e9273c729c2a47cc8bf7e7f18506e3e3035126d562602bd2155bc78a50906020015b60405180910390a15050565b60008054604051637ef7c88360e11b81527f0dd1a2559ec1ba5739c3e5a8976d1ea74abd2520c1fcc1cf5c99cd6a6b700ab3916001600160a01b03169063fdef910690610d559030903390869088903690600401614a8f565b602060405180830381600087803b158015610d6f57600080fd5b505af1158015610d83573d6000803e3d6000fd5b505050506040513d601f19601f82011682018060405250810190610da791906141fe565b610de15760405162461bcd60e51b815260206004820152600b60248201526a617574683a20636865636b60a81b6044820152606401610602565b6000546001600160a01b031663721da993610dff6020870187614d8f565b610e099080614ce0565b6040518363ffffffff1660e01b8152600401610e26929190614be3565b60206040518083038186803b158015610e3e57600080fd5b505afa158015610e52573d6000803e3d6000fd5b505050506040513d601f19601f82011682018060405250810190610e7691906141fe565b6040518060400160405280601a81526020017f4552524f525f4e4f545f414c4c4f5745445f544f5f535441525400000000000081525090610eca5760405162461bcd60e51b81526004016106029190614bf7565b5060018054906000610edb83615263565b90915550506001805460008181526002602052604090209081559085908201610f048282615356565b50849050600a8201610f168282615540565b5050600e8101805460ff19169055604080516080808201835283548252825190810183526001840180546001600160a01b03168252835160c0810190945260028501805460009587946020808801959194919390850192919082908290610f7c9061522e565b80601f0160208091040260200160405190810160405280929190818152602001828054610fa89061522e565b8015610ff55780601f10610fca57610100808354040283529160200191610ff5565b820191906000526020600020905b815481529060010190602001808311610fd857829003601f168201915b5050505050815260200160018201805461100e9061522e565b80601f016020809104026020016040519081016040528092919081815260200182805461103a9061522e565b80156110875780601f1061105c57610100808354040283529160200191611087565b820191906000526020600020905b81548152906001019060200180831161106a57829003601f168201915b505050505081526020016002820180546110a09061522e565b80601f01602080910402602001604051908101604052809291908181526020018280546110cc9061522e565b80156111195780601f106110ee57610100808354040283529160200191611119565b820191906000526020600020905b8154815290600101906020018083116110fc57829003601f168201915b505050505081526020016003820180546111329061522e565b80601f016020809104026020016040519081016040528092919081815260200182805461115e9061522e565b80156111ab5780601f10611180576101008083540402835291602001916111ab565b820191906000526020600020905b81548152906001019060200180831161118e57829003601f168201915b505050505081526020016004820180546111c49061522e565b80601f01602080910402602001604051908101604052809291908181526020018280546111f09061522e565b801561123d5780601f106112125761010080835404028352916020019161123d565b820191906000526020600020905b81548152906001019060200180831161122057829003601f168201915b505050505081526020016005820180546112569061522e565b80601f01602080910402602001604051908101604052809291908181526020018280546112829061522e565b80156112cf5780601f106112a4576101008083540402835291602001916112cf565b820191906000526020600020905b8154815290600101906020018083116112b257829003601f168201915b505050505081525050815260200160078201805480602002602001604051908101604052809291908181526020016000905b828210156113d85760008481526020908190206040805180820182526002860290920180546001600160a01b031683526001810180548351818702810187019094528084529394919385830193928301828280156113c057602002820191906000526020600020906000905b82829054906101000a900460e01b7bffffffffffffffffffffffffffffffffffffffffffffffffffffffff19168152602001906004019060208260030104928301926001038202915080841161136d5790505b50505050508152505081526020019060010190611301565b5050505081526020016008820180546113f09061522e565b80601f016020809104026020016040519081016040528092919081815260200182805461141c9061522e565b80156114695780601f1061143e57610100808354040283529160200191611469565b820191906000526020600020905b81548152906001019060200180831161144c57829003601f168201915b5050505050815250508152602001600a82016040518060800160405290816000820180546114969061522e565b80601f01602080910402602001604051908101604052809291908181526020018280546114c29061522e565b801561150f5780601f106114e45761010080835404028352916020019161150f565b820191906000526020600020905b8154815290600101906020018083116114f257829003601f168201915b5050505050815260200160018201805480602002602001604051908101604052809291908181526020016000905b82821015611621576000848152602090819020604080516060810182526003860290920180546001600160a01b03168352600181015493830193909352600283018054929392918401916115909061522e565b80601f01602080910402602001604051908101604052809291908181526020018280546115bc9061522e565b80156116095780601f106115de57610100808354040283529160200191611609565b820191906000526020600020905b8154815290600101906020018083116115ec57829003601f168201915b5050505050815250508152602001906001019061153d565b5050505081526020016002820180546116399061522e565b80601f01602080910402602001604051908101604052809291908181526020018280546116659061522e565b80156116b25780601f10611687576101008083540402835291602001916116b2565b820191906000526020600020905b81548152906001019060200180831161169557829003601f168201915b505050505081526020016003820180546116cb9061522e565b80601f01602080910402602001604051908101604052809291908181526020018280546116f79061522e565b80156117445780601f1061171957610100808354040283529160200191611744565b820191906000526020600020905b81548152906001019060200180831161172757829003601f168201915b505050919092525050508152600e82015460209091019060ff16600381111561176f5761176f615294565b600381111561178057611780615294565b905250905061178e816136b7565b838260405161179d91906147eb565b604051908190038120907f2f8139148d9020cbfdbdecc59d0cabb0f972109b744fc9eb0d41819a5de692ca90600090a35050600154949350505050565b60008054604051637ef7c88360e11b81527fda3972983e62bdf826c4b807c4c9c2b8a941e1f83dfa76d53d6aeac11e1be650926001600160a01b039092169163fdef910691611833913091339187913690600401614a8f565b602060405180830381600087803b15801561184d57600080fd5b505af1158015611861573d6000803e3d6000fd5b505050506040513d601f19601f8201168201806040525081019061188591906141fe565b6118bf5760405162461bcd60e51b815260206004820152600b60248201526a617574683a20636865636b60a81b6044820152606401610602565b60065460408051808201909152601a81527f564f54494e475f4348414e47455f535550504f52545f5043545300000000000060208201529067ffffffffffffffff808516680100000000000000009092041611156119305760405162461bcd60e51b81526004016106029190614bf7565b5060408051808201909152601a81527f564f54494e475f4348414e47455f535550505f544f4f5f4249470000000000006020820152670de0b6b3a764000067ffffffffffffffff8416106119975760405162461bcd60e51b81526004016106029190614bf7565b506006805467ffffffffffffffff191667ffffffffffffffff84169081179091556040519081527f903b617f7f36eb047a29b89d1bf7885fdae31d250c3320fccf11d045c11b396e90602001610cf0565b8260015481106040518060400160405280601281526020017f4552524f525f4e4f5f455845435554494f4e000000000000000000000000000081525090611a425760405162461bcd60e51b81526004016106029190614bf7565b506000848152600260205260408120604080516080808201835283548252825190810183526001840180546001600160a01b03168252835160c08101909452600285018054939594602080880195908501929082908290611aa29061522e565b80601f0160208091040260200160405190810160405280929190818152602001828054611ace9061522e565b8015611b1b5780601f10611af057610100808354040283529160200191611b1b565b820191906000526020600020905b815481529060010190602001808311611afe57829003601f168201915b50505050508152602001600182018054611b349061522e565b80601f0160208091040260200160405190810160405280929190818152602001828054611b609061522e565b8015611bad5780601f10611b8257610100808354040283529160200191611bad565b820191906000526020600020905b815481529060010190602001808311611b9057829003601f168201915b50505050508152602001600282018054611bc69061522e565b80601f0160208091040260200160405190810160405280929190818152602001828054611bf29061522e565b8015611c3f5780601f10611c1457610100808354040283529160200191611c3f565b820191906000526020600020905b815481529060010190602001808311611c2257829003601f168201915b50505050508152602001600382018054611c589061522e565b80601f0160208091040260200160405190810160405280929190818152602001828054611c849061522e565b8015611cd15780601f10611ca657610100808354040283529160200191611cd1565b820191906000526020600020905b815481529060010190602001808311611cb457829003601f168201915b50505050508152602001600482018054611cea9061522e565b80601f0160208091040260200160405190810160405280929190818152602001828054611d169061522e565b8015611d635780601f10611d3857610100808354040283529160200191611d63565b820191906000526020600020905b815481529060010190602001808311611d4657829003601f168201915b50505050508152602001600582018054611d7c9061522e565b80601f0160208091040260200160405190810160405280929190818152602001828054611da89061522e565b8015611df55780601f10611dca57610100808354040283529160200191611df5565b820191906000526020600020905b815481529060010190602001808311611dd857829003601f168201915b505050505081525050815260200160078201805480602002602001604051908101604052809291908181526020016000905b82821015611efe5760008481526020908190206040805180820182526002860290920180546001600160a01b03168352600181018054835181870281018701909452808452939491938583019392830182828015611ee657602002820191906000526020600020906000905b82829054906101000a900460e01b7bffffffffffffffffffffffffffffffffffffffffffffffffffffffff191681526020019060040190602082600301049283019260010382029150808411611e935790505b50505050508152505081526020019060010190611e27565b505050508152602001600882018054611f169061522e565b80601f0160208091040260200160405190810160405280929190818152602001828054611f429061522e565b8015611f8f5780601f10611f6457610100808354040283529160200191611f8f565b820191906000526020600020905b815481529060010190602001808311611f7257829003601f168201915b5050505050815250508152602001600a8201604051806080016040529081600082018054611fbc9061522e565b80601f0160208091040260200160405190810160405280929190818152602001828054611fe89061522e565b80156120355780601f1061200a57610100808354040283529160200191612035565b820191906000526020600020905b81548152906001019060200180831161201857829003601f168201915b5050505050815260200160018201805480602002602001604051908101604052809291908181526020016000905b82821015612147576000848152602090819020604080516060810182526003860290920180546001600160a01b03168352600181015493830193909352600283018054929392918401916120b69061522e565b80601f01602080910402602001604051908101604052809291908181526020018280546120e29061522e565b801561212f5780601f106121045761010080835404028352916020019161212f565b820191906000526020600020905b81548152906001019060200180831161211257829003601f168201915b50505050508152505081526020019060010190612063565b50505050815260200160028201805461215f9061522e565b80601f016020809104026020016040519081016040528092919081815260200182805461218b9061522e565b80156121d85780601f106121ad576101008083540402835291602001916121d8565b820191906000526020600020905b8154815290600101906020018083116121bb57829003601f168201915b505050505081526020016003820180546121f19061522e565b80601f016020809104026020016040519081016040528092919081815260200182805461221d9061522e565b801561226a5780601f1061223f5761010080835404028352916020019161226a565b820191906000526020600020905b81548152906001019060200180831161224d57829003601f168201915b505050919092525050508152600e82015460209091019060ff16600381111561229557612295615294565b60038111156122a6576122a6615294565b90525090506000816060015160038111156122c3576122c3615294565b146040518060400160405280601b81526020017f4552524f525f455845435554494f4e5f53544154455f57524f4e470000000000815250906123185760405162461bcd60e51b81526004016106029190614bf7565b50600054602080830151015160a001516040517f721da9930000000000000000000000000000000000000000000000000000000081526001600160a01b039092169163721da9939161236c91600401614bf7565b60206040518083038186803b15801561238457600080fd5b505afa158015612398573d6000803e3d6000fd5b505050506040513d601f19601f820116820180604052508101906123bc91906141fe565b6040518060400160405280601b81526020017f4552524f525f455845435554494f4e5f53544154455f57524f4e470000000000815250906124105760405162461bcd60e51b81526004016106029190614bf7565b5061241c85858561393c565b838360405161242c9291906146ad565b60405180910390208160405161244291906146d9565b604051908190038120878252907f06e89ce73a1bc6704ed82216000e8a90716f2655dcaa98a517e60a7ccc814d3e9060200160405180910390a35050505050565b60008260015481106040518060400160405280601281526020017f4552524f525f4e4f5f455845435554494f4e0000000000000000000000000000815250906124df5760405162461bcd60e51b81526004016106029190614bf7565b506124ea84846139ba565b949350505050565b600354610100900460ff168061250b575060035460ff16155b61257d5760405162461bcd60e51b815260206004820152602e60248201527f496e697469616c697a61626c653a20636f6e747261637420697320616c72656160448201527f647920696e697469616c697a65640000000000000000000000000000000000006064820152608401610602565b600354610100900460ff161580156125bc57600380547fffffffffffffffffffffffffffffffffffffffffffffffffffffffffffff0000166101011790555b6007805473ffffffffffffffffffffffffffffffffffffffff19166001600160a01b0385161790556125f4604083016020840161447b565b67ffffffffffffffff1661260b602084018461447b565b67ffffffffffffffff1611156040518060400160405280601081526020017f564f54494e475f494e49545f50435453000000000000000000000000000000008152509061266b5760405162461bcd60e51b81526004016106029190614bf7565b50670de0b6b3a7640000612685604084016020850161447b565b67ffffffffffffffff16106040518060400160405280601b81526020017f564f54494e475f494e49545f535550504f52545f544f4f5f4249470000000000815250906126e45760405162461bcd60e51b81526004016106029190614bf7565b506126f2602083018361447b565b6006805467ffffffffffffffff9290921668010000000000000000027fffffffffffffffffffffffffffffffff0000000000000000ffffffffffffffff909216919091179055612748604083016020840161447b565b6006805467ffffffffffffffff191667ffffffffffffffff9290921691909117905561277a606083016040840161447b565b6006805467ffffffffffffffff92909216600160801b027fffffffffffffffff0000000000000000ffffffffffffffffffffffffffffffff9092169190911790556000805473ffffffffffffffffffffffffffffffffffffffff19166001600160a01b038616179055801561281257600380547fffffffffffffffffffffffffffffffffffffffffffffffffffffffffffff00ff1690555b50505050565b8060015481106040518060400160405280601281526020017f4552524f525f4e4f5f455845435554494f4e0000000000000000000000000000815250906128725760405162461bcd60e51b81526004016106029190614bf7565b5060008054604051637ef7c88360e11b81527f10ea533fb3f353626ce96f5cd74c11a7c44d5e50bf74c880ccc6af91ed43dcec926001600160a01b039092169163fdef9106916128cc913091339187913690600401614a8f565b602060405180830381600087803b1580156128e657600080fd5b505af11580156128fa573d6000803e3d6000fd5b505050506040513d601f19601f8201168201806040525081019061291e91906141fe565b6129585760405162461bcd60e51b815260206004820152600b60248201526a617574683a20636865636b60a81b6044820152606401610602565b600083815260026020526040812090506000600e82015460ff16600381111561298357612983615294565b146040518060400160405280601b81526020017f4552524f525f455845435554494f4e5f53544154455f57524f4e470000000000815250906129d85760405162461bcd60e51b81526004016106029190614bf7565b506000546040517f721da9930000000000000000000000000000000000000000000000000000000081526001600160a01b039091169063721da99390612a25906003850190600401614c0a565b60206040518083038186803b158015612a3d57600080fd5b505afa158015612a51573d6000803e3d6000fd5b505050506040513d601f19601f82011682018060405250810190612a7591906141fe565b6040518060400160405280601c81526020017f4552524f525f4e4f545f414c4c4f5745445f544f5f455845435554450000000081525090612ac95760405162461bcd60e51b81526004016106029190614bf7565b50600e8101805460ff19166003179055604080516080808201835283548252825190810183526001840180546001600160a01b03168252835160c0810190945260028501805461333e9587946020808801959194919390850192919082908290612b329061522e565b80601f0160208091040260200160405190810160405280929190818152602001828054612b5e9061522e565b8015612bab5780601f10612b8057610100808354040283529160200191612bab565b820191906000526020600020905b815481529060010190602001808311612b8e57829003601f168201915b50505050508152602001600182018054612bc49061522e565b80601f0160208091040260200160405190810160405280929190818152602001828054612bf09061522e565b8015612c3d5780601f10612c1257610100808354040283529160200191612c3d565b820191906000526020600020905b815481529060010190602001808311612c2057829003601f168201915b50505050508152602001600282018054612c569061522e565b80601f0160208091040260200160405190810160405280929190818152602001828054612c829061522e565b8015612ccf5780601f10612ca457610100808354040283529160200191612ccf565b820191906000526020600020905b815481529060010190602001808311612cb257829003601f168201915b50505050508152602001600382018054612ce89061522e565b80601f0160208091040260200160405190810160405280929190818152602001828054612d149061522e565b8015612d615780601f10612d3657610100808354040283529160200191612d61565b820191906000526020600020905b815481529060010190602001808311612d4457829003601f168201915b50505050508152602001600482018054612d7a9061522e565b80601f0160208091040260200160405190810160405280929190818152602001828054612da69061522e565b8015612df35780601f10612dc857610100808354040283529160200191612df3565b820191906000526020600020905b815481529060010190602001808311612dd657829003601f168201915b50505050508152602001600582018054612e0c9061522e565b80601f0160208091040260200160405190810160405280929190818152602001828054612e389061522e565b8015612e855780601f10612e5a57610100808354040283529160200191612e85565b820191906000526020600020905b815481529060010190602001808311612e6857829003601f168201915b505050505081525050815260200160078201805480602002602001604051908101604052809291908181526020016000905b82821015612f8e5760008481526020908190206040805180820182526002860290920180546001600160a01b03168352600181018054835181870281018701909452808452939491938583019392830182828015612f7657602002820191906000526020600020906000905b82829054906101000a900460e01b7bffffffffffffffffffffffffffffffffffffffffffffffffffffffff191681526020019060040190602082600301049283019260010382029150808411612f235790505b50505050508152505081526020019060010190612eb7565b505050508152602001600882018054612fa69061522e565b80601f0160208091040260200160405190810160405280929190818152602001828054612fd29061522e565b801561301f5780601f10612ff45761010080835404028352916020019161301f565b820191906000526020600020905b81548152906001019060200180831161300257829003601f168201915b5050505050815250508152602001600a820160405180608001604052908160008201805461304c9061522e565b80601f01602080910402602001604051908101604052809291908181526020018280546130789061522e565b80156130c55780601f1061309a576101008083540402835291602001916130c5565b820191906000526020600020905b8154815290600101906020018083116130a857829003601f168201915b5050505050815260200160018201805480602002602001604051908101604052809291908181526020016000905b828210156131d7576000848152602090819020604080516060810182526003860290920180546001600160a01b03168352600181015493830193909352600283018054929392918401916131469061522e565b80601f01602080910402602001604051908101604052809291908181526020018280546131729061522e565b80156131bf5780601f10613194576101008083540402835291602001916131bf565b820191906000526020600020905b8154815290600101906020018083116131a257829003601f168201915b505050505081525050815260200190600101906130f3565b5050505081526020016002820180546131ef9061522e565b80601f016020809104026020016040519081016040528092919081815260200182805461321b9061522e565b80156132685780601f1061323d57610100808354040283529160200191613268565b820191906000526020600020905b81548152906001019060200180831161324b57829003601f168201915b505050505081526020016003820180546132819061522e565b80601f01602080910402602001604051908101604052809291908181526020018280546132ad9061522e565b80156132fa5780601f106132cf576101008083540402835291602001916132fa565b820191906000526020600020905b8154815290600101906020018083116132dd57829003601f168201915b505050919092525050508152600e82015460209091019060ff16600381111561332557613325615294565b600381111561333657613336615294565b905250613a9a565b838160405161334d91906147eb565b604051908190038120907f7d25af5a7aeb27ebf1529e2916d8744eeae9d43ebc07a7dbce6ad410582a807b90600090a350505050565b60008054604051637ef7c88360e11b81527f88aa719609f728b0c5e7fb8dd3608d5c25d497efbb3b9dd64e9251ebba101508926001600160a01b039092169163fdef9106916133dc913091339187913690600401614a8f565b602060405180830381600087803b1580156133f657600080fd5b505af115801561340a573d6000803e3d6000fd5b505050506040513d601f19601f8201168201806040525081019061342e91906141fe565b6109225760405162461bcd60e51b815260206004820152600b60248201526a617574683a20636865636b60a81b6044820152606401610602565b600061349b7f360894a13ba1a3210667c828492db98dca3e2076cc3735a920a3ca505d382bbc546001600160a01b031690565b90506134a684613af9565b6000835111806134b35750815b156134c4576134c28484613bbb565b505b7f4910fdfa16fed3260ed0e7147f7cc6da11a60208b5b9406d12a635614ffd9143805460ff1661362557805460ff191660011781556040516001600160a01b038316602482015261357190869060440160408051601f198184030181529190526020810180517bffffffffffffffffffffffffffffffffffffffffffffffffffffffff167f3659cfe600000000000000000000000000000000000000000000000000000000179052613bbb565b50805460ff191681557f360894a13ba1a3210667c828492db98dca3e2076cc3735a920a3ca505d382bbc546001600160a01b0383811691161461361c5760405162461bcd60e51b815260206004820152602f60248201527f45524331393637557067726164653a207570677261646520627265616b73206660448201527f75727468657220757067726164657300000000000000000000000000000000006064820152608401610602565b61362585613be0565b5050505050565b60065482546000916136529167ffffffffffffffff600160801b90920482169116614e16565b67ffffffffffffffff16613664613c20565b67ffffffffffffffff1610801561367f575061367f82613686565b9392505050565b600060036000838152600260205260409020600e015460ff1660038111156136b0576136b0615294565b1492915050565b60008060008360400151606001518060200190518101906136d891906142a3565b925092509250600060016136ea613c30565b6136f49190614e9a565b6007546040517f8e539e8c00000000000000000000000000000000000000000000000000000000815267ffffffffffffffff831660048201529192506000916001600160a01b0390911690638e539e8c9060240160206040518083038186803b15801561376057600080fd5b505afa158015613774573d6000803e3d6000fd5b505050506040513d601f19601f8201168201806040525081019061379891906143c1565b9050600081116040518060400160405280601681526020017f564f54494e475f4e4f5f564f54494e475f504f57455200000000000000000000815250906137f25760405162461bcd60e51b81526004016106029190614bf7565b508551600081815260046020526040902061380b613c20565b815467ffffffffffffffff9182167fffffffffffffffffffffffffffffffff000000000000000000000000000000009091161768010000000000000000868316810291909117808455600680547fffffffffffffffff0000000000000000ffffffffffffffffffffffffffffffff8316908516600160801b02908117865590546fffffffffffffffffffffffffffffffff90921677ffffffffffffffffffffffffffffffffffffffffffffffff90911617919004909116600160c01b0217815560038101839055604051339083907f4d72fe0577a3a3f7da968d7b892779dde102519c25527b29cf7054f245c791b990613906908b90614bf7565b60405180910390a384801561392057506139208233612483565b15613932576139328260013389613c3b565b5050505050505050565b60008061394b8385018561421b565b9150915061395985336139ba565b6040518060400160405280601381526020017f564f54494e475f43414e5f4e4f545f564f544500000000000000000000000000815250906139ad5760405162461bcd60e51b81526004016106029190614bf7565b5061362585833384613c3b565b60008281526004602052604081206139d2818561362c565b80156124ea575060075481546040517f3a46b1a80000000000000000000000000000000000000000000000000000000081526001600160a01b0386811660048301526801000000000000000090920467ffffffffffffffff1660248201526000929190911690633a46b1a89060440160206040518083038186803b158015613a5957600080fd5b505afa158015613a6d573d6000803e3d6000fd5b505050506040513d601f19601f82011682018060405250810190613a9191906143c1565b11949350505050565b8051613aa590613e75565b6040518060400160405280601681526020017f564f54494e475f43414e5f4e4f545f4558454355544500000000000000000000815250906109225760405162461bcd60e51b81526004016106029190614bf7565b803b613b6d5760405162461bcd60e51b815260206004820152602d60248201527f455243313936373a206e657720696d706c656d656e746174696f6e206973206e60448201527f6f74206120636f6e7472616374000000000000000000000000000000000000006064820152608401610602565b7f360894a13ba1a3210667c828492db98dca3e2076cc3735a920a3ca505d382bbc805473ffffffffffffffffffffffffffffffffffffffff19166001600160a01b0392909216919091179055565b606061367f838360405180606001604052806027815260200161585260279139613f72565b613be981613af9565b6040516001600160a01b038216907fbc7cd75a20ee27fd9adebab32041f755214dbc6bffa90cc0225b39da2e5c2d3b90600090a250565b6000613c2b4261405d565b905090565b6000613c2b4361405d565b6000848152600460208190526040808320600754815492517f3a46b1a80000000000000000000000000000000000000000000000000000000081526001600160a01b03888116958201959095526801000000000000000090930467ffffffffffffffff1660248401529093921690633a46b1a89060440160206040518083038186803b158015613cca57600080fd5b505afa158015613cde573d6000803e3d6000fd5b505050506040513d601f19601f82011682018060405250810190613d0291906143c1565b6001600160a01b038516600090815260048401602052604090205490915060ff166001816002811115613d3757613d37615294565b1415613d5757818360010154613d4d9190614e83565b6001840155613d87565b6002816002811115613d6b57613d6b615294565b1415613d8757818360020154613d819190614e83565b60028401555b8515613da757818360010154613d9d9190614dfe565b6001840155613dbd565b818360020154613db79190614dfe565b60028401555b85613dc9576002613dcc565b60015b6001600160a01b03861660009081526004850160205260409020805460ff19166001836002811115613e0057613e00615294565b0217905550604080518715158152602081018490526001600160a01b0387169189917fb34ee265e3d4f5ec4e8b52d59b2a9be8fceca2f274ebc080d8fba797fea9391f910160405180910390a3838015613e5e5750613e5e87613e75565b15613e6c57613e6c87612818565b50505050505050565b6000818152600460205260408120613e8c83613686565b15613e9a5750600092915050565b600181015460038201548254613ec2929190600160801b900467ffffffffffffffff166140c4565b15613ed05750600192915050565b613eda818461362c565b15613ee85750600092915050565b600081600201548260010154613efe9190614dfe565b60018301548354919250613f24918390600160801b900467ffffffffffffffff166140c4565b613f32575060009392505050565b600182015460038301548354613f5a929190600160c01b900467ffffffffffffffff166140c4565b613f68575060009392505050565b5060019392505050565b6060833b613fe85760405162461bcd60e51b815260206004820152602660248201527f416464726573733a2064656c65676174652063616c6c20746f206e6f6e2d636f60448201527f6e747261637400000000000000000000000000000000000000000000000000006064820152608401610602565b600080856001600160a01b03168560405161400391906146bd565b600060405180830381855af49150503d806000811461403e576040519150601f19603f3d011682016040523d82523d6000602084013e614043565b606091505b50915091506140538282866140fd565b9695505050505050565b60408051808201909152601581527f55494e5436345f4e554d4245525f544f4f5f4249470000000000000000000000602082015260009067ffffffffffffffff8311156140bd5760405162461bcd60e51b81526004016106029190614bf7565b5090919050565b6000826140d35750600061367f565b6000836140e8670de0b6b3a764000087614e64565b6140f29190614e42565b909210949350505050565b6060831561410c57508161367f565b82511561411c5782518084602001fd5b8160405162461bcd60e51b81526004016106029190614bf7565b60006080828403121561414857600080fd5b50919050565b60006020828403121561416057600080fd5b813561367f8161582e565b6000806040838503121561417e57600080fd5b82356141898161582e565b9150602083013567ffffffffffffffff8111156141a557600080fd5b8301601f810185136141b657600080fd5b80356141c96141c482614dd6565b614da5565b8181528660208385010111156141de57600080fd5b816020840160208301376000602083830101528093505050509250929050565b60006020828403121561421057600080fd5b815161367f81615843565b6000806040838503121561422e57600080fd5b823561423981615843565b9150602083013561424981615843565b809150509250929050565b600080600060a0848603121561426957600080fd5b83356142748161582e565b925060208401356142848161582e565b915060a0840185101561429657600080fd5b6040840190509250925092565b6000806000606084860312156142b857600080fd5b835167ffffffffffffffff8111156142cf57600080fd5b8401601f810186136142e057600080fd5b80516142ee6141c482614dd6565b81815287602083850101111561430357600080fd5b614314826020830160208601615202565b809550505050602084015161432881615843565b604085015190925061433981615843565b809150509250925092565b6000806040838503121561435757600080fd5b823567ffffffffffffffff8082111561436f57600080fd5b61437b86838701614136565b9350602085013591508082111561439157600080fd5b5061439e85828601614136565b9150509250929050565b6000602082840312156143ba57600080fd5b5035919050565b6000602082840312156143d357600080fd5b5051919050565b600080604083850312156143ed57600080fd5b8235915060208301356142498161582e565b60008060006040848603121561441457600080fd5b83359250602084013567ffffffffffffffff8082111561443357600080fd5b818601915086601f83011261444757600080fd5b81358181111561445657600080fd5b87602082850101111561446857600080fd5b6020830194508093505050509250925092565b60006020828403121561448d57600080fd5b813567ffffffffffffffff8116811461367f57600080fd5b6000600482106144b7576144b7615294565b50815260200190565b60006144cd83835161461c565b6020838101518051908201926000915b808310156145215784516001600160a01b0381511683528481015185840152604061450d8185018284015161461c565b9350505083850194506001830192506144dd565b5061453d61453382604089015161461c565b606088015161461c565b979650505050505050565b6000614554838361463f565b6001838101805460009182526020808320909490929091905b818110156145aa576001600160a01b038454168352848401548684015261459a604084016002860161463f565b600394909401939250840161456d565b505061453d6145bc826002890161463f565b6003880161463f565b818352818160208501375060006020828401015260006020601f19601f840116840101905092915050565b60008151808452614608816020860160208601615202565b601f01601f19169290920160200192915050565b6000815161462e818560208601615202565b601f01601f19169290920192915050565b6000815461464c8161522e565b600182811680156146645760018114614676576146a3565b60ff19841687526020870194506146a3565b8560005260208060002060005b8581101561469c5781548a820152908401908201614683565b8901965050505b5050505092915050565b8183823760009101908152919050565b600082516146cf818460208701615202565b9190910192915050565b8151815260006020808401516001600160a01b0380825116838601528282015161474761473d61473361472961471f61471660408c01875161461c565b8987015161461c565b604086015161461c565b606085015161461c565b608084015161461c565b60a083015161461c565b60408401518051908601925060009190825b818110156147b457845180518716845288015180519089019085908a8601905b808310156147a35783516001600160e01b0319168252928b019260019290920191908b0190614779565b50968a019694505050600101614759565b50506147de6147d46147ca83606089015161461c565b60408c01516144c0565b60608b01516144a5565b9998505050505050505050565b81548152600060206001600160a01b03806001860154168285015261484661483d61483461482b6148226040890160028b0161463f565b60038a0161463f565b6004890161463f565b6005880161463f565b6006870161463f565b614853816007880161463f565b60088701805460009182528582209350905b81811015614a6457848454168352858301600185015461488e6001870160009081526020902090565b60005b826007820110156149495781546148b4858260e01b6001600160e01b0319169052565b6001600160e01b031960c082901b81168c87015260a082901b81166040870152608082901b811660608701526148fb60808701828460601b166001600160e01b0319169052565b61491660a08701828460401b166001600160e01b0319169052565b6001600160e01b0319828d1b8216811660c088015291161660e08501526101009093019260019190910190600801614891565b905490828110156149725761496a848360e01b6001600160e01b0319169052565b928901926001015b828110156149935760c082901b6001600160e01b0319168452928901926001015b828110156149b45760a082901b6001600160e01b0319168452928901926001015b828110156149d557608082901b6001600160e01b0319168452928901926001015b828110156149f657606082901b6001600160e01b0319168452928901926001015b82811015614a1757604082901b6001600160e01b0319168452928901926001015b82811015614a3657818a1b6001600160e01b0319168452928901926001015b82811015614a50576001600160e01b031982168452928901925b505050600294909401939250600101614865565b505061453d614a82614a798360098b0161463f565b600a8a01614548565b600e89015460ff166144a5565b60006001600160a01b0380881683528087166020840152508460408301526080606083015261453d6080830184866145c5565b60006101408083018d1515845260208d151581860152604067ffffffffffffffff808f16828801526060818f1681890152818e166080890152818d1660a08901528b60c08901528a60e089015289610100890152856101208901528495508851915081855261016094508488019550848260051b890101945083890160005b83811015614baf578987037ffffffffffffffffffffffffffffffffffffffffffffffffffffffffffffffea0018852815180516001600160a01b031688528681015187890152850151858801849052614b9c848901826145f0565b9887019897505090850190600101614b41565b50505050505080925050509b9a5050505050505050505050565b6020810160038310614bdd57614bdd615294565b91905290565b6020815260006124ea6020830184866145c5565b60208152600061367f60208301846145f0565b6000602080835260008454614c1e8161522e565b80848701526040600180841660008114614c3f5760018114614c5357614c81565b60ff198516838a0152606089019550614c81565b896000528660002060005b85811015614c795781548b8201860152908301908801614c5e565b8a0184019650505b509398975050505050505050565b6000808335601e19843603018112614ca657600080fd5b83018035915067ffffffffffffffff821115614cc157600080fd5b6020019150600581901b3603821315614cd957600080fd5b9250929050565b6000808335601e19843603018112614cf757600080fd5b83018035915067ffffffffffffffff821115614d1257600080fd5b602001915036819003821315614cd957600080fd5b600082357fffffffffffffffffffffffffffffffffffffffffffffffffffffffffffffffa18336030181126146cf57600080fd5b600082357fffffffffffffffffffffffffffffffffffffffffffffffffffffffffffffffc18336030181126146cf57600080fd5b6000823560be198336030181126146cf57600080fd5b604051601f8201601f1916810167ffffffffffffffff81118282101715614dce57614dce6152aa565b604052919050565b600067ffffffffffffffff821115614df057614df06152aa565b50601f01601f191660200190565b60008219821115614e1157614e1161527e565b500190565b600067ffffffffffffffff808316818516808303821115614e3957614e3961527e565b01949350505050565b600082614e5f57634e487b7160e01b600052601260045260246000fd5b500490565b6000816000190483118215151615614e7e57614e7e61527e565b500290565b600082821015614e9557614e9561527e565b500390565b600067ffffffffffffffff83811690831681811015614ebb57614ebb61527e565b039392505050565b601f821115614efc57806000526020600020601f840160051c81016020851015614eea5750805b613625601f850160051c830182614f01565b505050565b5b818110156109225760008155600101614f02565b68010000000000000000831115614f2f57614f2f6152aa565b805483825580841015615014577f55555555555555555555555555555555555555555555555555555555555555556001818311811615614f7157614f7161527e565b6003828711821615614f8557614f8561527e565b600085815260208120909350878202810190828602015b8082101561500e57848255848483015560028201614fba815461522e565b801561500357601f80821160018114614fd557888455615000565b600084815260209020614ff183850160051c82018a8301614f01565b50600084815260208120818655555b50505b505090820190614f9c565b50505050505b5060008181526020812083915b858110156150525761503c6150368487614d27565b8361565d565b6020929092019160039190910190600101615021565b505050505050565b68010000000000000000831115615073576150736152aa565b805483825580841015615104577f7fffffffffffffffffffffffffffffffffffffffffffffffffffffffffffffff60018183118116156150b5576150b561527e565b8186118116156150c7576150c761527e565b60008481526020812090925086821b81019084831b015b808210156150ff578382556150f48383016152c0565b6002820191506150de565b505050505b5060008181526020812083915b858110156150525761512c6151268487614d5b565b83615766565b6020929092019160029190910190600101615111565b67ffffffffffffffff83111561515a5761515a6152aa565b61516e83615168835461522e565b83614ec3565b6000601f8411600181146151a2576000851561518a5750838201355b600019600387901b1c1916600186901b178355613625565b600083815260209020601f19861690835b828110156151d357868501358255602094850194600190920191016151b3565b50868210156151f05760001960f88860031b161c19848701351681555b505060018560011b0183555050505050565b60005b8381101561521d578181015183820152602001615205565b838111156128125750506000910152565b600181811c9082168061524257607f821691505b6020821081141561414857634e487b7160e01b600052602260045260246000fd5b60006000198214156152775761527761527e565b5060010190565b634e487b7160e01b600052601160045260246000fd5b634e487b7160e01b600052602160045260246000fd5b634e487b7160e01b600052604160045260246000fd5b805460008255801561092257816000526020600020614efc6007830160031c820182614f01565b68010000000000000000821115615300576153006152aa565b805482825580831015614efc578160005260206000206007840160031c8101601c8560021b168015615343576000198083018054828460200360031b1c16815550505b506136256007840160031c830182614f01565b81356153618161582e565b6001600160a01b03811673ffffffffffffffffffffffffffffffffffffffff1983541617825550600180820160208085013560be198636030181126153a557600080fd5b85016153b18180614ce0565b67ffffffffffffffff8111156153c9576153c96152aa565b6153dd816153d7875461522e565b87614ec3565b6000601f82116001811461541157600083156153f95750838201355b600019600385901b1c1916600184901b178755615466565b600087815260209020601f19841690835b8281101561543f5786850135825593880193908a01908801615422565b508482101561545c5760001960f88660031b161c19848701351681555b50508783891b0187555b5050505061547682820182614ce0565b94509250615488848460028801615142565b6154956040820182614ce0565b945092506154a7848460038801615142565b6154b46060820182614ce0565b945092506154c6848460048801615142565b6154d36080820182614ce0565b945092506154e5848460058801615142565b6154f260a0820182614ce0565b945092505050615506828260068601615142565b50506155156040830183614c8f565b61552381836007860161505a565b50506155326060830183614ce0565b612812818360088601615142565b61554a8283614ce0565b67ffffffffffffffff811115615562576155626152aa565b61557681615570855461522e565b85614ec3565b6000601f8211600181146155aa57600083156155925750838201355b600019600385901b1c1916600184901b178555615604565b600085815260209020601f19841690835b828110156155db57868501358255602094850194600190920191016155bb565b50848210156155f85760001960f88660031b161c19848701351681555b505060018360011b0185555b505050506156156020830183614c8f565b615623818360018601614f16565b50506156326040830183614ce0565b615640818360028601615142565b505061564f6060830183614ce0565b612812818360038601615142565b81356156688161582e565b815473ffffffffffffffffffffffffffffffffffffffff19166001600160a01b03821617825550600160208084013582840155600283016156ac6040860186614ce0565b67ffffffffffffffff8111156156c4576156c46152aa565b6156d281615570855461522e565b6000601f82116001811461570657600083156156ee5750838201355b600019600385901b1c1916600184901b17855561575b565b600085815260209020601f19841690835b828110156157345786850135825593880193908901908801615717565b50848210156157515760001960f88660031b161c19848701351681555b50508683881b0185555b505050505050505050565b81356157718161582e565b815473ffffffffffffffffffffffffffffffffffffffff19166001600160a01b03821617825550600180820160206157ab81860186614c8f565b6157b581856152e7565b60009384528284209380805b838110156158225784356001600160e01b0319811681146157e0578384fd5b875463ffffffff600385901b90811b801990921660e09390931c901b1617875593850193600490910190601c82111561581b57958701958291505b87016157c1565b50505050505050505050565b6001600160a01b038116811461070757600080fd5b801515811461070757600080fdfe416464726573733a206c6f772d6c6576656c2064656c65676174652063616c6c206661696c6564a264697066735822122029c468b7b53ce653bd94c58d76212d1ad34aa05ac51c7931cba4484b916ffc0064736f6c6343000806003360a06040523060601b60805234801561001757600080fd5b50600054600160a81b900460ff168061003a5750600054600160a01b900460ff16155b6100a15760405162461bcd60e51b815260206004820152602e60248201527f496e697469616c697a61626c653a20636f6e747261637420697320616c72656160448201526d191e481a5b9a5d1a585b1a5e995960921b606482015260840160405180910390fd5b600054600160a81b900460ff161580156100cb576000805461ffff60a01b191661010160a01b1790555b80156100df576000805460ff60a81b191690555b5060805160601c6119e7610113600039600081816101ed0152818161028801528181610390015261042601526119e76000f3fe60806040526004361061007f5760003560e01c8063bfe07da61161004e578063bfe07da61461016f578063c4d66de814610182578063d57b2826146101a2578063e3d670d7146101c257600080fd5b8063206b60f9146100c05780633659cfe6146101065780634f1ef28614610128578063b908afa81461013b57600080fd5b366100bb5760405134815233907f05e3a6f227520ac02b0bc672aba24f432d28e54438fdd10676ed47a34ac619e39060200160405180910390a2005b600080fd5b3480156100cc57600080fd5b506100f47f8502233096d909befbda0999bb8ea2f3a6be3c138b9fbf003752a4c8bce86f6c81565b60405190815260200160405180910390f35b34801561011257600080fd5b5061012661012136600461165f565b6101e2565b005b6101266101363660046116ef565b610385565b34801561014757600080fd5b506100f47f88aa719609f728b0c5e7fb8dd3608d5c25d497efbb3b9dd64e9251ebba10150881565b61012661017d3660046117b3565b610514565b34801561018e57600080fd5b5061012661019d36600461165f565b610526565b3480156101ae57600080fd5b506101266101bd36600461167c565b61068d565b3480156101ce57600080fd5b506100f46101dd36600461165f565b610977565b306001600160a01b037f00000000000000000000000000000000000000000000000000000000000000001614156102865760405162461bcd60e51b815260206004820152602c60248201527f46756e6374696f6e206d7573742062652063616c6c6564207468726f7567682060448201527f64656c656761746563616c6c000000000000000000000000000000000000000060648201526084015b60405180910390fd5b7f00000000000000000000000000000000000000000000000000000000000000006001600160a01b03166102e17f360894a13ba1a3210667c828492db98dca3e2076cc3735a920a3ca505d382bbc546001600160a01b031690565b6001600160a01b03161461035d5760405162461bcd60e51b815260206004820152602c60248201527f46756e6374696f6e206d7573742062652063616c6c6564207468726f7567682060448201527f6163746976652070726f78790000000000000000000000000000000000000000606482015260840161027d565b61036681610a24565b6040805160008082526020820190925261038291839190610b34565b50565b306001600160a01b037f00000000000000000000000000000000000000000000000000000000000000001614156104245760405162461bcd60e51b815260206004820152602c60248201527f46756e6374696f6e206d7573742062652063616c6c6564207468726f7567682060448201527f64656c656761746563616c6c0000000000000000000000000000000000000000606482015260840161027d565b7f00000000000000000000000000000000000000000000000000000000000000006001600160a01b031661047f7f360894a13ba1a3210667c828492db98dca3e2076cc3735a920a3ca505d382bbc546001600160a01b031690565b6001600160a01b0316146104fb5760405162461bcd60e51b815260206004820152602c60248201527f46756e6374696f6e206d7573742062652063616c6c6564207468726f7567682060448201527f6163746976652070726f78790000000000000000000000000000000000000000606482015260840161027d565b61050482610a24565b61051082826001610b34565b5050565b61052084848484610cf8565b50505050565b600054600160a81b900460ff1680610559575060005474010000000000000000000000000000000000000000900460ff16155b6105cb5760405162461bcd60e51b815260206004820152602e60248201527f496e697469616c697a61626c653a20636f6e747261637420697320616c72656160448201527f647920696e697469616c697a6564000000000000000000000000000000000000606482015260840161027d565b600054600160a81b900460ff1615801561062057600080547fffffffffffffffffffff0000ffffffffffffffffffffffffffffffffffffffff1675010100000000000000000000000000000000000000001790555b600080547fffffffffffffffffffffffff0000000000000000000000000000000000000000166001600160a01b03841617905561065b610e1d565b801561051057600080547fffffffffffffffffffff00ffffffffffffffffffffffffffffffffffffffffff1690555050565b600260015414156106e05760405162461bcd60e51b815260206004820152601f60248201527f5265656e7472616e637947756172643a207265656e7472616e742063616c6c00604482015260640161027d565b6002600155600080546040517ffdef91060000000000000000000000000000000000000000000000000000000081527f8502233096d909befbda0999bb8ea2f3a6be3c138b9fbf003752a4c8bce86f6c926001600160a01b039092169163fdef910691610757913091339187913690600401611891565b602060405180830381600087803b15801561077157600080fd5b505af1158015610785573d6000803e3d6000fd5b505050506040513d601f19601f820116820180604052508101906107a9919061180f565b6107f55760405162461bcd60e51b815260206004820152600b60248201527f617574683a20636865636b000000000000000000000000000000000000000000604482015260640161027d565b60408051808201909152601981527f5641554c545f5452414e534645525f56414c55455f5a45524f000000000000006020820152846108475760405162461bcd60e51b815260040161027d91906118c4565b506001600160a01b038616610908576000856001600160a01b03168560405160006040518083038185875af1925050503d80600081146108a3576040519150601f19603f3d011682016040523d82523d6000602084013e6108a8565b606091505b50509050806040518060400160405280601381526020017f5641554c545f53454e445f524556455254454400000000000000000000000000815250906109015760405162461bcd60e51b815260040161027d91906118c4565b505061091c565b61091c6001600160a01b0387168686610f50565b846001600160a01b0316866001600160a01b03167f17d2993561f784354739cb5cc59cf0c78b661010ddd8d319a416bc7d08b8f205868686604051610963939291906118f7565b60405180910390a350506001805550505050565b60006001600160a01b03821661098e575047919050565b6040517f70a082310000000000000000000000000000000000000000000000000000000081523060048201526001600160a01b038316906370a082319060240160206040518083038186803b1580156109e657600080fd5b505afa1580156109fa573d6000803e3d6000fd5b505050506040513d601f19601f82011682018060405250810190610a1e9190611831565b92915050565b600080546040517ffdef91060000000000000000000000000000000000000000000000000000000081527f88aa719609f728b0c5e7fb8dd3608d5c25d497efbb3b9dd64e9251ebba101508926001600160a01b039092169163fdef910691610a96913091339187913690600401611891565b602060405180830381600087803b158015610ab057600080fd5b505af1158015610ac4573d6000803e3d6000fd5b505050506040513d601f19601f82011682018060405250810190610ae8919061180f565b6105105760405162461bcd60e51b815260206004820152600b60248201527f617574683a20636865636b000000000000000000000000000000000000000000604482015260640161027d565b6000610b677f360894a13ba1a3210667c828492db98dca3e2076cc3735a920a3ca505d382bbc546001600160a01b031690565b9050610b7284610ffe565b600083511180610b7f5750815b15610b9057610b8e84846110cb565b505b7f4910fdfa16fed3260ed0e7147f7cc6da11a60208b5b9406d12a635614ffd9143805460ff16610cf157805460ff191660011781556040516001600160a01b0383166024820152610c3d90869060440160408051601f198184030181529190526020810180517bffffffffffffffffffffffffffffffffffffffffffffffffffffffff167f3659cfe6000000000000000000000000000000000000000000000000000000001790526110cb565b50805460ff191681557f360894a13ba1a3210667c828492db98dca3e2076cc3735a920a3ca505d382bbc546001600160a01b03838116911614610ce85760405162461bcd60e51b815260206004820152602f60248201527f45524331393637557067726164653a207570677261646520627265616b73206660448201527f7572746865722075706772616465730000000000000000000000000000000000606482015260840161027d565b610cf1856110f7565b5050505050565b60408051808201909152601881527f5641554c545f4445504f5349545f56414c55455f5a45524f0000000000000000602082015283610d4a5760405162461bcd60e51b815260040161027d91906118c4565b506001600160a01b038416610db35760408051808201909152601481527f5641554c545f56414c55455f4d49534d415443480000000000000000000000006020820152348414610dad5760405162461bcd60e51b815260040161027d91906118c4565b50610dc8565b610dc86001600160a01b038516333086611137565b336001600160a01b0316846001600160a01b03167fe8774b48760b6f344aa41c1034a142c87daf47f915174d6621495d20fd2b7e9e858585604051610e0f939291906118f7565b60405180910390a350505050565b600054600160a81b900460ff1680610e50575060005474010000000000000000000000000000000000000000900460ff16155b610ec25760405162461bcd60e51b815260206004820152602e60248201527f496e697469616c697a61626c653a20636f6e747261637420697320616c72656160448201527f647920696e697469616c697a6564000000000000000000000000000000000000606482015260840161027d565b600054600160a81b900460ff16158015610f1757600080547fffffffffffffffffffff0000ffffffffffffffffffffffffffffffffffffffff1675010100000000000000000000000000000000000000001790555b610f1f611188565b801561038257600080547fffffffffffffffffffff00ffffffffffffffffffffffffffffffffffffffffff16905550565b6040516001600160a01b038316602482015260448101829052610ff99084907fa9059cbb00000000000000000000000000000000000000000000000000000000906064015b60408051601f198184030181529190526020810180517bffffffffffffffffffffffffffffffffffffffffffffffffffffffff167fffffffff00000000000000000000000000000000000000000000000000000000909316929092179091526112b7565b505050565b803b6110725760405162461bcd60e51b815260206004820152602d60248201527f455243313936373a206e657720696d706c656d656e746174696f6e206973206e60448201527f6f74206120636f6e747261637400000000000000000000000000000000000000606482015260840161027d565b7f360894a13ba1a3210667c828492db98dca3e2076cc3735a920a3ca505d382bbc80547fffffffffffffffffffffffff0000000000000000000000000000000000000000166001600160a01b0392909216919091179055565b60606110f0838360405180606001604052806027815260200161198b6027913961139c565b9392505050565b61110081610ffe565b6040516001600160a01b038216907fbc7cd75a20ee27fd9adebab32041f755214dbc6bffa90cc0225b39da2e5c2d3b90600090a250565b6040516001600160a01b03808516602483015283166044820152606481018290526105209085907f23b872dd0000000000000000000000000000000000000000000000000000000090608401610f95565b600054600160a81b900460ff16806111bb575060005474010000000000000000000000000000000000000000900460ff16155b61122d5760405162461bcd60e51b815260206004820152602e60248201527f496e697469616c697a61626c653a20636f6e747261637420697320616c72656160448201527f647920696e697469616c697a6564000000000000000000000000000000000000606482015260840161027d565b600054600160a81b900460ff1615801561128257600080547fffffffffffffffffffff0000ffffffffffffffffffffffffffffffffffffffff1675010100000000000000000000000000000000000000001790555b60018055801561038257600080547fffffffffffffffffffff00ffffffffffffffffffffffffffffffffffffffffff16905550565b600061130c826040518060400160405280602081526020017f5361666545524332303a206c6f772d6c6576656c2063616c6c206661696c6564815250856001600160a01b03166114879092919063ffffffff16565b805190915015610ff9578080602001905181019061132a919061180f565b610ff95760405162461bcd60e51b815260206004820152602a60248201527f5361666545524332303a204552433230206f7065726174696f6e20646964206e60448201527f6f74207375636365656400000000000000000000000000000000000000000000606482015260840161027d565b6060833b6114125760405162461bcd60e51b815260206004820152602660248201527f416464726573733a2064656c65676174652063616c6c20746f206e6f6e2d636f60448201527f6e74726163740000000000000000000000000000000000000000000000000000606482015260840161027d565b600080856001600160a01b03168560405161142d9190611875565b600060405180830381855af49150503d8060008114611468576040519150601f19603f3d011682016040523d82523d6000602084013e61146d565b606091505b509150915061147d82828661149e565b9695505050505050565b606061149684846000856114d7565b949350505050565b606083156114ad5750816110f0565b8251156114bd5782518084602001fd5b8160405162461bcd60e51b815260040161027d91906118c4565b60608247101561154f5760405162461bcd60e51b815260206004820152602660248201527f416464726573733a20696e73756666696369656e742062616c616e636520666f60448201527f722063616c6c0000000000000000000000000000000000000000000000000000606482015260840161027d565b843b61159d5760405162461bcd60e51b815260206004820152601d60248201527f416464726573733a2063616c6c20746f206e6f6e2d636f6e7472616374000000604482015260640161027d565b600080866001600160a01b031685876040516115b99190611875565b60006040518083038185875af1925050503d80600081146115f6576040519150601f19603f3d011682016040523d82523d6000602084013e6115fb565b606091505b509150915061160b82828661149e565b979650505050505050565b60008083601f84011261162857600080fd5b50813567ffffffffffffffff81111561164057600080fd5b60208301915083602082850101111561165857600080fd5b9250929050565b60006020828403121561167157600080fd5b81356110f081611975565b60008060008060006080868803121561169457600080fd5b853561169f81611975565b945060208601356116af81611975565b935060408601359250606086013567ffffffffffffffff8111156116d257600080fd5b6116de88828901611616565b969995985093965092949392505050565b6000806040838503121561170257600080fd5b823561170d81611975565b9150602083013567ffffffffffffffff8082111561172a57600080fd5b818501915085601f83011261173e57600080fd5b81358181111561175057611750611946565b604051601f8201601f19908116603f0116810190838211818310171561177857611778611946565b8160405282815288602084870101111561179157600080fd5b8260208601602083013760006020848301015280955050505050509250929050565b600080600080606085870312156117c957600080fd5b84356117d481611975565b935060208501359250604085013567ffffffffffffffff8111156117f757600080fd5b61180387828801611616565b95989497509550505050565b60006020828403121561182157600080fd5b815180151581146110f057600080fd5b60006020828403121561184357600080fd5b5051919050565b818352818160208501375060006020828401015260006020601f19601f840116840101905092915050565b6000825161188781846020870161191a565b9190910192915050565b60006001600160a01b0380881683528087166020840152508460408301526080606083015261160b60808301848661184a565b60208152600082518060208401526118e381604085016020870161191a565b601f01601f19169190910160400192915050565b83815260406020820152600061191160408301848661184a565b95945050505050565b60005b8381101561193557818101518382015260200161191d565b838111156105205750506000910152565b7f4e487b7100000000000000000000000000000000000000000000000000000000600052604160045260246000fd5b6001600160a01b038116811461038257600080fdfe416464726573733a206c6f772d6c6576656c2064656c65676174652063616c6c206661696c6564a26469706673582212201f3ca7c7b1303a03f8b7b8954db0860cacf6571ec9ca560390efb2742ba8d64d64736f6c6343000806003360a06040523060601b6080523480156200001857600080fd5b50600054610100900460ff168062000033575060005460ff16155b6200009b5760405162461bcd60e51b815260206004820152602e60248201527f496e697469616c697a61626c653a20636f6e747261637420697320616c72656160448201526d191e481a5b9a5d1a585b1a5e995960921b606482015260840160405180910390fd5b600054610100900460ff16158015620000be576000805461ffff19166101011790555b8015620000d1576000805461ff00191690555b5060805160601c6134ee620001066000396000818161096b01528181610a0101528181610d190152610daf01526134ee6000f3fe60806040526004361061018b5760003560e01c80637e8c7f08116100d6578063c34c08e51161007f578063d96054c411610059578063d96054c414610497578063ee57e36f146104b7578063fdef9106146104d757600080fd5b8063c34c08e514610437578063ce43e4e014610457578063d68bad2c1461047757600080fd5b8063b6989ca3116100b0578063b6989ca3146103c3578063b908afa8146103e3578063c032dc301461041757600080fd5b80637e8c7f0814610350578063ab8c71c01461036b578063aedfd0b5146103a357600080fd5b806346b2057511610138578063628bb47811610112578063628bb478146102be578063721da993146102ee57806375cbdae01461030e57600080fd5b806346b205751461026b5780634a12e2531461028b5780634f1ef286146102ab57600080fd5b80632c6f5f21116101695780632c6f5f21146101f25780633659cfe614610229578063392f37e91461024957600080fd5b806310ad3f1f146101905780631c3c0ea8146101b257806327da6af6146101d2575b600080fd5b34801561019c57600080fd5b506101b06101ab366004612685565b6104f7565b005b3480156101be57600080fd5b506101b06101cd366004612372565b61061f565b3480156101de57600080fd5b506101b06101ed36600461248f565b6106ed565b3480156101fe57600080fd5b5061021261020d366004612986565b6108ae565b604051610220929190612f4b565b60405180910390f35b34801561023557600080fd5b506101b0610244366004612372565b610960565b34801561025557600080fd5b5061025e610afe565b6040516102209190612cb4565b34801561027757600080fd5b506101b06102863660046126f5565b610b8c565b34801561029757600080fd5b506101b06102a6366004612517565b610c76565b6101b06102b9366004612543565b610d0e565b3480156102ca57600080fd5b506102de6102d9366004612517565b610e9d565b6040519015158152602001610220565b3480156102fa57600080fd5b506102de6103093660046125b5565b610f19565b34801561031a57600080fd5b506103427f466230b035c70053998e360e86a09ba59f811196ebb74997ff428492b8ca150b81565b604051908152602001610220565b34801561035c57600080fd5b50610342636223714d60e01b81565b34801561037757600080fd5b5060055461038b906001600160a01b031681565b6040516001600160a01b039091168152602001610220565b3480156103af57600080fd5b5060045461038b906001600160a01b031681565b3480156103cf57600080fd5b506101b06103de3660046125f7565b610fbc565b3480156103ef57600080fd5b506103427f88aa719609f728b0c5e7fb8dd3608d5c25d497efbb3b9dd64e9251ebba10150881565b34801561042357600080fd5b506101b06104323660046129bb565b611110565b34801561044357600080fd5b5060065461038b906001600160a01b031681565b34801561046357600080fd5b506101b061047236600461243c565b61117f565b34801561048357600080fd5b506101b061049236600461238f565b611213565b3480156104a357600080fd5b506101b06104b236600461238f565b6112ad565b3480156104c357600080fd5b506101b06104d23660046125b5565b611340565b3480156104e357600080fd5b506102de6104f23660046123d0565b61141c565b7f466230b035c70053998e360e86a09ba59f811196ebb74997ff428492b8ca150b61055b3033836000368080601f01602080910402602001604051908101604052809392919081815260200183838082843760009201919091525061143592505050565b61059a5760405162461bcd60e51b815260206004820152600b60248201526a617574683a20636865636b60a81b60448201526064015b60405180910390fd5b6005546040517fa4e479f50000000000000000000000000000000000000000000000000000000081526001600160a01b039091169063a4e479f5906105e790879087908790600401612cc7565b600060405180830381600087803b15801561060157600080fd5b505af1158015610615573d6000803e3d6000fd5b5050505050505050565b7f466230b035c70053998e360e86a09ba59f811196ebb74997ff428492b8ca150b6106833033836000368080601f01602080910402602001604051908101604052809392919081815260200183838082843760009201919091525061143592505050565b6106bd5760405162461bcd60e51b815260206004820152600b60248201526a617574683a20636865636b60a81b6044820152606401610591565b506006805473ffffffffffffffffffffffffffffffffffffffff19166001600160a01b0392909216919091179055565b60408051602036601f81018290048202830182019093528282528592636223714d60e01b9261073d9285923392869290916000918190840183828082843760009201919091525061143592505050565b6107755760405162461bcd60e51b81526020600482015260096024820152680c2c6d87440c2eae8d60bb1b6044820152606401610591565b60005b838110156108a657600085858381811061079457610794613422565b9050606002018036038101906107aa919061275e565b90506000815160028111156107c1576107c161340c565b14156107fe576107f987826040015183602001517bffffffffffffffffffffffffffffffffffffffffffffffffffffffff1916611475565b610893565b6001815160028111156108135761081361340c565b141561084b576107f987826040015183602001517bffffffffffffffffffffffffffffffffffffffffffffffffffffffff1916611487565b6002815160028111156108605761086061340c565b1415610893576108938782602001517bffffffffffffffffffffffffffffffffffffffffffffffffffffffff191661162c565b508061089e816133c5565b915050610778565b505050505050565b6108b66120ca565b600480546040517f2c6f5f210000000000000000000000000000000000000000000000000000000081526000926001600160a01b0390921691632c6f5f2191610901918791016130a5565b600060405180830381600087803b15801561091b57600080fd5b505af115801561092f573d6000803e3d6000fd5b505050506040513d6000823e601f3d908101601f1916820160405261095791908101906127d4565b91509150915091565b306001600160a01b037f00000000000000000000000000000000000000000000000000000000000000001614156109ff5760405162461bcd60e51b815260206004820152602c60248201527f46756e6374696f6e206d7573742062652063616c6c6564207468726f7567682060448201527f64656c656761746563616c6c00000000000000000000000000000000000000006064820152608401610591565b7f00000000000000000000000000000000000000000000000000000000000000006001600160a01b0316610a5a7f360894a13ba1a3210667c828492db98dca3e2076cc3735a920a3ca505d382bbc546001600160a01b031690565b6001600160a01b031614610ad65760405162461bcd60e51b815260206004820152602c60248201527f46756e6374696f6e206d7573742062652063616c6c6564207468726f7567682060448201527f6163746976652070726f787900000000000000000000000000000000000000006064820152608401610591565b610adf816117f9565b60408051600080825260208201909252610afb918391906118a8565b50565b60038054610b0b90613390565b80601f0160208091040260200160405190810160405280929190818152602001828054610b3790613390565b8015610b845780601f10610b5957610100808354040283529160200191610b84565b820191906000526020600020905b815481529060010190602001808311610b6757829003601f168201915b505050505081565b7f466230b035c70053998e360e86a09ba59f811196ebb74997ff428492b8ca150b610bf03033836000368080601f01602080910402602001604051908101604052809392919081815260200183838082843760009201919091525061143592505050565b610c2a5760405162461bcd60e51b815260206004820152600b60248201526a617574683a20636865636b60a81b6044820152606401610591565b600480546040517f46b205750000000000000000000000000000000000000000000000000000000081526001600160a01b03909116916346b20575916105e79188918891889101612d7b565b60408051602036601f81018290048202830182019093528282528492636223714d60e01b92610cc69285923392869290916000918190840183828082843760009201919091525061143592505050565b610cfe5760405162461bcd60e51b81526020600482015260096024820152680c2c6d87440c2eae8d60bb1b6044820152606401610591565b610d08848461162c565b50505050565b306001600160a01b037f0000000000000000000000000000000000000000000000000000000000000000161415610dad5760405162461bcd60e51b815260206004820152602c60248201527f46756e6374696f6e206d7573742062652063616c6c6564207468726f7567682060448201527f64656c656761746563616c6c00000000000000000000000000000000000000006064820152608401610591565b7f00000000000000000000000000000000000000000000000000000000000000006001600160a01b0316610e087f360894a13ba1a3210667c828492db98dca3e2076cc3735a920a3ca505d382bbc546001600160a01b031690565b6001600160a01b031614610e845760405162461bcd60e51b815260206004820152602c60248201527f46756e6374696f6e206d7573742062652063616c6c6564207468726f7567682060448201527f6163746976652070726f787900000000000000000000000000000000000000006064820152608401610591565b610e8d826117f9565b610e99828260016118a8565b5050565b600060026000610efe858560405165465245455a4560d01b60208201526bffffffffffffffffffffffff19606084901b166026820152603a8101829052600090605a0160405160208183030381529060405280519060200120905092915050565b815260208101919091526040016000205460ff169392505050565b6005546040517f721da9930000000000000000000000000000000000000000000000000000000081526000916001600160a01b03169063721da99390610f659086908690600401612ca0565b60206040518083038186803b158015610f7d57600080fd5b505afa158015610f91573d6000803e3d6000fd5b505050506040513d601f19601f82011682018060405250810190610fb59190612593565b9392505050565b600054610100900460ff1680610fd5575060005460ff16155b6110475760405162461bcd60e51b815260206004820152602e60248201527f496e697469616c697a61626c653a20636f6e747261637420697320616c72656160448201527f647920696e697469616c697a65640000000000000000000000000000000000006064820152608401610591565b600054610100900460ff16158015611069576000805461ffff19166101011790555b600480546001600160a01b0380881673ffffffffffffffffffffffffffffffffffffffff19928316179092556005805487841690831617905560068054928616929091169190911790556110bc82611a65565b7fcf7c08ee988afa0cbaf26005358c32ad321ae7b4937294f8735b96849301f56987876040516110ed929190612ca0565b60405180910390a18015611107576000805461ff00191690555b50505050505050565b6040517ffe0d94c1000000000000000000000000000000000000000000000000000000008152600481018390526001600160a01b0382169063fe0d94c190602401600060405180830381600087803b15801561116b57600080fd5b505af11580156108a6573d6000803e3d6000fd5b60408051602036601f81018290048202830182019093528282528692636223714d60e01b926111cf9285923392869290916000918190840183828082843760009201919091525061143592505050565b6112075760405162461bcd60e51b81526020600482015260096024820152680c2c6d87440c2eae8d60bb1b6044820152606401610591565b6108a686868686611b31565b60408051602036601f81018290048202830182019093528282528592636223714d60e01b926112639285923392869290916000918190840183828082843760009201919091525061143592505050565b61129b5760405162461bcd60e51b81526020600482015260096024820152680c2c6d87440c2eae8d60bb1b6044820152606401610591565b6112a6858585611475565b5050505050565b60408051602036601f81018290048202830182019093528282528592636223714d60e01b926112fd9285923392869290916000918190840183828082843760009201919091525061143592505050565b6113355760405162461bcd60e51b81526020600482015260096024820152680c2c6d87440c2eae8d60bb1b6044820152606401610591565b6112a6858585611487565b7f466230b035c70053998e360e86a09ba59f811196ebb74997ff428492b8ca150b6113a43033836000368080601f01602080910402602001604051908101604052809392919081815260200183838082843760009201919091525061143592505050565b6113de5760405162461bcd60e51b815260206004820152600b60248201526a617574683a20636865636b60a81b6044820152606401610591565b7fcf7c08ee988afa0cbaf26005358c32ad321ae7b4937294f8735b96849301f569838360405161140f929190612ca0565b60405180910390a1505050565b600061142a85858585611435565b90505b949350505050565b600061144385858585611ce3565b8061145c575061145c856001600160a01b038585611ce3565b8061142a575061142a6001600160a01b03858585611ce3565b6114828383836002611b31565b505050565b6114918382610e9d565b156114de5760405162461bcd60e51b815260206004820152600b60248201527f61636c3a2066726f7a656e0000000000000000000000000000000000000000006044820152606401610591565b604080517f5045524d495353494f4e000000000000000000000000000000000000000000006020808301919091526bffffffffffffffffffffffff19606086811b8216602a85015287901b16603e830152605280830185905283518084039091018152607290920190925280519101206000906000818152600160205260409020549091506001600160a01b03166115b85760405162461bcd60e51b815260206004820152601960248201527f61636c3a20726f6c6520616c7265616479207265766f6b6564000000000000006044820152606401610591565b600081815260016020908152604091829020805473ffffffffffffffffffffffffffffffffffffffff1916905590516001600160a01b038681168252851691339185917f3ca48185ec3f6e47e24db18b13f1c65b1ce05da1659f9c1c4fe717dda5f67524910160405180910390a450505050565b6116368282610e9d565b156116835760405162461bcd60e51b815260206004820152600b60248201527f61636c3a2066726f7a656e0000000000000000000000000000000000000000006044820152606401610591565b6040805165465245455a4560d01b6020808301919091526bffffffffffffffffffffffff19606086901b166026830152603a80830185905283518084039091018152605a9092018352815191810191909120600081815260029092529190205460ff16156117335760405162461bcd60e51b815260206004820152601860248201527f61636c3a20726f6c6520616c726561647920667265657a6500000000000000006044820152606401610591565b600160026000611794868660405165465245455a4560d01b60208201526bffffffffffffffffffffffff19606084901b166026820152603a8101829052600090605a0160405160208183030381529060405280519060200120905092915050565b81526020808201929092526040908101600020805460ff19169315159390931790925590516001600160a01b0385168152339184917f5bc82808e00f308181e1f2385733b7e64006e784fbe7ed607e74c16580eb6d88910160405180910390a3505050565b61185c30337f88aa719609f728b0c5e7fb8dd3608d5c25d497efbb3b9dd64e9251ebba1015086000368080601f01602080910402602001604051908101604052809392919081815260200183838082843760009201919091525061143592505050565b610afb5760405162461bcd60e51b815260206004820152600a60248201527f617574683a636865636b000000000000000000000000000000000000000000006044820152606401610591565b60006118db7f360894a13ba1a3210667c828492db98dca3e2076cc3735a920a3ca505d382bbc546001600160a01b031690565b90506118e684611e6d565b6000835111806118f35750815b15611904576119028484611f2f565b505b7f4910fdfa16fed3260ed0e7147f7cc6da11a60208b5b9406d12a635614ffd9143805460ff166112a657805460ff191660011781556040516001600160a01b03831660248201526119b190869060440160408051601f198184030181529190526020810180517bffffffffffffffffffffffffffffffffffffffffffffffffffffffff167f3659cfe600000000000000000000000000000000000000000000000000000000179052611f2f565b50805460ff191681557f360894a13ba1a3210667c828492db98dca3e2076cc3735a920a3ca505d382bbc546001600160a01b03838116911614611a5c5760405162461bcd60e51b815260206004820152602f60248201527f45524331393637557067726164653a207570677261646520627265616b73206660448201527f75727468657220757067726164657300000000000000000000000000000000006064820152608401610591565b6112a685611f54565b600054610100900460ff1680611a7e575060005460ff16155b611af05760405162461bcd60e51b815260206004820152602e60248201527f496e697469616c697a61626c653a20636f6e747261637420697320616c72656160448201527f647920696e697469616c697a65640000000000000000000000000000000000006064820152608401610591565b600054610100900460ff16158015611b12576000805461ffff19166101011790555b611b1c3083611f94565b8015610e99576000805461ff00191690555050565b611b3b8483610e9d565b15611b885760405162461bcd60e51b815260206004820152600b60248201527f61636c3a2066726f7a656e0000000000000000000000000000000000000000006044820152606401610591565b604080517f5045524d495353494f4e000000000000000000000000000000000000000000006020808301919091526bffffffffffffffffffffffff19606087811b8216602a85015288901b16603e830152605280830186905283518084039091018152607290920190925280519101206000906000818152600160205260409020549091506001600160a01b031615611c635760405162461bcd60e51b815260206004820152601960248201527f61636c3a20726f6c6520616c7265616479206772616e746564000000000000006044820152606401610591565b600081815260016020908152604091829020805473ffffffffffffffffffffffffffffffffffffffff19166001600160a01b038681169182179092558351898316815292830152861691339186917f0f579ad49235a8c1fd9041427e7067b1eb10926bbed380bf6fabc73e0e807644910160405180910390a45050505050565b60008060016000611d688888886040517f5045524d495353494f4e0000000000000000000000000000000000000000000060208201526bffffffffffffffffffffffff19606084811b8216602a84015285901b16603e820152605281018290526000906072016040516020818303038152906040528051906020012090509392505050565b81526020810191909152604001600020546001600160a01b031690508015611d9457600091505061142d565b6001600160a01b03811660021415611db057600191505061142d565b6040517f013827a30000000000000000000000000000000000000000000000000000000081526001600160a01b0382169063013827a390611dfb908990899089908990600401612c6e565b602060405180830381600087803b158015611e1557600080fd5b505af1925050508015611e45575060408051601f3d908101601f19168201909252611e4291810190612593565b60015b611e4e57611e61565b8015611e5f5760019250505061142d565b505b50600095945050505050565b803b611ee15760405162461bcd60e51b815260206004820152602d60248201527f455243313936373a206e657720696d706c656d656e746174696f6e206973206e60448201527f6f74206120636f6e7472616374000000000000000000000000000000000000006064820152608401610591565b7f360894a13ba1a3210667c828492db98dca3e2076cc3735a920a3ca505d382bbc805473ffffffffffffffffffffffffffffffffffffffff19166001600160a01b0392909216919091179055565b6060610fb5838360405180606001604052806027815260200161349260279139611fa6565b611f5d81611e6d565b6040516001600160a01b038216907fbc7cd75a20ee27fd9adebab32041f755214dbc6bffa90cc0225b39da2e5c2d3b90600090a250565b610e998282636223714d60e01b611475565b6060833b61201c5760405162461bcd60e51b815260206004820152602660248201527f416464726573733a2064656c65676174652063616c6c20746f206e6f6e2d636f60448201527f6e747261637400000000000000000000000000000000000000000000000000006064820152608401610591565b600080856001600160a01b0316856040516120379190612c52565b600060405180830381855af49150503d8060008114612072576040519150601f19603f3d011682016040523d82523d6000602084013e612077565b606091505b5091509150612087828286612091565b9695505050505050565b606083156120a0575081610fb5565b8251156120b05782518084602001fd5b8160405162461bcd60e51b81526004016105919190612cb4565b604051806080016040528060006001600160a01b0316815260200161211e6040518060c001604052806060815260200160608152602001606081526020016060815260200160608152602001606081525090565b815260200160608152602001606081525090565b600082601f83011261214357600080fd5b8151602061215861215383613289565b613258565b80838252828201915082860187848660051b890101111561217857600080fd5b60005b8581101561226e57815167ffffffffffffffff8082111561219b57600080fd5b818a019150604080601f19848e030112156121b557600080fd5b6121bd6131e9565b888401516121ca8161344e565b815283820151838111156121dd57600080fd5b8085019450508c603f8501126121f257600080fd5b88840151925061220461215384613289565b808482528a820191508386018f858760051b890101111561222457600080fd5b600096505b85871015612253578051945061223e85613463565b84835260019690960195918b01918b01612229565b50828b0152508752505050928401929084019060010161217b565b5090979650505050505050565b60008083601f84011261228d57600080fd5b50813567ffffffffffffffff8111156122a557600080fd5b6020830191508360208285010111156122bd57600080fd5b9250929050565b600082601f8301126122d557600080fd5b81356122e3612153826132ad565b8181528460208386010111156122f857600080fd5b816020850160208301376000918101602001919091529392505050565b600082601f83011261232657600080fd5b8151612334612153826132ad565b81815284602083860101111561234957600080fd5b61142d826020830160208701613364565b60006080828403121561236c57600080fd5b50919050565b60006020828403121561238457600080fd5b8135610fb58161344e565b6000806000606084860312156123a457600080fd5b83356123af8161344e565b925060208401356123bf8161344e565b929592945050506040919091013590565b600080600080608085870312156123e657600080fd5b84356123f18161344e565b935060208501356124018161344e565b925060408501359150606085013567ffffffffffffffff81111561242457600080fd5b612430878288016122c4565b91505092959194509250565b6000806000806080858703121561245257600080fd5b843561245d8161344e565b9350602085013561246d8161344e565b92506040850135915060608501356124848161344e565b939692955090935050565b6000806000604084860312156124a457600080fd5b83356124af8161344e565b9250602084013567ffffffffffffffff808211156124cc57600080fd5b818601915086601f8301126124e057600080fd5b8135818111156124ef57600080fd5b87602060608302850101111561250457600080fd5b6020830194508093505050509250925092565b6000806040838503121561252a57600080fd5b82356125358161344e565b946020939093013593505050565b6000806040838503121561255657600080fd5b82356125618161344e565b9150602083013567ffffffffffffffff81111561257d57600080fd5b612589858286016122c4565b9150509250929050565b6000602082840312156125a557600080fd5b81518015158114610fb557600080fd5b600080602083850312156125c857600080fd5b823567ffffffffffffffff8111156125df57600080fd5b6125eb8582860161227b565b90969095509350505050565b60008060008060008060a0878903121561261057600080fd5b863567ffffffffffffffff81111561262757600080fd5b61263389828a0161227b565b90975095505060208701356126478161344e565b935060408701356126578161344e565b925060608701356126678161344e565b915060808701356126778161344e565b809150509295509295509295565b60008060006040848603121561269a57600080fd5b833567ffffffffffffffff808211156126b257600080fd5b6126be8783880161227b565b909550935060208601359150808211156126d757600080fd5b508401606081870312156126ea57600080fd5b809150509250925092565b60008060006040848603121561270a57600080fd5b833567ffffffffffffffff8082111561272257600080fd5b61272e8783880161227b565b9095509350602086013591508082111561274757600080fd5b506127548682870161235a565b9150509250925092565b60006060828403121561277057600080fd5b6040516060810181811067ffffffffffffffff8211171561279357612793613438565b6040528235600381106127a557600080fd5b815260208301356127b581613463565b602082015260408301356127c88161344e565b60408201529392505050565b600080604083850312156127e757600080fd5b825167ffffffffffffffff808211156127ff57600080fd5b908401906080828703121561281357600080fd5b61281b613212565b82516128268161344e565b815260208301518281111561283a57600080fd5b830160c0818903121561284c57600080fd5b612854613235565b81518481111561286357600080fd5b61286f8a828501612315565b82525060208201518481111561288457600080fd5b6128908a828501612315565b6020830152506040820151848111156128a857600080fd5b6128b48a828501612315565b6040830152506060820151848111156128cc57600080fd5b6128d88a828501612315565b6060830152506080820151848111156128f057600080fd5b6128fc8a828501612315565b60808301525060a08201518481111561291457600080fd5b6129208a828501612315565b60a08301525060208301525060408301518281111561293e57600080fd5b61294a88828601612132565b60408301525060608301518281111561296257600080fd5b61296e88828601612315565b60608301525060209590950151949694955050505050565b60006020828403121561299857600080fd5b813567ffffffffffffffff8111156129af57600080fd5b61142d8482850161235a565b600080604083850312156129ce57600080fd5b8235915060208301356129e08161344e565b809150509250929050565b81835260006020808501808196508560051b810191508460005b87811015612a3b578284038952612a1c828861331e565b612a27868284612bfb565b9a87019a9550505090840190600101612a05565b5091979650505050505050565b81835260006020808501808196508560051b810191508460005b87811015612a3b57828403895281357fffffffffffffffffffffffffffffffffffffffffffffffffffffffffffffffc1883603018112612aa157600080fd5b870160408581018235612ab38161344e565b6001600160a01b03168752612aca838901846132d5565b888a019390935290829052909150606086019060005b83811015612b27578135612af381613463565b7fffffffff000000000000000000000000000000000000000000000000000000001683529188019190880190600101612ae0565b50509986019994505090840190600101612a62565b600081518084526020808501808196508360051b810191508286016000805b86811015612bed578385038a52825180516001600160a01b031686528601516040878701819052815190870181905290870190606087019084905b80821015612bd85783517fffffffff00000000000000000000000000000000000000000000000000000000168352928901929189019160019190910190612b96565b50509a87019a95505091850191600101612b5b565b509298975050505050505050565b818352818160208501375060006020828401015260006020601f19601f840116840101905092915050565b60008151808452612c3e816020860160208601613364565b601f01601f19169290920160200192915050565b60008251612c64818460208701613364565b9190910192915050565b60006001600160a01b038087168352808616602084015250836040830152608060608301526120876080830184612c26565b60208152600061142d602083018486612bfb565b602081526000610fb56020830184612c26565b604081526000612cdb604083018587612bfb565b60208382038185015260608201853560048110612cf757600080fd5b8352612d05868301876132d5565b6060858501529182905290600090608085015b81831015612d48578335612d2b8161344e565b6001600160a01b0316815292840192600192909201918401612d18565b612d5560408a018a6132d5565b955093508581036040870152612d6c8186866129eb565b9b9a5050505050505050505050565b604081526000612d8f604083018587612bfb565b82810360208401528335612da28161344e565b6001600160a01b031681526020840135368590037fffffffffffffffffffffffffffffffffffffffffffffffffffffffffffffff41018112612de357600080fd5b608060208301528401612df6818061331e565b60c06080850152612e0c61014085018284612bfb565b915050612e1c602083018361331e565b7fffffffffffffffffffffffffffffffffffffffffffffffffffffffffffffff80808685030160a0870152612e52848385612bfb565b9350612e61604086018661331e565b93509150808685030160c0870152612e7a848484612bfb565b9350612e89606086018661331e565b93509150808685030160e0870152612ea2848484612bfb565b9350612eb1608086018661331e565b935091508086850301610100870152612ecb848484612bfb565b9350612eda60a086018661331e565b9550925080868503016101208701525050612ef6828483612bfb565b92505050612f0760408601866132d5565b8383036040850152612f1a838284612a48565b92505050612f2b606086018661331e565b8383036060850152612f3e838284612bfb565b9998505050505050505050565b604081526001600160a01b0383511660408201526000602084015160806060840152805160c080850152612f83610180850182612c26565b905060208201517fffffffffffffffffffffffffffffffffffffffffffffffffffffffffffffff40808684030160e0870152612fbf8383612c26565b9250604084015191508086840301610100870152612fdd8383612c26565b9250606084015191508086840301610120870152612ffb8383612c26565b92506080840151915080868403016101408701526130198383612c26565b925060a08401519350808684030161016087015250506130398183612c26565b91505060408501517fffffffffffffffffffffffffffffffffffffffffffffffffffffffffffffffc0808584030160808601526130768383612b3c565b925060608701519150808584030160a0860152506130948282612c26565b925050508260208301529392505050565b600060208083526130b6848561331e565b6080838601526130ca60a086018284612bfb565b9150506130d9828601866132d5565b601f196040818886030181890152848386528686019050868460051b870101856000805b8781101561319457868a850301855282357fffffffffffffffffffffffffffffffffffffffffffffffffffffffffffffffa18a360301811261313d578283fd5b89016060813561314c8161344e565b6001600160a01b03168652818d01358d87015261316b8883018361331e565b9250818988015261317f8288018483612bfb565b978e019796505050928b0192506001016130fd565b5050506131a3838c018c61331e565b98509650838a82030160608b01526131bc818989612bfb565b97505050506131ce606089018961331e565b94509250808786030160808801525050612087838383612bfb565b6040805190810167ffffffffffffffff8111828210171561320c5761320c613438565b60405290565b6040516080810167ffffffffffffffff8111828210171561320c5761320c613438565b60405160c0810167ffffffffffffffff8111828210171561320c5761320c613438565b604051601f8201601f1916810167ffffffffffffffff8111828210171561328157613281613438565b604052919050565b600067ffffffffffffffff8211156132a3576132a3613438565b5060051b60200190565b600067ffffffffffffffff8211156132c7576132c7613438565b50601f01601f191660200190565b6000808335601e198436030181126132ec57600080fd5b830160208101925035905067ffffffffffffffff81111561330c57600080fd5b8060051b36038313156122bd57600080fd5b6000808335601e1984360301811261333557600080fd5b830160208101925035905067ffffffffffffffff81111561335557600080fd5b8036038313156122bd57600080fd5b60005b8381101561337f578181015183820152602001613367565b83811115610d085750506000910152565b600181811c908216806133a457607f821691505b6020821081141561236c57634e487b7160e01b600052602260045260246000fd5b60007fffffffffffffffffffffffffffffffffffffffffffffffffffffffffffffffff82141561340557634e487b7160e01b600052601160045260246000fd5b5060010190565b634e487b7160e01b600052602160045260246000fd5b634e487b7160e01b600052603260045260246000fd5b634e487b7160e01b600052604160045260246000fd5b6001600160a01b0381168114610afb57600080fd5b7fffffffff0000000000000000000000000000000000000000000000000000000081168114610afb57600080fdfe416464726573733a206c6f772d6c6576656c2064656c65676174652063616c6c206661696c6564a26469706673582212202b1c4c424311d30bda18bc49d6ff73aa43c5b46d792f2f498f157da213a3a78564736f6c63430008060033",
  "devdoc": {
    "kind": "dev",
    "methods": {},
    "version": 1
  },
  "userdoc": {
    "kind": "user",
    "methods": {},
    "version": 1
  },
  "storageLayout": {
    "storage": [],
    "types": null
  }
}