{
  "address": "0x99AA93f7c882937849dDf31BBeCF8Bc1c7CF3192",
  "abi": [
    {
      "anonymous": false,
      "inputs": [
        {
          "indexed": true,
          "internalType": "string",
          "name": "name",
          "type": "string"
        },
        {
          "indexed": true,
          "internalType": "address",
          "name": "creator",
          "type": "address"
        },
        {
          "indexed": true,
          "internalType": "contract DAO",
          "name": "dao",
          "type": "address"
        },
        {
          "indexed": false,
          "internalType": "address",
          "name": "token",
          "type": "address"
        },
        {
          "indexed": false,
          "internalType": "contract VotingGovernancePrimitive",
          "name": "voting",
          "type": "address"
        },
        {
          "indexed": false,
          "internalType": "contract Vault",
          "name": "vault",
          "type": "address"
        },
        {
          "indexed": false,
          "internalType": "contract Executor",
          "name": "executor",
          "type": "address"
        },
        {
          "indexed": false,
          "internalType": "contract Processes",
          "name": "processes",
          "type": "address"
        },
        {
          "indexed": false,
          "internalType": "contract Permissions",
          "name": "permissions",
          "type": "address"
        }
      ],
      "name": "NewDAO",
      "type": "event"
    },
    {
      "inputs": [
        {
          "internalType": "string",
          "name": "",
          "type": "string"
        }
      ],
      "name": "daos",
      "outputs": [
        {
          "internalType": "contract DAO",
          "name": "",
          "type": "address"
        }
      ],
      "stateMutability": "view",
      "type": "function"
    },
    {
      "inputs": [
        {
          "internalType": "string",
          "name": "name",
          "type": "string"
        },
        {
          "internalType": "address",
          "name": "sender",
          "type": "address"
        },
        {
          "internalType": "contract DAO",
          "name": "dao",
          "type": "address"
        },
        {
          "internalType": "address",
          "name": "token",
          "type": "address"
        },
        {
          "internalType": "contract VotingGovernancePrimitive",
          "name": "voting",
          "type": "address"
        },
        {
          "internalType": "contract Vault",
          "name": "vault",
          "type": "address"
        },
        {
          "internalType": "contract Executor",
          "name": "executor",
          "type": "address"
        },
        {
          "internalType": "contract Processes",
          "name": "processes",
          "type": "address"
        },
        {
          "internalType": "contract Permissions",
          "name": "permissions",
          "type": "address"
        }
      ],
      "name": "register",
      "outputs": [],
      "stateMutability": "nonpayable",
      "type": "function"
    }
  ],
  "transactionHash": "0xe299fd95977519f2db28dd47685db481653710e704b50ec3570ea0bb2319f761",
  "args": [],
  "solcInputHash": "effbbd7e948d8c3899cd75bca837788f",
  "bytecode": "0x608060405234801561001057600080fd5b506104d5806100206000396000f3fe608060405234801561001057600080fd5b50600436106100365760003560e01c8063bc7736aa1461003b578063e12ea8ba14610050575b600080fd5b61004e61004936600461029a565b6100ba565b005b61009161005e366004610391565b805160208183018101805160008252928201919093012091525473ffffffffffffffffffffffffffffffffffffffff1681565b60405173ffffffffffffffffffffffffffffffffffffffff909116815260200160405180910390f35b600073ffffffffffffffffffffffffffffffffffffffff1660008b8b6040516100e4929190610460565b9081526040519081900360200190205473ffffffffffffffffffffffffffffffffffffffff1614610175576040517f08c379a000000000000000000000000000000000000000000000000000000000815260206004820152600b60248201527f4e616d6520696e20757365000000000000000000000000000000000000000000604482015260640160405180910390fd5b8660008b8b604051610188929190610460565b908152604051908190036020018120805473ffffffffffffffffffffffffffffffffffffffff9384167fffffffffffffffffffffffff0000000000000000000000000000000000000000909116179055888216918a16906101ec908d908d90610460565b6040805191829003822073ffffffffffffffffffffffffffffffffffffffff8b811684528a811660208501528981168484015288811660608501528781166080850152861660a0840152905190917fa92063028192a640657de2c3fa23ba7bc9ae51959669e5c34f5e666057405762919081900360c00190a450505050505050505050565b803573ffffffffffffffffffffffffffffffffffffffff8116811461029557600080fd5b919050565b6000806000806000806000806000806101208b8d0312156102ba57600080fd5b8a3567ffffffffffffffff808211156102d257600080fd5b818d0191508d601f8301126102e657600080fd5b8135818111156102f557600080fd5b8e602082850101111561030757600080fd5b60209283019c509a5061031d918d019050610271565b975061032b60408c01610271565b965061033960608c01610271565b955061034760808c01610271565b945061035560a08c01610271565b935061036360c08c01610271565b925061037160e08c01610271565b91506103806101008c01610271565b90509295989b9194979a5092959850565b6000602082840312156103a357600080fd5b813567ffffffffffffffff808211156103bb57600080fd5b818401915084601f8301126103cf57600080fd5b8135818111156103e1576103e1610470565b604051601f82017fffffffffffffffffffffffffffffffffffffffffffffffffffffffffffffffe0908116603f0116810190838211818310171561042757610427610470565b8160405282815287602084870101111561044057600080fd5b826020860160208301376000928101602001929092525095945050505050565b8183823760009101908152919050565b7f4e487b7100000000000000000000000000000000000000000000000000000000600052604160045260246000fdfea264697066735822122034f8fc38ec3c90a3e14e94f9944132a6cdf9613ab138b0cf6d53d05d9cfa3b2264736f6c63430008060033",
  "devdoc": {
    "author": "Samuel Furter - Aragon Association - 2021",
    "kind": "dev",
    "methods": {
      "register(string,address,address,address,address,address,address,address,address)": {
        "details": "A name is unique within the Aragon DAO framework and can get stored here",
        "params": {
          "dao": "The address of the DAO contract",
          "name": "The name of the DAO"
        }
      }
    },
    "title": "Register your unique DAO name",
    "version": 1
  },
  "userdoc": {
    "kind": "user",
    "methods": {
      "register(string,address,address,address,address,address,address,address,address)": {
        "notice": "Registers a DAO by his name"
      }
    },
    "notice": "This contract provides the possiblity to register a DAO by a unique name.",
    "version": 1
  },
  "storageLayout": {
    "storage": [
      {
        "astId": 11704,
        "contract": "contracts/src/registry/Registry.sol:Registry",
        "label": "daos",
        "offset": 0,
        "slot": "0",
        "type": "t_mapping(t_string_memory_ptr,t_contract(DAO)9399)"
      }
    ],
    "types": {
      "t_contract(DAO)9399": {
        "encoding": "inplace",
        "label": "contract DAO",
        "numberOfBytes": "20"
      },
      "t_mapping(t_string_memory_ptr,t_contract(DAO)9399)": {
        "encoding": "mapping",
        "key": "t_string_memory_ptr",
        "label": "mapping(string => contract DAO)",
        "numberOfBytes": "32",
        "value": "t_contract(DAO)9399"
      },
      "t_string_memory_ptr": {
        "encoding": "bytes",
        "label": "string",
        "numberOfBytes": "32"
      }
    }
  }
}