{
  "address": "0xa9fC75feC2171160e64DBfF195A82460bcf22779",
  "abi": [
    {
      "inputs": [],
      "stateMutability": "nonpayable",
      "type": "constructor"
    },
    {
      "inputs": [],
      "name": "governanceERC20Base",
      "outputs": [
        {
          "internalType": "address",
          "name": "",
          "type": "address"
        }
      ],
      "stateMutability": "view",
      "type": "function"
    },
    {
      "inputs": [],
      "name": "governanceWrappedERC20Base",
      "outputs": [
        {
          "internalType": "address",
          "name": "",
          "type": "address"
        }
      ],
      "stateMutability": "view",
      "type": "function"
    },
    {
      "inputs": [
        {
          "components": [
            {
              "internalType": "address",
              "name": "addr",
              "type": "address"
            },
            {
              "internalType": "string",
              "name": "name",
              "type": "string"
            },
            {
              "internalType": "string",
              "name": "symbol",
              "type": "string"
            }
          ],
          "internalType": "struct TokenFactory.TokenConfig",
          "name": "_tokenConfig",
          "type": "tuple"
        }
      ],
      "name": "newToken",
      "outputs": [
        {
          "internalType": "address",
          "name": "",
          "type": "address"
        }
      ],
      "stateMutability": "nonpayable",
      "type": "function"
    }
  ],
  "transactionHash": "0x321a53887c1d85ee28682a738c24da31bb50ad7afc43be98562631ee6fc57e30",
  "args": [],
  "solcInputHash": "effbbd7e948d8c3899cd75bca837788f",
  "bytecode": "0x60c060405234801561001057600080fd5b5060405161001d90610088565b604051809103906000f080158015610039573d6000803e3d6000fd5b5060601b6001600160601b03191660805260405161005690610095565b604051809103906000f080158015610072573d6000803e3d6000fd5b5060601b6001600160601b03191660a0526100a2565b6123fd8061061e83390190565b612d3e80612a1b83390190565b60805160601c60a05160601c6105456100d96000396000818160ae01526101b9015260008181604b015261010201526105456000f3fe608060405234801561001057600080fd5b50600436106100415760003560e01c8063599cb1a614610046578063e384124414610096578063e89b6b91146100a9575b600080fd5b61006d7f000000000000000000000000000000000000000000000000000000000000000081565b60405173ffffffffffffffffffffffffffffffffffffffff909116815260200160405180910390f35b61006d6100a436600461039e565b6100d0565b61006d7f000000000000000000000000000000000000000000000000000000000000000081565b6000806100e06020840184610361565b905073ffffffffffffffffffffffffffffffffffffffff81166101b4576101267f000000000000000000000000000000000000000000000000000000000000000061027b565b905073ffffffffffffffffffffffffffffffffffffffff8116634cd88b7661015160208601866104a3565b61015e60408801886104a3565b6040518563ffffffff1660e01b815260040161017d9493929190610471565b600060405180830381600087803b15801561019757600080fd5b505af11580156101ab573d6000803e3d6000fd5b50505050610275565b6101dd7f000000000000000000000000000000000000000000000000000000000000000061027b565b905073ffffffffffffffffffffffffffffffffffffffff811663906571476102086020860186610361565b61021560208701876104a3565b61022260408901896104a3565b6040518663ffffffff1660e01b8152600401610242959493929190610422565b600060405180830381600087803b15801561025c57600080fd5b505af1158015610270573d6000803e3d6000fd5b505050505b92915050565b60006040517f3d602d80600a3d3981f3363d3d373d3d3d363d7300000000000000000000000081528260601b60148201527f5af43d82803e903d91602b57fd5bf3000000000000000000000000000000000060288201526037816000f091505073ffffffffffffffffffffffffffffffffffffffff811661035c576040517f08c379a000000000000000000000000000000000000000000000000000000000815260206004820152601660248201527f455243313136373a20637265617465206661696c656400000000000000000000604482015260640160405180910390fd5b919050565b60006020828403121561037357600080fd5b813573ffffffffffffffffffffffffffffffffffffffff8116811461039757600080fd5b9392505050565b6000602082840312156103b057600080fd5b813567ffffffffffffffff8111156103c757600080fd5b82016060818503121561039757600080fd5b8183528181602085013750600060208284010152600060207fffffffffffffffffffffffffffffffffffffffffffffffffffffffffffffffe0601f840116840101905092915050565b73ffffffffffffffffffffffffffffffffffffffff861681526060602082015260006104526060830186886103d9565b82810360408401526104658185876103d9565b98975050505050505050565b6040815260006104856040830186886103d9565b82810360208401526104988185876103d9565b979650505050505050565b60008083357fffffffffffffffffffffffffffffffffffffffffffffffffffffffffffffffe18436030181126104d857600080fd5b83018035915067ffffffffffffffff8211156104f357600080fd5b60200191503681900382131561050857600080fd5b925092905056fea2646970667358221220026231fe95f3536101692b9eb12e44f5db7f954c017fcb06e0e0af6d0997324464736f6c63430008060033608060405234801561001057600080fd5b50600054610100900460ff168061002a575060005460ff16155b6100915760405162461bcd60e51b815260206004820152602e60248201527f496e697469616c697a61626c653a20636f6e747261637420697320616c72656160448201526d191e481a5b9a5d1a585b1a5e995960921b606482015260840160405180910390fd5b600054610100900460ff161580156100b3576000805461ffff19166101011790555b80156100c5576000805461ff00191690555b50612328806100d56000396000f3fe608060405234801561001057600080fd5b506004361061018d5760003560e01c80636fcfff45116100e3578063a457c2d71161008c578063d505accf11610066578063d505accf1461036c578063dd62ed3e1461037f578063f1127ed8146103b857600080fd5b8063a457c2d714610333578063a9059cbb14610346578063c3cda5201461035957600080fd5b80638e539e8c116100bd5780638e539e8c1461030557806395d89b41146103185780639ab24eb01461032057600080fd5b80636fcfff45146102a157806370a08231146102c95780637ecebe00146102f257600080fd5b80633644e515116101455780634cd88b761161011f5780634cd88b7614610235578063587cde1e1461024a5780635c19a95c1461028e57600080fd5b80633644e51514610207578063395093511461020f5780633a46b1a81461022257600080fd5b806318160ddd1161017657806318160ddd146101d357806323b872dd146101e5578063313ce567146101f857600080fd5b806306fdde0314610192578063095ea7b3146101b0575b600080fd5b61019a6103f5565b6040516101a791906121d5565b60405180910390f35b6101c36101be36600461208e565b610487565b60405190151581526020016101a7565b6035545b6040519081526020016101a7565b6101c36101f3366004611fe8565b61049d565b604051601281526020016101a7565b6101d7610561565b6101c361021d36600461208e565b610570565b6101d761023036600461208e565b6105ac565b610248610243366004612150565b610626565b005b610276610258366004611f9a565b6001600160a01b03908116600090815260cc60205260409020541690565b6040516001600160a01b0390911681526020016101a7565b61024861029c366004611f9a565b61078f565b6102b46102af366004611f9a565b61079c565b60405163ffffffff90911681526020016101a7565b6101d76102d7366004611f9a565b6001600160a01b031660009081526033602052604090205490565b6101d7610300366004611f9a565b6107c4565b6101d76103133660046121bc565b6107e2565b61019a61083e565b6101d761032e366004611f9a565b61084d565b6101c361034136600461208e565b6108d4565b6101c361035436600461208e565b610985565b6102486103673660046120b8565b610992565b61024861037a366004612024565b610ac8565b6101d761038d366004611fb5565b6001600160a01b03918216600090815260346020908152604080832093909416825291909152205490565b6103cb6103c6366004612110565b610c0e565b60408051825163ffffffff1681526020928301516001600160e01b031692810192909252016101a7565b6060603680546104049061227b565b80601f01602080910402602001604051908101604052809291908181526020018280546104309061227b565b801561047d5780601f106104525761010080835404028352916020019161047d565b820191906000526020600020905b81548152906001019060200180831161046057829003601f168201915b5050505050905090565b6000610494338484610c92565b50600192915050565b60006104aa848484610dea565b6001600160a01b0384166000908152603460209081526040808320338452909152902054828110156105495760405162461bcd60e51b815260206004820152602860248201527f45524332303a207472616e7366657220616d6f756e742065786365656473206160448201527f6c6c6f77616e636500000000000000000000000000000000000000000000000060648201526084015b60405180910390fd5b6105568533858403610c92565b506001949350505050565b600061056b61100d565b905090565b3360008181526034602090815260408083206001600160a01b038716845290915281205490916104949185906105a790869061222a565b610c92565b60004382106105fd5760405162461bcd60e51b815260206004820152601f60248201527f4552433230566f7465733a20626c6f636b206e6f7420796574206d696e6564006044820152606401610540565b6001600160a01b038316600090815260cd6020526040902061061f9083611088565b9392505050565b600054610100900460ff168061063f575060005460ff16155b6106a25760405162461bcd60e51b815260206004820152602e60248201527f496e697469616c697a61626c653a20636f6e747261637420697320616c72656160448201526d191e481a5b9a5d1a585b1a5e995960921b6064820152608401610540565b600054610100900460ff161580156106c4576000805461ffff19166101011790555b61073785858080601f01602080910402602001604051908101604052809392919081815260200183838082843760009201919091525050604080516020601f8901819004810282018101909252878152925087915086908190840183828082843760009201919091525061114592505050565b61077685858080601f01602080910402602001604051908101604052809392919081815260200183838082843760009201919091525061120c92505050565b8015610788576000805461ff00191690555b5050505050565b6107993382611310565b50565b6001600160a01b038116600090815260cd60205260408120546107be906113a2565b92915050565b6001600160a01b0381166000908152609960205260408120546107be565b60004382106108335760405162461bcd60e51b815260206004820152601f60248201527f4552433230566f7465733a20626c6f636b206e6f7420796574206d696e6564006044820152606401610540565b6107be60ce83611088565b6060603780546104049061227b565b6001600160a01b038116600090815260cd602052604081205480156108c1576001600160a01b038316600090815260cd6020526040902061088f600183612264565b8154811061089f5761089f6122dc565b60009182526020909120015464010000000090046001600160e01b03166108c4565b60005b6001600160e01b03169392505050565b3360009081526034602090815260408083206001600160a01b03861684529091528120548281101561096e5760405162461bcd60e51b815260206004820152602560248201527f45524332303a2064656372656173656420616c6c6f77616e63652062656c6f7760448201527f207a65726f0000000000000000000000000000000000000000000000000000006064820152608401610540565b61097b3385858403610c92565b5060019392505050565b6000610494338484610dea565b834211156109e25760405162461bcd60e51b815260206004820152601d60248201527f4552433230566f7465733a207369676e617475726520657870697265640000006044820152606401610540565b604080517fe48329057bfd03d55e49b547132e39cffd9c1820ad7b9d4c5307691425d15adf60208201526001600160a01b038816918101919091526060810186905260808101859052600090610a5c90610a549060a00160405160208183030381529060405280519060200120611422565b85858561148b565b9050610a67816114b3565b8614610ab55760405162461bcd60e51b815260206004820152601960248201527f4552433230566f7465733a20696e76616c6964206e6f6e6365000000000000006044820152606401610540565b610abf8188611310565b50505050505050565b83421115610b185760405162461bcd60e51b815260206004820152601d60248201527f45524332305065726d69743a206578706972656420646561646c696e650000006044820152606401610540565b6000609a54888888610b298c6114b3565b6040805160208101969096526001600160a01b0394851690860152929091166060840152608083015260a082015260c0810186905260e0016040516020818303038152906040528051906020012090506000610b8482611422565b90506000610b948287878761148b565b9050896001600160a01b0316816001600160a01b031614610bf75760405162461bcd60e51b815260206004820152601e60248201527f45524332305065726d69743a20696e76616c6964207369676e617475726500006044820152606401610540565b610c028a8a8a610c92565b50505050505050505050565b60408051808201909152600080825260208201526001600160a01b038316600090815260cd60205260409020805463ffffffff8416908110610c5257610c526122dc565b60009182526020918290206040805180820190915291015463ffffffff8116825264010000000090046001600160e01b0316918101919091529392505050565b6001600160a01b038316610d0d5760405162461bcd60e51b8152602060048201526024808201527f45524332303a20617070726f76652066726f6d20746865207a65726f2061646460448201527f72657373000000000000000000000000000000000000000000000000000000006064820152608401610540565b6001600160a01b038216610d895760405162461bcd60e51b815260206004820152602260248201527f45524332303a20617070726f766520746f20746865207a65726f20616464726560448201527f73730000000000000000000000000000000000000000000000000000000000006064820152608401610540565b6001600160a01b0383811660008181526034602090815260408083209487168084529482529182902085905590518481527f8c5be1e5ebec7d5bd14f71427d1e84f3dd0314c0f7b2291e5b200ac8c7c3b925910160405180910390a3505050565b6001600160a01b038316610e665760405162461bcd60e51b815260206004820152602560248201527f45524332303a207472616e736665722066726f6d20746865207a65726f20616460448201527f64726573730000000000000000000000000000000000000000000000000000006064820152608401610540565b6001600160a01b038216610ee25760405162461bcd60e51b815260206004820152602360248201527f45524332303a207472616e7366657220746f20746865207a65726f206164647260448201527f65737300000000000000000000000000000000000000000000000000000000006064820152608401610540565b6001600160a01b03831660009081526033602052604090205481811015610f715760405162461bcd60e51b815260206004820152602660248201527f45524332303a207472616e7366657220616d6f756e742065786365656473206260448201527f616c616e636500000000000000000000000000000000000000000000000000006064820152608401610540565b6001600160a01b03808516600090815260336020526040808220858503905591851681529081208054849290610fa890849061222a565b92505081905550826001600160a01b0316846001600160a01b03167fddf252ad1be2c89b69c2b068fc378daa952ba7f163c4a11628f55a4df523b3ef84604051610ff491815260200190565b60405180910390a36110078484846114db565b50505050565b600061056b7f8b73c3c69bb8fe3d512ecc4cf759cc79239f7b179b0ffacaa9a75d522b39400f61103c60655490565b6066546040805160208101859052908101839052606081018290524660808201523060a082015260009060c0016040516020818303038152906040528051906020012090509392505050565b8154600090815b818110156110ec5760006110a382846114e6565b9050848682815481106110b8576110b86122dc565b60009182526020909120015463ffffffff1611156110d8578092506110e6565b6110e381600161222a565b91505b5061108f565b811561113057846110fe600184612264565b8154811061110e5761110e6122dc565b60009182526020909120015464010000000090046001600160e01b0316611133565b60005b6001600160e01b031695945050505050565b600054610100900460ff168061115e575060005460ff16155b6111c15760405162461bcd60e51b815260206004820152602e60248201527f496e697469616c697a61626c653a20636f6e747261637420697320616c72656160448201526d191e481a5b9a5d1a585b1a5e995960921b6064820152608401610540565b600054610100900460ff161580156111e3576000805461ffff19166101011790555b6111eb611501565b6111f583836115b3565b8015611207576000805461ff00191690555b505050565b600054610100900460ff1680611225575060005460ff16155b6112885760405162461bcd60e51b815260206004820152602e60248201527f496e697469616c697a61626c653a20636f6e747261637420697320616c72656160448201526d191e481a5b9a5d1a585b1a5e995960921b6064820152608401610540565b600054610100900460ff161580156112aa576000805461ffff19166101011790555b6112b2611501565b6112f1826040518060400160405280600181526020017f310000000000000000000000000000000000000000000000000000000000000081525061168f565b6112fa82611760565b801561130c576000805461ff00191690555b5050565b6001600160a01b03828116600081815260cc6020818152604080842080546033845282862054949093528787167fffffffffffffffffffffffff00000000000000000000000000000000000000008416811790915590519190951694919391928592917f3134e8a2e6d97e929a7e54011ea5485d7d196dd5f0ba4d4ef95803e8e3fc257f9190a4611007828483611837565b600063ffffffff82111561141e5760405162461bcd60e51b815260206004820152602660248201527f53616665436173743a2076616c756520646f65736e27742066697420696e203360448201527f32206269747300000000000000000000000000000000000000000000000000006064820152608401610540565b5090565b60006107be61142f61100d565b836040517f19010000000000000000000000000000000000000000000000000000000000006020820152602281018390526042810182905260009060620160405160208183030381529060405280519060200120905092915050565b600080600061149c87878787611974565b915091506114a981611a61565b5095945050505050565b6001600160a01b03811660009081526099602052604090208054600181018255905b50919050565b611207838383611c52565b60006114f56002848418612242565b61061f9084841661222a565b600054610100900460ff168061151a575060005460ff16155b61157d5760405162461bcd60e51b815260206004820152602e60248201527f496e697469616c697a61626c653a20636f6e747261637420697320616c72656160448201526d191e481a5b9a5d1a585b1a5e995960921b6064820152608401610540565b600054610100900460ff1615801561159f576000805461ffff19166101011790555b8015610799576000805461ff001916905550565b600054610100900460ff16806115cc575060005460ff16155b61162f5760405162461bcd60e51b815260206004820152602e60248201527f496e697469616c697a61626c653a20636f6e747261637420697320616c72656160448201526d191e481a5b9a5d1a585b1a5e995960921b6064820152608401610540565b600054610100900460ff16158015611651576000805461ffff19166101011790555b8251611664906036906020860190611e94565b508151611678906037906020850190611e94565b508015611207576000805461ff0019169055505050565b600054610100900460ff16806116a8575060005460ff16155b61170b5760405162461bcd60e51b815260206004820152602e60248201527f496e697469616c697a61626c653a20636f6e747261637420697320616c72656160448201526d191e481a5b9a5d1a585b1a5e995960921b6064820152608401610540565b600054610100900460ff1615801561172d576000805461ffff19166101011790555b82516020808501919091208351918401919091206065919091556066558015611207576000805461ff0019169055505050565b600054610100900460ff1680611779575060005460ff16155b6117dc5760405162461bcd60e51b815260206004820152602e60248201527f496e697469616c697a61626c653a20636f6e747261637420697320616c72656160448201526d191e481a5b9a5d1a585b1a5e995960921b6064820152608401610540565b600054610100900460ff161580156117fe576000805461ffff19166101011790555b7f6e71edae12b1b97f4d1f60370fef10105fa2faae0126114a169c64845d6126c9609a55801561130c576000805461ff00191690555050565b816001600160a01b0316836001600160a01b0316141580156118595750600081115b15611207576001600160a01b038316156118e7576001600160a01b038316600090815260cd60205260408120819061189490611c8485611c90565b91509150846001600160a01b03167fdec2bacdd2f05b59de34da9b523dff8be42e5e38e818c82fdb0bae774387a72483836040516118dc929190918252602082015260400190565b60405180910390a250505b6001600160a01b03821615611207576001600160a01b038216600090815260cd60205260408120819061191d90611e0985611c90565b91509150836001600160a01b03167fdec2bacdd2f05b59de34da9b523dff8be42e5e38e818c82fdb0bae774387a7248383604051611965929190918252602082015260400190565b60405180910390a25050505050565b6000807f7fffffffffffffffffffffffffffffff5d576e7357a4501ddfe92f46681b20a08311156119ab5750600090506003611a58565b8460ff16601b141580156119c357508460ff16601c14155b156119d45750600090506004611a58565b6040805160008082526020820180845289905260ff881692820192909252606081018690526080810185905260019060a0016020604051602081039080840390855afa158015611a28573d6000803e3d6000fd5b5050604051601f1901519150506001600160a01b038116611a5157600060019250925050611a58565b9150600090505b94509492505050565b6000816004811115611a7557611a756122c6565b1415611a7e5750565b6001816004811115611a9257611a926122c6565b1415611ae05760405162461bcd60e51b815260206004820152601860248201527f45434453413a20696e76616c6964207369676e617475726500000000000000006044820152606401610540565b6002816004811115611af457611af46122c6565b1415611b425760405162461bcd60e51b815260206004820152601f60248201527f45434453413a20696e76616c6964207369676e6174757265206c656e677468006044820152606401610540565b6003816004811115611b5657611b566122c6565b1415611bca5760405162461bcd60e51b815260206004820152602260248201527f45434453413a20696e76616c6964207369676e6174757265202773272076616c60448201527f75650000000000000000000000000000000000000000000000000000000000006064820152608401610540565b6004816004811115611bde57611bde6122c6565b14156107995760405162461bcd60e51b815260206004820152602260248201527f45434453413a20696e76616c6964207369676e6174757265202776272076616c60448201527f75650000000000000000000000000000000000000000000000000000000000006064820152608401610540565b6001600160a01b03838116600090815260cc602052604080822054858416835291205461120792918216911683611837565b600061061f8284612264565b825460009081908015611cdb5785611ca9600183612264565b81548110611cb957611cb96122dc565b60009182526020909120015464010000000090046001600160e01b0316611cde565b60005b6001600160e01b03169250611cf783858763ffffffff16565b9150600081118015611d3557504386611d11600184612264565b81548110611d2157611d216122dc565b60009182526020909120015463ffffffff16145b15611d9557611d4382611e15565b86611d4f600184612264565b81548110611d5f57611d5f6122dc565b9060005260206000200160000160046101000a8154816001600160e01b0302191690836001600160e01b03160217905550611e00565b856040518060400160405280611daa436113a2565b63ffffffff168152602001611dbe85611e15565b6001600160e01b0390811690915282546001810184556000938452602093849020835194909301519091166401000000000263ffffffff909316929092179101555b50935093915050565b600061061f828461222a565b60006001600160e01b0382111561141e5760405162461bcd60e51b815260206004820152602760248201527f53616665436173743a2076616c756520646f65736e27742066697420696e203260448201527f32342062697473000000000000000000000000000000000000000000000000006064820152608401610540565b828054611ea09061227b565b90600052602060002090601f016020900481019282611ec25760008555611f08565b82601f10611edb57805160ff1916838001178555611f08565b82800160010185558215611f08579182015b82811115611f08578251825591602001919060010190611eed565b5061141e9291505b8082111561141e5760008155600101611f10565b80356001600160a01b0381168114611f3b57600080fd5b919050565b60008083601f840112611f5257600080fd5b50813567ffffffffffffffff811115611f6a57600080fd5b602083019150836020828501011115611f8257600080fd5b9250929050565b803560ff81168114611f3b57600080fd5b600060208284031215611fac57600080fd5b61061f82611f24565b60008060408385031215611fc857600080fd5b611fd183611f24565b9150611fdf60208401611f24565b90509250929050565b600080600060608486031215611ffd57600080fd5b61200684611f24565b925061201460208501611f24565b9150604084013590509250925092565b600080600080600080600060e0888a03121561203f57600080fd5b61204888611f24565b965061205660208901611f24565b9550604088013594506060880135935061207260808901611f89565b925060a0880135915060c0880135905092959891949750929550565b600080604083850312156120a157600080fd5b6120aa83611f24565b946020939093013593505050565b60008060008060008060c087890312156120d157600080fd5b6120da87611f24565b955060208701359450604087013593506120f660608801611f89565b92506080870135915060a087013590509295509295509295565b6000806040838503121561212357600080fd5b61212c83611f24565b9150602083013563ffffffff8116811461214557600080fd5b809150509250929050565b6000806000806040858703121561216657600080fd5b843567ffffffffffffffff8082111561217e57600080fd5b61218a88838901611f40565b909650945060208701359150808211156121a357600080fd5b506121b087828801611f40565b95989497509550505050565b6000602082840312156121ce57600080fd5b5035919050565b600060208083528351808285015260005b81811015612202578581018301518582016040015282016121e6565b81811115612214576000604083870101525b50601f01601f1916929092016040019392505050565b6000821982111561223d5761223d6122b0565b500190565b60008261225f57634e487b7160e01b600052601260045260246000fd5b500490565b600082821015612276576122766122b0565b500390565b600181811c9082168061228f57607f821691505b602082108114156114d557634e487b7160e01b600052602260045260246000fd5b634e487b7160e01b600052601160045260246000fd5b634e487b7160e01b600052602160045260246000fd5b634e487b7160e01b600052603260045260246000fdfea2646970667358221220eaef0387461c349e2aea30e70adec881a58ad7bee7ac9d8ca0e8d82007eadca864736f6c6343000806003360806040523480156200001157600080fd5b50600054610100900460ff16806200002c575060005460ff16155b620000945760405162461bcd60e51b815260206004820152602e60248201527f496e697469616c697a61626c653a20636f6e747261637420697320616c72656160448201526d191e481a5b9a5d1a585b1a5e995960921b606482015260840160405180910390fd5b600054610100900460ff16158015620000b7576000805461ffff19166101011790555b8015620000ca576000805461ff00191690555b50612c6380620000db6000396000f3fe608060405234801561001057600080fd5b50600436106101ae5760003560e01c80636fcfff45116100ee5780639ab24eb011610097578063c3cda52011610071578063c3cda520146103b3578063d505accf146103c6578063dd62ed3e146103d9578063f1127ed81461041257600080fd5b80639ab24eb01461037a578063a457c2d71461038d578063a9059cbb146103a057600080fd5b80638e539e8c116100c85780638e539e8c1461034c578063906571471461035f57806395d89b411461037257600080fd5b80636fcfff45146102e857806370a08231146103105780637ecebe001461033957600080fd5b8063313ce5671161015b5780633a46b1a8116101355780633a46b1a814610269578063587cde1e1461027c5780635c19a95c146102c05780636f307dc3146102d557600080fd5b8063313ce5671461023f5780633644e5151461024e578063395093511461025657600080fd5b8063205c28781161018c578063205c28781461020657806323b872dd146102195780632f4f21e21461022c57600080fd5b806306fdde03146101b3578063095ea7b3146101d157806318160ddd146101f4575b600080fd5b6101bb61044f565b6040516101c89190612af1565b60405180910390f35b6101e46101df36600461295a565b6104e1565b60405190151581526020016101c8565b6035545b6040519081526020016101c8565b6101e461021436600461295a565b6104f7565b6101e46102273660046128ab565b61051a565b6101e461023a36600461295a565b6105e0565b604051601281526020016101c8565b6101f8610605565b6101e461026436600461295a565b610614565b6101f861027736600461295a565b610650565b6102a861028a366004612855565b6001600160a01b03908116600090815260cc60205260409020541690565b6040516001600160a01b0390911681526020016101c8565b6102d36102ce366004612855565b6106c3565b005b60fe546102a8906001600160a01b031681565b6102fb6102f6366004612855565b6106d0565b60405163ffffffff90911681526020016101c8565b6101f861031e366004612855565b6001600160a01b031660009081526033602052604090205490565b6101f8610347366004612855565b6106f8565b6101f861035a366004612abc565b610716565b6102d361036d366004612a39565b610772565b6101bb6108e5565b6101f8610388366004612855565b6108f4565b6101e461039b36600461295a565b61097b565b6101e46103ae36600461295a565b610a2c565b6102d36103c1366004612986565b610a39565b6102d36103d43660046128ec565b610b6f565b6101f86103e7366004612872565b6001600160a01b03918216600090815260346020908152604080832093909416825291909152205490565b6104256104203660046129e0565b610cb5565b60408051825163ffffffff1681526020928301516001600160e01b031692810192909252016101c8565b60606036805461045e90612ba1565b80601f016020809104026020016040519081016040528092919081815260200182805461048a90612ba1565b80156104d75780601f106104ac576101008083540402835291602001916104d7565b820191906000526020600020905b8154815290600101906020018083116104ba57829003601f168201915b5050505050905090565b60006104ee338484610d39565b50600192915050565b60006105033383610e91565b60fe546104ee906001600160a01b03168484610e9f565b6000610527848484610f38565b6001600160a01b0384166000908152603460209081526040808320338452909152902054828110156105c65760405162461bcd60e51b815260206004820152602860248201527f45524332303a207472616e7366657220616d6f756e742065786365656473206160448201527f6c6c6f77616e636500000000000000000000000000000000000000000000000060648201526084015b60405180910390fd5b6105d38533858403610d39565b60019150505b9392505050565b60fe546000906105fb906001600160a01b031633308561115b565b6104ee83836111ac565b600061060f6111b6565b905090565b3360008181526034602090815260408083206001600160a01b038716845290915281205490916104ee91859061064b908690612b24565b610d39565b60004382106106a15760405162461bcd60e51b815260206004820152601f60248201527f4552433230566f7465733a20626c6f636b206e6f7420796574206d696e65640060448201526064016105bd565b6001600160a01b038316600090815260cd602052604090206105d99083611231565b6106cd33826112ee565b50565b6001600160a01b038116600090815260cd60205260408120546106f290611380565b92915050565b6001600160a01b0381166000908152609960205260408120546106f2565b60004382106107675760405162461bcd60e51b815260206004820152601f60248201527f4552433230566f7465733a20626c6f636b206e6f7420796574206d696e65640060448201526064016105bd565b6106f260ce83611231565b600054610100900460ff168061078b575060005460ff16155b6107ee5760405162461bcd60e51b815260206004820152602e60248201527f496e697469616c697a61626c653a20636f6e747261637420697320616c72656160448201526d191e481a5b9a5d1a585b1a5e995960921b60648201526084016105bd565b600054610100900460ff16158015610810576000805461ffff19166101011790555b61088385858080601f01602080910402602001604051908101604052809392919081815260200183838082843760009201919091525050604080516020601f8901819004810282018101909252878152925087915086908190840183828082843760009201919091525061140092505050565b6108c285858080601f0160208091040260200160405190810160405280939291908181526020018383808284376000920191909152506114c692505050565b6108cb866115c9565b80156108dd576000805461ff00191690555b505050505050565b60606037805461045e90612ba1565b6001600160a01b038116600090815260cd60205260408120548015610968576001600160a01b038316600090815260cd60205260409020610936600183612b5e565b8154811061094657610946612c02565b60009182526020909120015464010000000090046001600160e01b031661096b565b60005b6001600160e01b03169392505050565b3360009081526034602090815260408083206001600160a01b038616845290915281205482811015610a155760405162461bcd60e51b815260206004820152602560248201527f45524332303a2064656372656173656420616c6c6f77616e63652062656c6f7760448201527f207a65726f00000000000000000000000000000000000000000000000000000060648201526084016105bd565b610a223385858403610d39565b5060019392505050565b60006104ee338484610f38565b83421115610a895760405162461bcd60e51b815260206004820152601d60248201527f4552433230566f7465733a207369676e6174757265206578706972656400000060448201526064016105bd565b604080517fe48329057bfd03d55e49b547132e39cffd9c1820ad7b9d4c5307691425d15adf60208201526001600160a01b038816918101919091526060810186905260808101859052600090610b0390610afb9060a00160405160208183030381529060405280519060200120611678565b8585856116e1565b9050610b0e81611709565b8614610b5c5760405162461bcd60e51b815260206004820152601960248201527f4552433230566f7465733a20696e76616c6964206e6f6e63650000000000000060448201526064016105bd565b610b6681886112ee565b50505050505050565b83421115610bbf5760405162461bcd60e51b815260206004820152601d60248201527f45524332305065726d69743a206578706972656420646561646c696e6500000060448201526064016105bd565b6000609a54888888610bd08c611709565b6040805160208101969096526001600160a01b0394851690860152929091166060840152608083015260a082015260c0810186905260e0016040516020818303038152906040528051906020012090506000610c2b82611678565b90506000610c3b828787876116e1565b9050896001600160a01b0316816001600160a01b031614610c9e5760405162461bcd60e51b815260206004820152601e60248201527f45524332305065726d69743a20696e76616c6964207369676e6174757265000060448201526064016105bd565b610ca98a8a8a610d39565b50505050505050505050565b60408051808201909152600080825260208201526001600160a01b038316600090815260cd60205260409020805463ffffffff8416908110610cf957610cf9612c02565b60009182526020918290206040805180820190915291015463ffffffff8116825264010000000090046001600160e01b0316918101919091529392505050565b6001600160a01b038316610db45760405162461bcd60e51b8152602060048201526024808201527f45524332303a20617070726f76652066726f6d20746865207a65726f2061646460448201527f726573730000000000000000000000000000000000000000000000000000000060648201526084016105bd565b6001600160a01b038216610e305760405162461bcd60e51b815260206004820152602260248201527f45524332303a20617070726f766520746f20746865207a65726f20616464726560448201527f737300000000000000000000000000000000000000000000000000000000000060648201526084016105bd565b6001600160a01b0383811660008181526034602090815260408083209487168084529482529182902085905590518481527f8c5be1e5ebec7d5bd14f71427d1e84f3dd0314c0f7b2291e5b200ac8c7c3b925910160405180910390a3505050565b610e9b8282611731565b5050565b6040516001600160a01b038316602482015260448101829052610f339084907fa9059cbb00000000000000000000000000000000000000000000000000000000906064015b60408051601f198184030181529190526020810180516001600160e01b03167fffffffff0000000000000000000000000000000000000000000000000000000090931692909217909152611749565b505050565b6001600160a01b038316610fb45760405162461bcd60e51b815260206004820152602560248201527f45524332303a207472616e736665722066726f6d20746865207a65726f20616460448201527f647265737300000000000000000000000000000000000000000000000000000060648201526084016105bd565b6001600160a01b0382166110305760405162461bcd60e51b815260206004820152602360248201527f45524332303a207472616e7366657220746f20746865207a65726f206164647260448201527f657373000000000000000000000000000000000000000000000000000000000060648201526084016105bd565b6001600160a01b038316600090815260336020526040902054818110156110bf5760405162461bcd60e51b815260206004820152602660248201527f45524332303a207472616e7366657220616d6f756e742065786365656473206260448201527f616c616e6365000000000000000000000000000000000000000000000000000060648201526084016105bd565b6001600160a01b038085166000908152603360205260408082208585039055918516815290812080548492906110f6908490612b24565b92505081905550826001600160a01b0316846001600160a01b03167fddf252ad1be2c89b69c2b068fc378daa952ba7f163c4a11628f55a4df523b3ef8460405161114291815260200190565b60405180910390a361115584848461182e565b50505050565b6040516001600160a01b03808516602483015283166044820152606481018290526111559085907f23b872dd0000000000000000000000000000000000000000000000000000000090608401610ee4565b610e9b8282611839565b600061060f7f8b73c3c69bb8fe3d512ecc4cf759cc79239f7b179b0ffacaa9a75d522b39400f6111e560655490565b6066546040805160208101859052908101839052606081018290524660808201523060a082015260009060c0016040516020818303038152906040528051906020012090509392505050565b8154600090815b8181101561129557600061124c82846118d0565b90508486828154811061126157611261612c02565b60009182526020909120015463ffffffff1611156112815780925061128f565b61128c816001612b24565b91505b50611238565b81156112d957846112a7600184612b5e565b815481106112b7576112b7612c02565b60009182526020909120015464010000000090046001600160e01b03166112dc565b60005b6001600160e01b031695945050505050565b6001600160a01b03828116600081815260cc6020818152604080842080546033845282862054949093528787167fffffffffffffffffffffffff00000000000000000000000000000000000000008416811790915590519190951694919391928592917f3134e8a2e6d97e929a7e54011ea5485d7d196dd5f0ba4d4ef95803e8e3fc257f9190a46111558284836118eb565b600063ffffffff8211156113fc5760405162461bcd60e51b815260206004820152602660248201527f53616665436173743a2076616c756520646f65736e27742066697420696e203360448201527f322062697473000000000000000000000000000000000000000000000000000060648201526084016105bd565b5090565b600054610100900460ff1680611419575060005460ff16155b61147c5760405162461bcd60e51b815260206004820152602e60248201527f496e697469616c697a61626c653a20636f6e747261637420697320616c72656160448201526d191e481a5b9a5d1a585b1a5e995960921b60648201526084016105bd565b600054610100900460ff1615801561149e576000805461ffff19166101011790555b6114a6611a28565b6114b08383611ada565b8015610f33576000805461ff0019169055505050565b600054610100900460ff16806114df575060005460ff16155b6115425760405162461bcd60e51b815260206004820152602e60248201527f496e697469616c697a61626c653a20636f6e747261637420697320616c72656160448201526d191e481a5b9a5d1a585b1a5e995960921b60648201526084016105bd565b600054610100900460ff16158015611564576000805461ffff19166101011790555b61156c611a28565b6115ab826040518060400160405280600181526020017f3100000000000000000000000000000000000000000000000000000000000000815250611bb6565b6115b482611c87565b8015610e9b576000805461ff00191690555050565b600054610100900460ff16806115e2575060005460ff16155b6116455760405162461bcd60e51b815260206004820152602e60248201527f496e697469616c697a61626c653a20636f6e747261637420697320616c72656160448201526d191e481a5b9a5d1a585b1a5e995960921b60648201526084016105bd565b600054610100900460ff16158015611667576000805461ffff19166101011790555b61166f611a28565b6115b482611d5e565b60006106f26116856111b6565b836040517f19010000000000000000000000000000000000000000000000000000000000006020820152602281018390526042810182905260009060620160405160208183030381529060405280519060200120905092915050565b60008060006116f287878787611e44565b915091506116ff81611f31565b5095945050505050565b6001600160a01b03811660009081526099602052604090208054600181018255905b50919050565b61173b8282612122565b61115560ce6122ae836122ba565b600061179e826040518060400160405280602081526020017f5361666545524332303a206c6f772d6c6576656c2063616c6c206661696c6564815250856001600160a01b03166124339092919063ffffffff16565b805190915015610f3357808060200190518101906117bc9190612a17565b610f335760405162461bcd60e51b815260206004820152602a60248201527f5361666545524332303a204552433230206f7065726174696f6e20646964206e60448201527f6f7420737563636565640000000000000000000000000000000000000000000060648201526084016105bd565b610f3383838361244a565b611843828261247c565b6035546001600160e01b0310156118c25760405162461bcd60e51b815260206004820152603060248201527f4552433230566f7465733a20746f74616c20737570706c79207269736b73206f60448201527f766572666c6f77696e6720766f7465730000000000000000000000000000000060648201526084016105bd565b61115560ce612563836122ba565b60006118df6002848418612b3c565b6105d990848416612b24565b816001600160a01b0316836001600160a01b03161415801561190d5750600081115b15610f33576001600160a01b0383161561199b576001600160a01b038316600090815260cd602052604081208190611948906122ae856122ba565b91509150846001600160a01b03167fdec2bacdd2f05b59de34da9b523dff8be42e5e38e818c82fdb0bae774387a7248383604051611990929190918252602082015260400190565b60405180910390a250505b6001600160a01b03821615610f33576001600160a01b038216600090815260cd6020526040812081906119d190612563856122ba565b91509150836001600160a01b03167fdec2bacdd2f05b59de34da9b523dff8be42e5e38e818c82fdb0bae774387a7248383604051611a19929190918252602082015260400190565b60405180910390a25050505050565b600054610100900460ff1680611a41575060005460ff16155b611aa45760405162461bcd60e51b815260206004820152602e60248201527f496e697469616c697a61626c653a20636f6e747261637420697320616c72656160448201526d191e481a5b9a5d1a585b1a5e995960921b60648201526084016105bd565b600054610100900460ff16158015611ac6576000805461ffff19166101011790555b80156106cd576000805461ff001916905550565b600054610100900460ff1680611af3575060005460ff16155b611b565760405162461bcd60e51b815260206004820152602e60248201527f496e697469616c697a61626c653a20636f6e747261637420697320616c72656160448201526d191e481a5b9a5d1a585b1a5e995960921b60648201526084016105bd565b600054610100900460ff16158015611b78576000805461ffff19166101011790555b8251611b8b906036906020860190612766565b508151611b9f906037906020850190612766565b508015610f33576000805461ff0019169055505050565b600054610100900460ff1680611bcf575060005460ff16155b611c325760405162461bcd60e51b815260206004820152602e60248201527f496e697469616c697a61626c653a20636f6e747261637420697320616c72656160448201526d191e481a5b9a5d1a585b1a5e995960921b60648201526084016105bd565b600054610100900460ff16158015611c54576000805461ffff19166101011790555b82516020808501919091208351918401919091206065919091556066558015610f33576000805461ff0019169055505050565b600054610100900460ff1680611ca0575060005460ff16155b611d035760405162461bcd60e51b815260206004820152602e60248201527f496e697469616c697a61626c653a20636f6e747261637420697320616c72656160448201526d191e481a5b9a5d1a585b1a5e995960921b60648201526084016105bd565b600054610100900460ff16158015611d25576000805461ffff19166101011790555b7f6e71edae12b1b97f4d1f60370fef10105fa2faae0126114a169c64845d6126c9609a558015610e9b576000805461ff00191690555050565b600054610100900460ff1680611d77575060005460ff16155b611dda5760405162461bcd60e51b815260206004820152602e60248201527f496e697469616c697a61626c653a20636f6e747261637420697320616c72656160448201526d191e481a5b9a5d1a585b1a5e995960921b60648201526084016105bd565b600054610100900460ff16158015611dfc576000805461ffff19166101011790555b60fe80547fffffffffffffffffffffffff0000000000000000000000000000000000000000166001600160a01b0384161790558015610e9b576000805461ff00191690555050565b6000807f7fffffffffffffffffffffffffffffff5d576e7357a4501ddfe92f46681b20a0831115611e7b5750600090506003611f28565b8460ff16601b14158015611e9357508460ff16601c14155b15611ea45750600090506004611f28565b6040805160008082526020820180845289905260ff881692820192909252606081018690526080810185905260019060a0016020604051602081039080840390855afa158015611ef8573d6000803e3d6000fd5b5050604051601f1901519150506001600160a01b038116611f2157600060019250925050611f28565b9150600090505b94509492505050565b6000816004811115611f4557611f45612bec565b1415611f4e5750565b6001816004811115611f6257611f62612bec565b1415611fb05760405162461bcd60e51b815260206004820152601860248201527f45434453413a20696e76616c6964207369676e6174757265000000000000000060448201526064016105bd565b6002816004811115611fc457611fc4612bec565b14156120125760405162461bcd60e51b815260206004820152601f60248201527f45434453413a20696e76616c6964207369676e6174757265206c656e6774680060448201526064016105bd565b600381600481111561202657612026612bec565b141561209a5760405162461bcd60e51b815260206004820152602260248201527f45434453413a20696e76616c6964207369676e6174757265202773272076616c60448201527f756500000000000000000000000000000000000000000000000000000000000060648201526084016105bd565b60048160048111156120ae576120ae612bec565b14156106cd5760405162461bcd60e51b815260206004820152602260248201527f45434453413a20696e76616c6964207369676e6174757265202776272076616c60448201527f756500000000000000000000000000000000000000000000000000000000000060648201526084016105bd565b6001600160a01b03821661219e5760405162461bcd60e51b815260206004820152602160248201527f45524332303a206275726e2066726f6d20746865207a65726f2061646472657360448201527f730000000000000000000000000000000000000000000000000000000000000060648201526084016105bd565b6001600160a01b0382166000908152603360205260409020548181101561222d5760405162461bcd60e51b815260206004820152602260248201527f45524332303a206275726e20616d6f756e7420657863656564732062616c616e60448201527f636500000000000000000000000000000000000000000000000000000000000060648201526084016105bd565b6001600160a01b038316600090815260336020526040812083830390556035805484929061225c908490612b5e565b90915550506040518281526000906001600160a01b038516907fddf252ad1be2c89b69c2b068fc378daa952ba7f163c4a11628f55a4df523b3ef9060200160405180910390a3610f338360008461182e565b60006105d98284612b5e565b82546000908190801561230557856122d3600183612b5e565b815481106122e3576122e3612c02565b60009182526020909120015464010000000090046001600160e01b0316612308565b60005b6001600160e01b0316925061232183858763ffffffff16565b915060008111801561235f5750438661233b600184612b5e565b8154811061234b5761234b612c02565b60009182526020909120015463ffffffff16145b156123bf5761236d8261256f565b86612379600184612b5e565b8154811061238957612389612c02565b9060005260206000200160000160046101000a8154816001600160e01b0302191690836001600160e01b0316021790555061242a565b8560405180604001604052806123d443611380565b63ffffffff1681526020016123e88561256f565b6001600160e01b0390811690915282546001810184556000938452602093849020835194909301519091166401000000000263ffffffff909316929092179101555b50935093915050565b606061244284846000856125ee565b949350505050565b6001600160a01b03838116600090815260cc6020526040808220548584168352912054610f33929182169116836118eb565b6001600160a01b0382166124d25760405162461bcd60e51b815260206004820152601f60248201527f45524332303a206d696e7420746f20746865207a65726f20616464726573730060448201526064016105bd565b80603560008282546124e49190612b24565b90915550506001600160a01b03821660009081526033602052604081208054839290612511908490612b24565b90915550506040518181526001600160a01b038316906000907fddf252ad1be2c89b69c2b068fc378daa952ba7f163c4a11628f55a4df523b3ef9060200160405180910390a3610e9b6000838361182e565b60006105d98284612b24565b60006001600160e01b038211156113fc5760405162461bcd60e51b815260206004820152602760248201527f53616665436173743a2076616c756520646f65736e27742066697420696e203260448201527f323420626974730000000000000000000000000000000000000000000000000060648201526084016105bd565b6060824710156126665760405162461bcd60e51b815260206004820152602660248201527f416464726573733a20696e73756666696369656e742062616c616e636520666f60448201527f722063616c6c000000000000000000000000000000000000000000000000000060648201526084016105bd565b843b6126b45760405162461bcd60e51b815260206004820152601d60248201527f416464726573733a2063616c6c20746f206e6f6e2d636f6e747261637400000060448201526064016105bd565b600080866001600160a01b031685876040516126d09190612ad5565b60006040518083038185875af1925050503d806000811461270d576040519150601f19603f3d011682016040523d82523d6000602084013e612712565b606091505b509150915061272282828661272d565b979650505050505050565b6060831561273c5750816105d9565b82511561274c5782518084602001fd5b8160405162461bcd60e51b81526004016105bd9190612af1565b82805461277290612ba1565b90600052602060002090601f01602090048101928261279457600085556127da565b82601f106127ad57805160ff19168380011785556127da565b828001600101855582156127da579182015b828111156127da5782518255916020019190600101906127bf565b506113fc9291505b808211156113fc57600081556001016127e2565b60008083601f84011261280857600080fd5b50813567ffffffffffffffff81111561282057600080fd5b60208301915083602082850101111561283857600080fd5b9250929050565b803560ff8116811461285057600080fd5b919050565b60006020828403121561286757600080fd5b81356105d981612c18565b6000806040838503121561288557600080fd5b823561289081612c18565b915060208301356128a081612c18565b809150509250929050565b6000806000606084860312156128c057600080fd5b83356128cb81612c18565b925060208401356128db81612c18565b929592945050506040919091013590565b600080600080600080600060e0888a03121561290757600080fd5b873561291281612c18565b9650602088013561292281612c18565b9550604088013594506060880135935061293e6080890161283f565b925060a0880135915060c0880135905092959891949750929550565b6000806040838503121561296d57600080fd5b823561297881612c18565b946020939093013593505050565b60008060008060008060c0878903121561299f57600080fd5b86356129aa81612c18565b955060208701359450604087013593506129c66060880161283f565b92506080870135915060a087013590509295509295509295565b600080604083850312156129f357600080fd5b82356129fe81612c18565b9150602083013563ffffffff811681146128a057600080fd5b600060208284031215612a2957600080fd5b815180151581146105d957600080fd5b600080600080600060608688031215612a5157600080fd5b8535612a5c81612c18565b9450602086013567ffffffffffffffff80821115612a7957600080fd5b612a8589838a016127f6565b90965094506040880135915080821115612a9e57600080fd5b50612aab888289016127f6565b969995985093965092949392505050565b600060208284031215612ace57600080fd5b5035919050565b60008251612ae7818460208701612b75565b9190910192915050565b6020815260008251806020840152612b10816040850160208701612b75565b601f01601f19169190910160400192915050565b60008219821115612b3757612b37612bd6565b500190565b600082612b5957634e487b7160e01b600052601260045260246000fd5b500490565b600082821015612b7057612b70612bd6565b500390565b60005b83811015612b90578181015183820152602001612b78565b838111156111555750506000910152565b600181811c90821680612bb557607f821691505b6020821081141561172b57634e487b7160e01b600052602260045260246000fd5b634e487b7160e01b600052601160045260246000fd5b634e487b7160e01b600052602160045260246000fd5b634e487b7160e01b600052603260045260246000fd5b6001600160a01b03811681146106cd57600080fdfea26469706673582212202d3ec81f34254ad1408b38474de48bf788d9cd73a14e530fde9966405c8e5b2564736f6c63430008060033",
  "devdoc": {
    "kind": "dev",
    "methods": {},
    "version": 1
  },
  "userdoc": {
    "kind": "user",
    "methods": {},
    "version": 1
  },
  "storageLayout": {
    "storage": [],
    "types": null
  }
}